:020000022000DC
:1060000000000420756302005D6302005F6302000C
:106010006163020063630200656302000000000028
:1060200000000000000000000000000067630200A4
:1060300069630200000000006B6302006D630200F0
:106040004D8302006F630200498802006F63020003
:10605000ED9102006F6302009D8602006F630200F3
:106060006F6302006F6302006F6302006F630200E0
:106070006F6302006F6302006F6302006F630200D0
:106080006F630200ED7102006F6302006F63020034
:10609000897202006F630200C1AC02006F630200EC
:1060A0006F6302006F6302006F6302006F630200A0
:1060B0006F6302006F630200000000000000000038
:1060C0006F6302006F6302006F6302006F63020080
:1060D0006F6302006F6302006F6302006F63020070
:1060E0006F6302006F6302006F6302000000000034
:1060F000000000006F630200000000006F630200F8
:10610000000000000000000000000000000000008F
:10611000000000000000000000000000000000007F
:10612000000000000000000000000000000000006F
:10613000000000000000000000000000000000005F
:10614000000000000000000000000000000000004F
:10615000000000000000000000000000000000003F
:10616000000000000000000000000000000000002F
:10617000000000000000000000000000000000001F
:10618000000000000000000000000000000000000F
:1061900000000000000000000000000000000000FF
:1061A00000000000000000000000000000000000EF
:1061B00000000000000000000000000000000000DF
:1061C00000000000000000000000000000000000CF
:1061D00000000000000000000000000000000000BF
:1061E00000000000000000000000000000000000AF
:1061F000000000000000000000000000000000009F
:10620000354936480A1A02D0072291438D4634494F
:1062100034480A1A06D00722914381F309880222E2
:1062200082F3148830483149314A00F044F831484B
:106230003149324A00F03FF831483249324A00F0E1
:106240003AF832483249334A00F035F83248334997
:10625000334A00F030F833483349344A00F02BF821
:1062600033483449344A00F026F83448344900228F
:1062700000F02CF833483449002200F027F8334866
:106280003349091A082902DB002202604160314AC1
:1062900090471F481F49884205D00268043003B464
:1062A000904703BCF7E700208646EC46002000211B
:1062B000294A9047FEE7884207D0521A05D0037852
:1062C00001300B700131013AF9D17047884202D098
:1062D00002700130FAE770470000042000E003205C
:1062E000000004200000042050C00200E022002032
:1062F00038230020D4630200D463020072B102008C
:1063000050C00200E0220020E022002060B2020023
:1063100060B2020060B2020060B2020060B202002D
:1063200060B2020060B2020060B202004EC0020021
:10633000A8C0020038230020382300203823002082
:10634000F42F0020F42F0020F42F0020F42F002041
:10635000F44F00209D63020085980200FEE7FEE7EF
:10636000FEE7FEE7FEE7FEE7FEE7FEE7FEE7FEE705
:10637000704700BF1048804710484FF0070188431E
:1063800085460F4880470F48016841F4700101605D
:10639000BFF34F8FBFF36F8FFFF732BF0A480B4930
:1063A0000B4A884207D0521A05D0037801300B708F
:1063B0000131013AF9D170477163020000000420F5
:1063C000997E020088ED00E060B20200E022002029
:0463D000E0220020A7
:1063D4007047000007B5044B0093044A402300F0C3
:1063E40032F803B05DF804FBF563020039230020A2
:1063F4002DE9F84388461446B2B10F4B0F4E0325DE
:10640400002743F00109224608EB0701002003F0AE
:1064140031FC0744241A48B933782BB14FF47A403D
:10642400C847013D02D13570BDE8F88301233370BC
:10643400002CE8D1F8E700BF60B202003823002046
:10644400704703F04BBCF0B595B01D4616460846A0
:106454000C4601F061FC1A9B0D93CDE908650025FB
:106464002B46082205A920460A958DF82C500C9538
:1064740001F06FFC079B0293069B03939DF8143075
:106484008DF8115003F00302012A1DD1BDF8142028
:10649400059DC3F3C203C2F383168DF81030B20016
:1064A40008230EA9204601F054FCC5F3952508AB3A
:1064B4000093324602AB0EA9284600F0E3FB2046C7
:1064C40001F02EFC15B0F0BD022AF8D1BDF816502B
:1064D400C3F3C203C5F389158DF810300827082DBE
:1064E4002E4628BF08263B4632460EA9204601F018
:1064F40030FCAD1B08AB02AA31460EA8374400F0AD
:1065040025FC002DEBD1DAE7014B01221A7070470C
:10651400BA2300207047000070B5124D06460FCD17
:1065240088B06C460FC495E80F00002E84E80F0075
:106534004FF0FF334FF00602CDE90023CDE90233DB
:10654400094A0A484FF0EB7308BF002269460693D4
:1065540001F092FE08B100F099FD054B1E7008B0E1
:1065640070BD00BF74B202000D650200E02200207D
:106574007923002007B5044B0093044A4023FFF716
:1065840062FF03B05DF804FB956502007A230020E6
:1065940038B50D4B0D4D002018700D4804782D5D55
:1065A400D2B21C4665B1043002F0A6FD08B100F079
:1065B4006DFD084B1A7812B12378002BFBD038BD3F
:1065C4000C3002F087FBF1E7BA230020E82A002010
:1065D400E02200207923002008B50848084A0378FF
:1065E400D35C3BB1043002F033FDBDE80840002029
:1065F400FFF792BF0C3002F019FBF6E7E02200200F
:10660400E82A00200120FFF787BF000038B50A4DB3
:10661400FFF717FF0421284600F09CFA074B0124DA
:106624005C71FFF7EFFF042105F1100000F092FA0E
:10663400034B5C7138BD00BF40B20200F42200205D
:10664400FC220020037813F0040216D003F00303A5
:10665400012B03D0022B09D0012070470A6800885F
:106664000232C0F3831002440A60F5E70B684288E3
:10667400023303EB92130B60EEE710467047000001
:106684002DE9F04F87B000230446861C0DF1070066
:106694000F4615468DF8073000F0ECFF45480168B9
:1066A4003960D0E90132134401335B1A824600F2A7
:1066B4001C4700F5836900F21448B3421CD3002040
:1066C400002D73D004F00F039B0143F0050363F323
:1066D4000F00DAF80020DAF80830134003331644C8
:1066E4004AF823009DF80700CAF8006000F0E6FFAE
:1066F400012007B0BDE8F08F0121384601F03FF8D2
:10670400484601F054F8404601F051F8DAF8040024
:10671400DAF808B0029000EA0B0003300AEB8000BC
:1067240002A9FFF78FFF029B50BB0BEA03020AEB9F
:10673400820203F1020CD2680392013303EA0B0BC9
:106744000AEB8B0B02F00302012ADBF80C10CDF8E4
:1067540008C023D0022A16D08346404601F02AF806
:1067640010B1029BCAF804305946384601F007F8C4
:10677400DAE901231344DAF8002001339B1A9CE779
:106784000BEA0300C9E7BDF80E30C3F389130333E2
:106794004FEA114B0CEB93030293DEE7BDF80C3088
:1067A400C3F383134FEA114B6344F5E7A40544F0A4
:1067B40006008EE78C2400200B4B0C48FF2210B5FA
:1067C4009A600022C3F81824C3E90022C3F81424F1
:1067D40083F8202401F059FA044610B9044801F062
:1067E40001FB204610BD00BF8C240020C4B1020070
:1067F400D8B2020030B50A4C71B10A4A0A49121BD8
:10680400D20800239A4201D1002030BD31F8235030
:10681400854202D00133F5E7034654F83300F4E728
:10682400D8B1020040B20200E0220020094B013935
:1068340003EBC000032909D8DFE801F00A020406CB
:1068440004207047007970474079704700207047F2
:1068540002207047D8B10200034BD3E90030C31AB9
:1068640058425841704700BF8C2400202DE9F04362
:1068740087B0FFF7F1FF0646002840F0F9807D4D10
:10688400C5F81804BFF34F8F6B68AC6802932340BC
:10689400033305EB830002A9FFF7D4FE029B18B172
:1068A400D5F81824002A5FD004EA0302991C0133A6
:1068B40005EB8202234005EB8303D268DB68049373
:1068C40002F00303022B0392029160D1BDF80E3053
:1068D4006948C3F38917502FB84628BF4FF05008B2
:1068E40068F38F1308F10801ADF80E3001F0E5F9F3
:1068F4000646002800F0A78001F00EFA00230822C3
:1069040003A9304601F01BFA029924EA010201327C
:10691400B8EB820F4FEA820332D95FFA88F85BB38F
:106924002140DCB2A8EB040803315FFA88F9A046E1
:10693400524C05EB810108234246304601F0FFF931
:1069440034B108F108034A462146304601F0F7F90C
:10695400029B033703EB97070297D5F81834002BF3
:1069640049D1D5F8104459E02A689A428FD86A6010
:10697400304607B0BDE8F08340491C469946DAE743
:106984000C40E11C0823424605EB8101DDE7012BA5
:1069940059D1BDF80C303848C3F38311062928BFF8
:1069A400062161F3891302318900ADF80C3001F03E
:1069B40084F90646002846D001F0AEF900230822E7
:1069C40003A9304601F0BBF90027BDF80C20C2F33F
:1069D4008312BB00974203F10803BED202994A1CFA
:1069E40021400331029205EB81010422304601F07B
:1069F400A6F90137E9E7304601F092F9FFF72CFFD9
:106A040080F00100C6B2B3E7E3685B7923B1236881
:106A140031461B6820469847E3681C68002CF3D174
:106A2400304601F07DF90DF107008DF8074000F0C4
:106A340021FED5F818340BB9029B6B609DF8070052
:106A440000F03CFEDAE7D5F8104454B90C4B0D487D
:106A54000D49C01AC008000440F0020000F062F8BA
:106A6400CCE7236820469B689847E3681C68ECE7FA
:106A740000267DE78C240020C4B102009824002065
:106A8400D8B1020008B20200C1B202002DE9F74FEA
:106A9400224D04460F46924601A901221846D5F814
:106AA40008909B46FFF7ECFD20B3019E4FF00008D1
:106AB400B21CD84508EB020126D11948002100F088
:106AC4002FFE80F31000000440EA1440E400731C1D
:106AD40004F0380403EA090306EA090644F0010451
:106AE40005EB8303033644EA881444EA8724D86018
:106AF40045F8264095F820341BB1FFF7B7FE00286F
:106B0400FBD103B0BDE8F08F09EA010105EB810177
:106B14005AF82830CB6008F10108CAE78C24002019
:106B2400A828002000231A46FFF7B0BF07B50123A9
:106B3400019201AAFFF7AAFF03B05DF804FB07B5B1
:106B4400CDE9002302236A46FFF7A0FF03B05DF8F6
:106B540004FB000030B50F49D1F81024034600208F
:106B6400144634B9DC6820714AB9C1F81034226083
:106B740030BDE4682579854206D02468F1E7D268FF
:106B8400116821601360F3E701300A28E8D14FF05F
:106B9400FF30EDE78C240020094A38B50123D2F8F0
:106BA400104482F820341D4604B938BDE3685D7191
:106BB400236820465B689847E3681C68F4E700BFD5
:106BC4008C24002007B503460846197A052911D0FC
:106BD4005B7A2BB1094A0A49019000F04EFE0198F4
:106BE4000849019000F049FE019803B05DF804EBF8
:106BF40000F038BE002AF8D0F2E700BFE4B2020089
:106C0400E9B2020009B3020030B5C38885B0044676
:106C14000D4633B1144A00921449154A284600F02F
:106C24002CFE217A05291DD0637A4BB1A088FFF789
:106C3400FDFD104B104953F82020284600F01DFE9E
:106C4400227A0E4BA08853F8222003920021FFF7EA
:106C5400D1FD039A0A490346284605B0BDE83040F1
:106C640000F00BBE05B030BDE4B20200F4B2020085
:106C7400ECB2020070B30200E9B2020094B3020065
:106C84000CB302002DE9F04385B01F460C9D002390
:106C940095F80C902B7306460C46904629463846C8
:106CA400FFF7B2FFB8F1060F09D8DFE808F00412C5
:106CB400181F283340003146284600F0DEFD00222C
:106CC40029463846FFF77EFF85F80C9005B0BDE8ED
:106CD400F08322683146284600F0CFFDEFE7D4E97F
:106CE40000233146284600F0C8FDE8E7A368009376
:106CF4003146D4E90023284600F0BFFDDFE7E3680E
:106D04000193A36800933146D4E90023284600F098
:106D1400B4FDD4E723690293E3680193A368009365
:106D24003146D4E90023284600F0A7FDC7E763698C
:106D3400039323690293E3680193A36800933146A4
:106D4400D4E90023284600F098FDB8E708292DE986
:106D5400F74F80460E4617461C463CD8002593F84C
:106D64000C901D7319461046FFF74EFFDFF888A0FC
:106D7400DFF888B0AE4231D918F8052059462046CC
:106D840000F07BFD0135082DF4D11949194DDFF8C8
:106D940070A0204600F071FD4FF0000B5E4522D933
:106DA40018F80B207E2A05D81046019204F02CF91D
:106DB400019A00B92E225146204600F05EFD0BF1E7
:106DC400010BBBF1080FE9D1012221463846FFF738
:106DD400F9FE84F80C9003B0BDE8F08F51462046CC
:106DE40000F04BFDCEE72946204600F046FDE6E7DD
:106DF40020B302001EB302001CB3020016B302004B
:106E040022B302002DE9F04F364E87B04FF000094F
:106E1400354B1B785FFA89F5AB4202D807B0BDE861
:106E2400F08F324BD3F800A01AF835000124D6E9CC
:106E3400001EA0F12002C0F1200304FA02F224FA99
:106E440003F3134304FA00FC059301EA0C030093D3
:106E5400059B0EEA03030193DDE9002313430AEBC8
:106E6400C50B3BD0059B21EA0C012EEA0303C6E9BE
:106E7400001301F003FC01461AF835001C4DA0F183
:106E84002002C0F1200304FA02F224FA03F31343AC
:106E9400D5E900C28440134004EA0C040393A0F132
:106EA4002002C0F1200321FA03F3029401FA02F84C
:106EB40048EA0308DDE9023401FA00F7444508BF53
:106EC400BB420BD1DBF8043043B19BF80120541EC4
:106ED40062426241551A69426941984709F10109C0
:106EE40096E700BF78290020482900208029002047
:106EF40070290020F8B506461E4800F0ABFBC0BB65
:106F04000125A6F12004C6F1200325FA03F305FAAE
:106F140004F41C43184BD3E900C2B5400CEA050045
:106F240002EA040101431F461DD1304601F0A6FBCD
:106F3400124BD3E9001288B129432243C3E900125A
:106F4400D7E900231C430E4B0A4819681543C7E9C7
:106F540000540022BDE8F84000F034BB21EA0501EA
:106F640022EA0402EAE72CEA050522EA0404C3E95A
:106F74000054F8BD502900207829002070290020F1
:106F84004C290020042A2DE9F34105460C461646F7
:106F940039D901F081FAD8B11C4B1D491D601D4B34
:106FA400DFF884801C701C4B00221E600023C1E9A2
:106FB40000231A49C1E90023013CE4B20026032757
:106FC400FF2C0CD1164A1748002100F0E9FA03E01F
:106FD40001F02AFA0028DFD002B0BDE8F08105EB09
:106FE400C40315F834009B788DF80660424601A965
:106FF4008DF804708DF8053001F058FA013CE4B2C4
:107004000028DDD0E8E70720E6E700BF802900205C
:1070140070290020482900204C29002078290020CC
:10702400096E0200A8B30200F96E020070B5084DA3
:10703400084E00242B789C4201D3002070BD336895
:10704400012113F8340001F0ADFA0134F2E700BF76
:10705400482900208029002070B5094D094E0024DC
:107064002B789C4204D3BDE87040074800F0F2BA84
:10707400336813F8340001F0DFFA0134F0E700BF9D
:107084004829002080290020502900201FB5002114
:10709400039001AA44F20100CDE9011100F004F8C3
:1070A40005B05DF804FB000010B572B6FFF774FD7F
:1070B400FFF7DCFB0028FBD1104B114C1149E41AFB
:1070C400E408240444F00100FFF72CFD0E4B1B6878
:1070D400DB0700D500BE0D4944F00200FFF722FD96
:1070E400BFF34F8F0A490B4BCA6802F4E0621343A3
:1070F400CB60BFF34F8F00BFFDE700BFD8B10200E4
:1071040008B20200ACB30200F0ED00E0B8B3020034
:1071140000ED00E00400FA05094A53789178013340
:10712400DBB2994208BF0023117899421FBF037054
:107134005078182303FB002014BF0430002070474C
:107144008429002073B5054600240DF107000E467E
:107154008DF8074000F08EFA0DF10600FFF7DCFF12
:1071640090B10670094B9DF8062045605A709DF851
:10717400070000F0A3FA24B9054B4FF48012C3F8BA
:107184000021204602B070BD0424F0E784290020C9
:1071940000E100E0024B4FF43C6043F00103184768
:1071A400D0B3020038B50C4B0C4C4FF40032C3F88A
:1071B400802001254FF48033C4F84833C4F80833E1
:1071C4006560FFF7E7FF064BA56000241C60FFF72E
:1071D400E1FF044B1C7038BD00E100E000100140E9
:1071E400A02A0020912A0020F8B51F4B1F491B68D4
:1071F4000025C1F84051C1F84451C1F84851C1F8C3
:107204004C51C1F80051C1F804514BB3D1F80445B5
:1072140017490968641A24F07F442F461A68A24269
:1072240009D8A41A15441A7CDE691AB1D3E90520D9
:107234001F749047AEB90F4A0F4B11781B788B42DD
:1072440005D10133DBB2022B08BF0023137012787F
:107254000A4B43F822500A4B4FF48012C3F8002122
:10726400F8BD3346DAE700BFA42A0020001001402D
:10727400A02A00209D2A00209C2A0020942A002075
:1072840000E100E02DE9F04FA24AA3491378097800
:10729400A24D994285B03CD00133DBB2022B08BF2A
:1072A400002313709E4912789E4B0F6853F82200F6
:1072B4003B1823F07F4300220B602B6816461446CC
:1072C400944613B942B12B6006E0196881420ED985
:1072D40002B12B60091A196001272B68DFF84CA250
:1072E40001934FF00008BEB9DFF848B262E0401ADB
:1072F4000C44D968D3F81CE0C3F800C031B13A1982
:1073040022F07F42C3E90121DE611E467346012259
:10731400D7E700263746E0E73446F669804A6368D3
:107324001268DFF814C2A068991A21F07F41614500
:1073340000F2A88001442160012222742A680023FB
:10734400C4E90133E361002A40F0A5802C60CAE758
:107354009BF802105A1CD2B291428BF8002004BF51
:1073640000228BF80020182202FB03B32A68197943
:107374009C68022977D0032900F08180012919D162
:10738400207CB8B9D3E90312A2605A69E2609A6911
:10739400654BA2611B78002B0CBF0B460346636050
:1073A400BCE78C4200F094808946C9690029F8D171
:1073B400002323749BF800309BF801209A42C7D124
:1073C4002B68B8F1000F04D1019A9A4201D1002F21
:1073D40043D0002B79D0D3F800A0544D504BD5F8AE
:1073E40004751C68DFF854813E1B98F8003026F0C1
:1073F4007F4603369BB94FF48033C5F84433C5F850
:1074040004334B4B4FF400324FF00109C3F8802191
:107414001A60C5F80090FFF7BDFE88F80090B245E9
:107424002CBF5444A41924F07F44C5F84045D5F832
:107434000435DB1B23F07F43E41B033324F07F4438
:10744400A3420AD9D5F80435C5F84035FFF7A2FEA2
:10745400374B4FF40032C3F80021334B00221A702B
:1074640005B0BDE8F08F114691469FE71174D269CB
:107474000123002AFAD1002B9CD02A609AE700232A
:107484001946F6E7D31A23F07F43834234BFC31A65
:107494000023236050E721681368994213D8591ACE
:1074A4001160E26152E7091AD8691A4638B10346F5
:1074B40018688842F7D3401A1860184613462160AA
:1074C400E061DC610FE71346F2E7FFF76BFEC4E708
:1074D4004C4511D1D3692B6073B9DFF844E0012026
:1074E400CDE90212CAF80800CEF800300E4B18702D
:1074F400FFF750FEDDE902120B68C969C9F81C10D8
:1075040011B1086803440B602B68934218BF4FF015
:1075140001084DE79C2A00209D2A0020A42A00206F
:10752400A02A0020942A0020902A00200010014064
:1075340000E100E084290020FEFF7F00912A002062
:1075440008B5FFF72FFE104B00200B2218809A700D
:107554000E4B18600E4B18700E4B18700E4B4FF4F8
:107564008012C021C3F8802183F814131A6002F139
:107574008042A2F56F22C2F8080583F81113074B65
:10758400D2F804251A6008BD84290020A42A00200A
:107594009C2A00209D2A002000E100E0A02A00206F
:1075A400074B9B784BB132B128B10368187C20B9E2
:1075B40059745A617047072070470820704700BF0C
:1075C400842900202DE9F743DFF8848098F80230FD
:1075D40005460E461746ABB3A0B3042930D9436918
:1075E40083B3437C0024012B0DF107000CBF8946B3
:1075F400A1468DF8074000F03DF80DF10600FFF7B5
:107604008BFDD8B1012303700F4B4560D3F80435CB
:10761400C0E90497C0E902369DF8063088F80130C5
:107624009DF8070000F04AF824B9084B4FF4801283
:10763400C3F80021204603B0BDE8F0830424EFE73B
:107644000724F7E70824F5E70010014000E100E013
:1076540084290020064A92783AB130B1426922B1B5
:10766400002202740221FFF76DBD0820704700BF9D
:107674008429002070B5EFF3108672B60C4A946822
:1076840001239CB993600B4B0B4DD3F88010294018
:107694001160C3F88050D3F8841051604FF0FF326A
:1076A400C3F88420047006B962B670BD0370FAE7AB
:1076B400A82A002000E100E0FC06FFBD084B9A6800
:1076C40010B55AB150B9EFF3108172B6054A1C686F
:1076D40014605C685460986001B962B610BD00BF64
:1076E400A82A002000E100E001F01F024B0901215B
:1076F400914000EB830000F01EB801F01F0301224B
:107704009A404B0900EB8300D14300F02CB84B099D
:1077140001F01F0150F82300C84000F00100704739
:1077240010B5034653E8000F0A4643E8002494F0DA
:10773400000FF7D110BD10B5034653E8002F42EAFD
:10774400010043E8000494F0000FF6D110BD10B519
:10775400034653E8000F00EA010243E8002494F0D2
:10776400000FF6D110BD10B5034653E8002F02EA0E
:10777400010043E8000494F0000FF6D110BD10B5E9
:10778400034653E8002F02EB010043E8000494F0A1
:10779400000FF6D110BD10B5034653E8002FA2EB3D
:1077A400010043E8000494F0000FF6D110BD01215C
:1077B400FFF7C1BF0021FFF7CABF10B590B1D0E9F0
:1077C400012301689B1ADBB20A60013BDBB2FF2B89
:1077D400026802D10020107110BD11684C1C1460A5
:1077E4000B70F2E70E20F7E737B5054600240DF1DC
:1077F40007008DF80740FFF73DFF2A686B681168A2
:1078040099420ED9481E106011F8014CEB68298A80
:1078140001FB0434AB6811791B1ADBB2994238BFFF
:1078240013719DF80700FFF749FF204603B030BDF0
:1078340037B5054600230DF107000C468DF80730D7
:10784400FFF718FF2A681368591C1160E968641A65
:10785400298AB4FBF1F41C709DF80700FFF72EFF92
:1078640003B030BD826810B504462AB1436901688B
:10787400006998470023A36010BD0EB403B50399B3
:1078840021B104AB01AA019300F06EF802B05DF8D7
:1078940004EB03B07047826830B40468551C8560FB
:1078A400A154D0E901329A4202D330BCFFF7DABFC7
:1078B40030BC70472DE9F84F9846DDE90A43154678
:1078C40082460F460A464FF00109AA420FD2C1452B
:1078D40038BFC14613F0010B01D16CB90024012655
:1078E400B8F1010F1BD908F1FF386E43F8E709F12D
:1078F4000109B2FBF5F2E8E79B070ED5B8F1000FDA
:107904000CBF30262026A145E9D2013C3146504621
:10791400FFF7C1FF002CF6D1E0E72026F3E7B7FB21
:10792400F6F39D42E1D9DFF83C80B7FBF6F350460D
:1079340018F8031006FB1377FFF7ADFF3346AB428D
:10794400B6FBF5F6F1D2BBF1000F02D00CB1A145A4
:1079540001D3BDE8F88F20215046013CFFF79BFF7F
:10796400F4E700BFD6B302002DE9F74F05461746EA
:107974008846002900F0428118F8011B49B92B7B85
:10798400002B00F03B81284603B0BDE8F04FFFF721
:1079940069BF252940F0B780002698F800302D2BC8
:1079A400424608F1010823D0302B24D02B2B25D0BC
:1079B40000242A2B02F1010123D13B681A1D1B6804
:1079C4003A601C440A4613782E2B26D101324FF01C
:1079D400000A104610F8011BA1F1300CBCF1090F8C
:1079E4001DD80A2303FB0A13A3F1300A0246F0E769
:1079F40046F00106D1E746F00206CEE746F004065B
:107A0400CBE711F8013CA3F130000928DBD80A22A6
:107A140002FB0434303C0A46CBE74FF0000A12F86C
:107A2400011B01F0FB0068289046F8D0782909D89A
:107A34006F290CD8632962D022D8252963D058290C
:107A440000F0888098F80030002B95D197E77039C2
:107A54000829F7D801A353F821F000BFDB7B02000B
:107A6400497A0200497A0200697B0200497A0200DD
:107A7400477B0200497A0200497A0200597B0200DE
:107A8400642901D06929DDD13A68D2F80090111D2A
:107A940089EAE9723960A2EBE9724FF0010B092A15
:107AA40035DCD34538BFD3462CB1B9F1000F01DB27
:107AB400720700D5013CB30702D5BAF1000F03D019
:107AC400F00701D44CBB0024B9F1000F2DDAC9F141
:107AD40000092D212846FFF7DEFE06F00302022AE4
:107AE40004D1BAF1000F01D11CBB0024CDE900463A
:107AF40053460A2249462846FFF7DCFEA2E73B68C4
:107B04001A1D19783A602846FFF7C5FE9AE70A233A
:107B14000BF1010BB2FBF3F2C1E7A345D4D2202150
:107B24002846013CFFF7B7FECCE77107D5D52B21DA
:107B3400D0E7A345DAD230212846013CFFF7ABFE5B
:107B4400D2E73968CDE900460A1D3A6053460A2255
:107B54000968D0E739680A1D3A60CDE90046534602
:107B64001022F5E73B681A1D3A6016F00106D3F8B7
:107B7400009028D1B9F1000F03D0484603F0C7FAAA
:107B84000646B44200D904BB09F1FF3919F8011FB4
:107B940000293FF457AF2846FFF77DFEF6E7284655
:107BA4000136FFF778FE19F806100029F7D1A6422E
:107BB400BFF448AF002C3FF445AF20212846013CD8
:107BC400FFF769FEF3E70026EDE720212846013C94
:107BD400FFF761FED5E73B681A1D3A60302128465D
:107BE4001C68FFF758FE78212846FFF754FE002250
:107BF4000823CDE90032214610227CE703B0BDE81A
:107C0400F08F00BF2DE9F84FB0F806A04579D2F8FF
:107C140000B09DF828900AFB05F5043D88460BEB5F
:107C24000301A94203F1040488BFA5EB030BB4FBD1
:107C3400FAF607460AFB1644C2F800B04EB9AAEB9E
:107C440004055D4528BF5D46BBF1000F04D1BDE8C6
:107C5400F88F3F68013EF1E7043408EB06003C442A
:107C64002A46B9F1000F0DD02146ABEB050B03F00A
:107C7400D0F9DA452E443F6855464FF0000428BF3A
:107C84005D46E1E701462046EFE7FFF796BDF8B50C
:107C940046790146721E0546002393422D6803D39C
:107CA4000024A64202D8F8BD0133F6E70F6828463F
:107CB400FFF7BEFD01343946F3E72DE9F843068AA0
:107CC400CD1C0746FFF790FD043E35440446B5FB42
:107CD400F6F5F0B14FF48073EDB28380C680013DB8
:107CE400076081464FF00008A84512D23846FFF7D6
:107CF4007BFD064648B163790133637108F10108DD
:107D0400C9F8000007608146EEE72046FFF7BFFF91
:107D140034462046BDE8F88301210430FFF72FBD27
:107D240010B5012104460430FFF735FD10F0FF0FB4
:107D340004D12046BDE81040FFF7A9BF10BD1FB510
:107D440003920022009203AAFFF75CFF05B05DF8DE
:107D540004FB1FB503920122009203AAFFF752FF0E
:107D640005B05DF804FB41DF70470000064B10B519
:107D740000241C70054B1C60BFF35F8F0449054849
:107D840000F039F8204610BDBC2A0020C02A00208B
:107D9400F0B30200B42A002007B500230DF1070058
:107DA4008DF80730FFF766FCF1EE103A23F09F03DD
:107DB400E1EE103ABFF35F8F094B4022C3F88421F0
:107DC4009DF80700FFF77AFC02F05EFF20B1FFF791
:107DD400CAFF03B05DF804FB20BF40BF20BFF8E733
:107DE40000E100E0836800225A60C3E904229A603B
:107DF400DA601A6070470B684A684360934208BFB0
:107E04000023016008BF43607047436843B10268C0
:107E1400916852680B449342436004BF002343605B
:107E24007047000010B50D49A1F59472914201D834
:107E340000200FE08C1AE30F03EBE4035B1002EB6A
:107E4400C30452F83330834205D802D204F1080245
:107E5400ECE7606810BD2146E8E700BFF4B8020013
:107E640008B5FFF7DFFF024B002808BF184608BD1E
:107E7400B6B70200054B1B68082B01BF044B1868FA
:107E8400B0FA80F0400918BF00207047300100109C
:107E94003401001008B54FF080430022C3F80C21D0
:107EA400C3F81021C3F838254FF0805203F540433E
:107EB400D2F80414C3F82015D2F80814C3F8241512
:107EC400D2F80C14C3F82815D2F81014C3F82C15E2
:107ED400D2F81414C3F83015D2F81814C3F83415B2
:107EE400D2F81C14C3F84015D2F82014C3F8441572
:107EF400D2F82414C3F84815D2F82814C3F84C1542
:107F0400D2F82C14C3F85015D2F83014C3F8541511
:107F1400D2F83414C3F86015D2F83814C3F86415D1
:107F2400D2F83C14C3F86815D2F84014C3F86C15A1
:107F3400D2F84424C3F87025FFF79CFF10B1384BE6
:107F4400384A1A60FFF796FF18B1374BFB22C3F883
:107F54001825FFF78FFF48B13449354B0A681B6871
:107F640022F00F0203F00F0313430B60FFF782FFAD
:107F740018B1304B4FF400721A604FF08043D3F8BD
:107F84000024D20744BF6FF00102C3F800242A4A38
:107F9400D2F8883043F47003C2F88830BFF34F8FAF
:107FA400BFF36F8F4FF01023D3F80022002A03DBB6
:107FB400D3F80432002B2FDA204B0122C3F8042516
:107FC400D3F80024002AFBD04FF010221221C2F86B
:107FD4000012D3F80024002AFBD04FF01023122201
:107FE400C3F80422154B1A46D3F800140029FBD019
:107FF4000021C3F80415D2F80034002BFBD0BFF3E2
:108004004F8F0D490E4BCA6802F4E0621343CB60F4
:10801400BFF34F8F00BFFDE70A4B0B4A1A6008BD40
:108024008C5600404881030000F00040E40E0040FC
:10803400580200104096024000ED00E000E00140CC
:108044000400FA05042300200090D003074B1B5CB6
:108054001F2B86BF064903F01F034FF0A0410122E6
:1080640002FA03F3C1F80C35704700BFF4B80200FC
:1080740000030050074B1B5C1F2B86BF064903F00F
:108084001F034FF0A041012202FA03F3C1F808359F
:10809400704700BFF4B802000003005008B5002088
:1080A400FFF7E8FF0120FFF7E5FF0220FFF7E2FFFB
:1080B400BDE808400320FFF7DDBFC20710B5044642
:1080C4000CD54FF0A0430322C3F83427C3F8382754
:1080D400C3F83C27C3F84027FFF7E0FFA3070AD5FE
:1080E4004FF0A0430C22C3F82C27C3F83027C3F861
:1080F4006027C3F8642710BD38B5074C051E04F18A
:10810400080318BF1C4623682BB11A6822605B68F9
:1081140028469847F7E738BDCC2A002020B9054BFC
:1081240001225A70FFF7E8BF012802D1014A90707A
:10813400F8E77047C42A002020B9034B01225A7083
:10814400FFF7DABF704700BFC42A002038B50B4CD4
:10815400237883B90A486360A3602361E36000F075
:10816400C9F8054602F090FD08B900F0CFF80123E4
:108174002370284638BD8525FBE700BFC42A0020AC
:108184002181020037B50B4C00230DF107008DF857
:108194000730FFF76FFAE368013BE360E56815B960
:1081A40000F0C6F8A5709DF80700FFF787FA03B042
:1081B40030BD00BFC42A0020012813B508D003280D
:1081C4001CD018B9104B0122C3F8802002B010BD96
:1081D4000E4C00230DF107008DF80730FFF74AFA23
:1081E40023780BB9FFF7B2FFE3689DF8070001336A
:1081F400E3600123A370FFF761FAE7E700F086F874
:10820400FFF7C0FFE2E700BF00E100E0C42A00205E
:108214001FB503788DF800304368019383688DF8A7
:108224000830C368054A0393054B684653F8213068
:1082340052F82110984705B05DF804FBD82A0020B5
:10824400E02A00201FB503788DF8003043680193BD
:1082540083688DF80830C368054A0393054B684664
:1082640053F8213052F82110984705B05DF804FB0B
:10827400D82A0020E02A0020F0B5194B90F800C05D
:10828400DFF86CE043F82C20164B16460A6943F8D5
:108294002C204B7F0EF80C300C4607460FCC89B0CF
:1082A4006D460FC594E80F0085E80F001EF80C30EA
:1082B400CDF810C04BB1002E0B4A694608BF3246B8
:1082C400381D00F0E7FD09B0F0BD002E074A6946ED
:1082D40008BF324607F10C0000F0D2FBF3E700BF01
:1082E400E02A0020D82A00201582020049820200D8
:1082F400E82A0020044A137923B9012110609180EF
:108304001846704785207047EC2A0020074B1A68EE
:10831400D2075FBFC02283F8002301221A604FF006
:1083240080430122C3F81825704700BF00E100E034
:10833400044B01221A604FF08042D2F81834DB0358
:10834400FBD470470C000040154B07B51A687AB18E
:1083540000221A601B680093009B4FF080430122A7
:10836400C3F808230F4B587910B95A711B68984702
:108374000D4B1A6882B100221A601B680193019B9D
:108384004FF080430222C3F80823064B1B680120E8
:1083940003B05DF804EB184703B05DF804FB00BFBD
:1083A40000010040EC2A00200401004000F180405C
:1083B40000F5C040002382B0036003680193019B71
:1083C40002B0704703681F2B83BF03F01F030360D1
:1083D40001484FF0A04070470003005007B50190DA
:1083E40001A8FFF7EFFF019B00EB8300D0F80037F3
:1083F40023F44033C0F80037D0F8003743EA014192
:10840400C0F8001703B05DF804FB0000054B4FF003
:10841400FF32072843F8202084BFC01880F8582072
:10842400704700BFF42A002010B5174C94F86A3046
:1084340043BB04F130033021FF22013911F0FF0165
:1084440003F8012BF9D1C8B2FFF7E0FF01310C2981
:10845400F9D1062200210D4802F004FE0C4BC02283
:1084640083F8062340221A604FF4BE70FFF79EFF84
:10847400084B4FF00042C3F80423012384F86A3008
:10848400002010BD0820FCE7F42A0020582B00200F
:1084940000E100E000600040034B93F86A000038FC
:1084A40018BF0120704700BFF42A0020F7B53B4EE7
:1084B4003318054693F93030002B6CDA8B78C3F30C
:1084C4004003002B0BBF082400240C200820844206
:1084D40002D1042003B0F0BD56F82470013743D113
:1084E400701946F8242080F8304013B9331983F802
:1084F40058508B785A0717D4D80737D501A8019557
:10850400FFF760FF019B00EB8300D0F8003723F0F6
:108514000203C0F800372248EA0805F007070123E0
:10852400BB40875C3B4383548B780A7813F0020387
:1085340028D0A40004F1804404F5C0442D02D4F8EA
:10854400103523F44F3323F44073C4F81035120468
:10855400D4F8103505F47C5502F4403215431D431C
:10856400C4F810550020B5E70134B0E701A84A78F3
:108574000195FFF727FF019B03F5E073920040F894
:108584002320C8E7083C344494F8605045EA82123A
:1085940084F86020E6E708209CE700BFF42A002066
:1085A400582B002073B5224C2618054696F9302026
:1085B400072A1ADD224492F858309B09032B0FD165
:1085C400019001A8FFF7FEFE019BD0F81015D940D9
:1085D40001F0010102312846FFF700FF02B070BD2F
:1085E400012B0CBF02210321F5E7D3B2072BF5D8E9
:1085F400930003F1804303F5C043D3F8100540F022
:108604000100C3F8100502F14000800080B2FFF7BA
:10861400CDFE0029E2D096F9303054F82330002BF7
:10862400DCD0012303FA02F2024BC3F80423D5E79A
:10863400F42A0020006000400E4B034493F93020DC
:10864400072A02DD0021FFF7C9BED3B2072B10D8D9
:10865400930003F1804303F5C043D3F8101521F0D0
:108664000101C3F81015012303FA02F2024BC3F807
:1086740008237047F42A00200060004007B50190E9
:1086840001A8FFF79FFE019BD0F81005D84000F029
:10869400010003B05DF804FB2DE9F04F002489B01C
:1086A400CDE90244624D4FF48072012102F180430E
:1086B40003F5C04390B21B68012B06D1D5F80433EF
:1086C4000B4202D0FFF772FE0C430432B2F5907FE6
:1086D4004FEA4101EAD1574B1B68012B0ED14FF4ED
:1086E400BE70FFF763FE4FF0A04344F00044D3F89C
:1086F40010350293504BD3F81035039314F0FF0F49
:108704001AD04E4F00250126344210D0AB0003F19D
:10871400804303F5C043D3F81005D3F8101557F878
:10872400253023B1C1F30141C0F305209847013539
:10873400082D4FEA4606E7D1002C75DA04AF002372
:1087440004937B604FF0FF33CDE90633DFF8EC9000
:10875400DFF8EC800026354618F9012B531C4AD06B
:10876400C2F3C2000123D4B202F03F0B02F00702AD
:1087740003FA02F208AB191811F8083C13423AD074
:1087840009EB0B03A40993F9303059F823A0BAF18B
:10879400000F08D1032C2ED117F800C04CEA020CAC
:1087A40007F800C001E0032CF6D001A8CDF804B00E
:1087B400FFF708FE019B11F8181C03F5E07C114239
:1087C40050F82C00C0F3014005D0022813D1032C2B
:1087D4000BD1214604E003280DD1032C05D102213D
:1087E4005846FFF7FBFD0135EDB2BAF1000F02D098
:1087F40021465846D0470136042EADD1A5B14FF0DD
:10880400A0430299D3F8102503F540739142D3F89D
:10881400103502D10399994206D002920393049A27
:10882400059B0692079393E709B0BDE8F08F00BF5C
:10883400006000407C61004000030050F42A0020E6
:10884400542B0020014B1B68184700BF602B0020ED
:108854000E4B984237B50C4602D0002003B030BD11
:1088640000230DF107008DF80730FEF703FF084BD6
:108874001D7915B901221C601A719DF80700FEF7D5
:108884001DFF002DE9D01120E8E700BF00200040C3
:10889400602B0020034B984201BF034B00221A6057
:1088A4001A71704700200040602B002000234350C1
:1088B40082B043580193019B02B070470A4610B539
:1088C4004FF48E71FFF7F2FF136A9168C95C136A63
:1088D40001331362C0F81C1510BD8B690A4610B52C
:1088E4004FF4847123B9FFF7E1FFD0F8183510BDB8
:1088F400FFF7DCFF536AD168D0F81805C854536AEF
:1089040001335362F3E700001FB501238DF80030F3
:10891400044BCDE90110D3E900126846904705B035
:108924005DF804FB682B002030B54B48D0F80433C5
:1089340013F4007F85B005464DD0D0F82431002BC8
:1089440049D04FF49271FFF7B1FF4FF40173C0F8AF
:108954000833424B93F829200AB9012242603E4968
:1089640002228DF80020D1F88024C1F880240392DB
:108974009A690292DA6801920022C3E906226846E3
:10898400D3E9001290473448D0F81C315BB1334925
:108994000A6A4B699A420A464AD291F82830002B57
:1089A40046D1FFF78BFF2C48D0F844318BB14FF4FC
:1089B400A271FFF77BFF294B93F829200AB101220A
:1089C40002609A692AB10022586AD9689A61FFF74D
:1089D4009BFF05B030BDD5F804335B07D3D5D5F87C
:1089E4000831002BCFD01D4C1B482146FFF775FFE3
:1089F400636AA2699A422346C5D1E269E1684AB131
:108A04002369E3600023606AA261E3616362FFF7A4
:108A14007BFFB8E794F829200AB901226A600E4A5C
:108A24004FF40170C2F808030022586A9A61EEE715
:108A34004FF48E710848FFF739FF51690029B2D00D
:108A44000023029191688DF80030019153616846CA
:108A5400D2E900139847A6E700200040682B0020C5
:108A64001F2886BF00F01F00044B4FF0A04300F501
:108A7400E070022243F82020704700BF000300503A
:108A84002DE9F843634B057991462C2202FB05320C
:108A9400064692F82A200C469846002A40F0B680F2
:108AA4005D490068FFF7D4FE0746002840F0B08017
:108AB40021684A1C10D01F2987BF584A01F01F03A0
:108AC4000B464FF0A0420120984003F5E073C2F832
:108AD4000805032042F823006068431C0DD01F28BA
:108AE4008BBF00F01F0303464C4A4FF0A04203F52E
:108AF400E0734FF0000C42F823C03368A269C3F856
:108B0400242594F814C0627DBCF1010F4CEA0202E2
:108B1400C3F86C25C3F81405C3F80C152BD1A16850
:108B2400481C0DD01F298BBF01F01F020A463B4889
:108B34004FF0A04002F5E0724FF0000C40F822C064
:108B4400E068421C13D01F2887BF344A00F01F0C72
:108B540084464FF0A0424FF0010E0EFA0CFE0CF5C5
:108B6400E07CC2F808E54FF0030E42F82CE0C3F8AD
:108B74000805C3F810152C236B4308EB0302C2F855
:108B84000490226948F80320B9F1000F2BD0306813
:108B9400247F4FF48E71FFF789FE30684FF4A27181
:108BA400FFF784FE32681E4BC2F80433110B42F304
:108BB4000732002AA8BF02F160404FEA4413BABF4B
:108BC400184801F00F0400F56140DBB2B4BF03554F
:108BD40080F8003301F01F01012303FA01F1520967
:108BE400114B43F8221033680422C3F800252C23C8
:108BF40003FB05830022C3E9062283F829205A6176
:108C0400012283F82A203846BDE8F8830827FAE7CA
:108C14001127F8E7682B00202D890200000300507B
:108C24008000020014ED00E000E100E02DE9F041D5
:108C340003680479244D0022C3F800252C2202FB8A
:108C44000452014652686AB1204AC3F8082343F328
:108C54000732C3F3043652090120B04020321C4EBF
:108C640046F82200D3F80C05D3F81485D3F8086528
:108C7400D3F810754FF0FF329042C3F81425C3F8AF
:108C84000C25C3F80825C3F8102501D0FFF7E8FE2A
:108C9400B8F1FF3F02D04046FFF7E2FE7A1C02D053
:108CA4003846FFF7DDFE731C02D03046FFF7D8FECE
:108CB4000868FFF7EFFD2C2303FB0454002384F81A
:108CC4002A306360BDE8F081682B00208402020032
:108CD40000E100E02DE9F843204B07794FF02C091F
:108CE40009FB0734054666699846002E33D10068AF
:108CF4006261A16026624FF48E7184F82860FFF7E8
:108D0400D5FD2868012383602146FFF7D7FD6368FA
:108D1400A14683B92868226A63699A4211D32B68F1
:108D2400D3F81C21002AFBD00122DA602C2303FB98
:108D3400078300225A613046BDE8F88394F828304E
:108D44003BB9D0F81C31002BF8D04946FFF7B6FDEB
:108D5400E1E70F26EAE71126EDE700BF682B0020C4
:108D64000023435082B043580193019B02B07047E3
:108D74001FB501238DF80030044BCDE90110D3E970
:108D840000126846904705B05DF804FB942B002060
:108D94007FB5364AD2F82461002E46D010464FF4EF
:108DA4009271FFF7DDFF02238DF80030D2F8803492
:108DB400C2F880340393D2F83C3502932C4BDA6822
:108DC40001920022C3E906226846D3E900129047C3
:108DD4002648D0F8443173B14FF4A271FFF7C0FFB5
:108DE400234B9A693AB10022C3E90622D968D0F824
:108DF4003C05FFF7BDFF1D48D0F820319BB14FF46F
:108E04009071FFF7ADFF1A4B5A6962B1D0F84C1557
:108E14000291002299688DF8002001915A616846F8
:108E2400D3E90012904704B070BDD2F81031002B82
:108E3400CED04FF488711046FFF792FF0C4BD2F856
:108E44003C0599698842C3D1DC69D96864B1D2F818
:108E5400005225F02005C2F800521A699C61DA60BC
:108E6400DE61FFF785FFB3E79C61FAE7002000406D
:108E7400942B00201F2886BF00F01F00044B4FF0E6
:108E8400A04300F5E070022243F82020704700BFA1
:108E9400000300502DE9F843674B067991462422DC
:108EA40002FB0632044692F820200D469846002A1A
:108EB40040F0BE8061490068FFF7CAFC07460028FD
:108EC40040F0B8802868421C10D01F2887BF5C4A35
:108ED40000F01F0303464FF0A0420121994003F51F
:108EE400E073C2F80815032142F8231069684B1C8B
:108EF4000DD01F298BBF01F01F030B46504A4FF0C2
:108F0400A04203F5E0734FF0000C42F823C023683D
:108F1400AA69C3F8242595F814C06A7DBCF1010F31
:108F24004CEA0202C3F86C25C3F80C05C3F8141507
:108F34002BD1A968481C0DD01F298BBF01F01F023B
:108F44000A463F484FF0A04002F5E0724FF0000C93
:108F540040F822C0E868421C13D01F2887BF384A53
:108F640000F01F0C84464FF0A0424FF0010E0EFAA1
:108F74000CFE0CF5E07CC2F808E54FF0030E42F855
:108F84002CE0C3F80805C3F810152423734308EB39
:108F94000302C2F804902A6948F80320B9F1000FCB
:108FA40035D020682A7F4FF48871FFF7D9FE2068F6
:108FB4004FF49071FFF7D4FE20684FF49271FFF7DD
:108FC400CFFE20684FF4A271FFF7CAFE23681D4943
:108FD400C3F80413190B43F30733002BAEBF03F19B
:108FE400604001F00F0518484FEA4212A8BF00F58F
:108FF4006140D2B2B4BF425580F8002301F01F0192
:10900400012202FA01F15B09104A42F82310236895
:109014000822C3F80025242303FB06830022C3E9A6
:1090240006225A61012283F820203846BDE8F883DD
:109034000827FAE71127F8E7942B0020958D020002
:10904400000300501003020014ED00E000E100E012
:109054002DE9F04103680479244D0022C3F800256A
:10906400242202FB0452014652686AB1204AC3F822
:10907400082343F30732C3F3043652090120B040F6
:1090840020321C4E46F82200D3F80C05D3F8148580
:10909400D3F80865D3F810754FF0FF329042C3F847
:1090A4000C25C3F81425C3F80825C3F8102501D0EE
:1090B400FFF7E0FEB8F1FF3F02D04046FFF7DAFECB
:1090C4007A1C02D03846FFF7D5FE731C02D0304616
:1090D400FFF7D0FE0868FFF7DDFB242303FB0454ED
:1090E400002384F820306360BDE8F081942B0020D5
:1090F4001003020000E100E001F06043B3F1005FFF
:109104002DE9F041064632D11B4B0779242505FB96
:10911400073598466C6964BB6A610068A9604FF4BE
:109124009071FFF71DFE4FF4AC713068FFF718FE25
:1091340033686A69A968C3F84415C3F8482501224D
:109144009A606A6862B9D3F82021D3F8584152B9B9
:10915400002CF8D00F24242303FB078700237B6112
:109164002046BDE8F081002C18BF0F24F3E710243B
:10917400F6E71124F4E700BF942B0020024B53F8C8
:10918400213007C8184700BFB82B002010B4044C86
:10919400037944F82320034A5DF8044B00F064B8D3
:1091A400B82B0020819102001FB54A7D022AD3B258
:1091B40007D0032B0FD0012B00D1436205B05DF81B
:1091C40004FB00238DF804300293039301A88B68F9
:1091D40089699847F2E701238DF80430D0F83C35CB
:1091E4000293D0F84C35F0E713B54FF04020D0F897
:1091F4002831DBB1194B1A4900221A601B6800930D
:10920400009B4B7D012BDAB210D10B68CC68C0F8FF
:109214004445C0F848354B680C69C0F83445C0F87B
:109224003835022382624B75FFF7BEFF4FF04020B2
:10923400D0F8043183B10B4B094900221A601B6832
:109244000193019B4B7D022B06D103234B7502B086
:10925400BDE81040FFF7A8BF02B010BD2841004090
:10926400C42B0020044100402DE9F04F85B006795D
:1092740001939046724A1C2303FB062307461B7D79
:109284000D469146002B40F0D5800B7C032B00F259
:10929400D38004686B492046FFF7DAFA002840F0CF
:1092A400CD802B68FF2B00F0B9801F2BE97C87BF92
:1092B400DFF89CC103F01F021A464FF0A04C02F5E0
:1092C400E07209024CF822106968FF2900F0A980B5
:1092D4001F298BBF01F01F020A46DFF874C14FF04B
:1092E400A04C02F5E0724FF0000E4CF822E0D5F8E5
:1092F4000CC095F812E0BCF11F0F8BBF0CF01F02DD
:109304006246DFF84CA14FF0A04A02F5E0724FEA42
:109314008E0E4AF822E0D5F808E0BEF11F0F8BBF8D
:109324000EF01F0AF246DFF828B14FF0A04B0AF501
:10933400E07A00224BF82A20C4F808E5C4F8101596
:10934400C4F80C35C4F814C5C4F83425C4F8382559
:10935400C4F84425C4F848256B7C2A7C003B18BF1C
:109364000123022A60D0032A61D0012A01D143F0EB
:109374000203C4F854352B7DC4F85C356B7DC4F806
:10938400C0350022C4F80421D4F804310393039BAC
:10939400C4F82821D4F828310293029BD4F800326F
:1093A40043F00403C4F800321C2303FB0699019B19
:1093B400C9F8183040F2024389F81520C4F8043380
:1093C4003B68C9F8088043F30731AA7D0029A8BF88
:1093D40001F16045C3F307334FEA4212BBBF1A4D94
:1093E40003F00F0705F56145D2B2AABFD2B2EA5520
:1093F40085F8002349090122144D03F01F0302FAE2
:1094040003F345F821300E4B1C2101FB06360223E1
:109414003275C4F8003505B0BDE8F08F4FF0FF3366
:1094240052E74FF0FF3162E743F00403A1E743F052
:1094340006039EE70820EEE70720ECE71120EAE7A1
:10944400C42B0020ED91020014ED00E000E100E0E7
:1094540000030050F8B50479069E34BBB6F5803F8E
:1094640023D2B2F5803F20D221B101F06044B4F19F
:10947400005F1CD123B103F06044B4F1005F16D146
:109484000E4C677D012FFDB213D002D9023D012D90
:1094940011D8C4E9031301230068226007496660F8
:1094A4006375FFF781FE0020F8BD0920FCE710205A
:1094B400FAE70820F8E70320F6E700BFC42B0020F2
:1094C40072DF704773DF704776DF70477ADF70476B
:1094D4007CDF70477FDF70478FDF7047B1DF7047F5
:1094E400FDF7D4BD08B5064B01211878FFF7EAFF54
:1094F40008B1FDF7CBFDBDE808400020FEF7A6BD8E
:10950400202300200388212B13B5044660D007D8FC
:10951400112B35D0132B4FD0102B0CD002B010BD13
:10952400522B5DD0562B01D03B2BF7D1A0881321B1
:10953400FFF7CAFF47E02E4B2E482F49C01AC00838
:10954400000440F00300FDF7EDFA0120FEF77EFD74
:109554000020FEF78FFD294BA1882948198001F0CE
:10956400D1F908B1FDF792FDFDF760FD08B1FDF7F3
:109574008DFD00224FF400412248FEF723F8CDE789
:109584001B4B1C482049C01AC008000440F00300CB
:10959400FDF7C8FA0120FEF76DFD184B4FF6FF7278
:1095A4001A80FDF759FD08B1FDF770FDFFF79AFF2A
:1095B4001448FEF74FF8B1E71048002300881A4614
:1095C4008521FFF787FF0028A8D0FDF75FFDA5E7F9
:1095D400002301A98088ADF80430FFF77DFFF2E78E
:1095E400064800231A4619460088FFF777FFEAE782
:1095F400D8B1020008B202001FB9020022230020E1
:10960400702C0020502C002029B9020008B50378E2
:109614004BB9054B3B211888FFF756FF18B1BDE83D
:109624000840FDF733BD08BD222300200B2807B5F1
:109634001BD1124B12480191C01AC00800041149F1
:1096440040F00300FDF76EFA0F4B019A0F4918889A
:1096540001F044FA30F008020CD043F202029042C6
:1096640008D043F20142904204D003B05DF804EB09
:10967400FDF70CBD03B05DF804FB00BFD8B10200D8
:1096840008B2020036B9020022230020382C002040
:10969400FDF7FCBC38B5094B094C98707F221A7051
:1096A40001225A70074B1025C4F808554FF4207056
:1096B40013439847C4F80C5538BD00BF862C0020CE
:1096C4000003005000BA020008B50320FFF7E2FFD0
:1096D400034B044A18880449BDE8084001F01EBA47
:1096E40022230020E02B0020382C002038B50A4B20
:1096F4000A4C0B221A7001225A70094A12789A7085
:10970400084B1025C4F808554FF4207043F00103AA
:109714009847C4F80C5538BD862C0020000300502F
:10972400902C002000BA020038B50C480C4B0D4DAB
:10973400C01AC008000440F00300144642B10A49AC
:10974400FDF7F0F9AA232B70BDE83840FFF7CEBF30
:109754000649FDF7E7F92C70F6E700BF08B20200EE
:10976400D8B10200902C002050B9020061B9020067
:109774000023044A194601330A2B02F8011BFAD1CB
:10978400704700BF862C0020034A9178D378034A9F
:1097940003EB0123138070477C2C0020E02B002076
:1097A40030B585B004AB03E907009DF80440012CF3
:1097B4001DD1FFF7DDFF164B16481C70164B174DD5
:1097C40017492A78C01AC008000440F0030000902A
:1097D400FDF7ACF92B78134D032B2B7009D07F2B9D
:1097E40001D0009843B9104A13780133137005B0BF
:1097F40030BDFFF7C9FFF6E70C49FDF793F9FFF712
:10980400B7FF2B780A4A803B13705470EBE700BF14
:10981400912C002008B20200D8B102007C2C002058
:1098240073B90200E22B0020E32B002095B902005B
:10983400862C002013B50A2200210D480D4C01F09E
:1098440011FC00230A2223700B49094B0B48009298
:10985400FFF700FE08B1FDF719FC23782BB1FDF7E3
:1098640005F80028FBD102B010BD20BFF5E700BF0A
:109874007C2C0020912C0020862C00200CBA0200A5
:1098840000B54FF40041A7B00020FCF795FF08B1E4
:10989400FDF7FCFBFCF7BAFE0120FEF70EFCFDF71A
:1098A4004FFE08B1FDF7F2FB964A97480121FDF7F8
:1098B40077FE964840F266620121FDF763FB08B12A
:1098C400FDF7E4FBFEF752FA08B1FDF7DFFB4FF0BA
:1098D40010230122D3F8043303F00703052B25D00A
:1098E4008B4BC3F80425D3F80024002AFBD04FF097
:1098F4001021D1F8042322F0070242F00502C1F836
:1099040004230022C3F80425814AD2F80034002B32
:10991400FBD0BFF34F8F7F497F4BCA6802F4E062EC
:109924001343CB60BFF34F8F00BFFDE74FF080437D
:109934007A4C9A677A4B7B4E7B49E41AE4082404F8
:1099440044F003042046FDF7EDF80FCE17AD0FC524
:1099540096E803001D2385E803001A931A200423C4
:10996400CDE91703714A7248292317A91993FFF700
:109974000DFC08B1FDF78AFB01F048F908B1FDF7C9
:1099840085FB002317A90120179301F0C7F908B13B
:10999400FDF77CFB17A801F073FA08B1FDF776FB1D
:1099A400112364488DF8203001F0B1FB614982B283
:1099B40008A8FFF78DFD08B1FDF768FB0822002118
:1099C40017A801F04FFB5C4A4FF0C87317A8CDE904
:1099D4001723FFF77BFD08B1FDF758FB574800211B
:1099E40000F088FE08B1FDF751FB002308935448AA
:1099F400544B179317A900F073FF08B1FDF746FB0A
:109A0400514B5248089308A900F0F2FF08B1FDF742
:109A14003DFB41F22353ADF804304C4B4C4D9B7C41
:109A24008DF806303C22002108A801F01BFB02231C
:109A34008DF820303C2240F20163002117A8ADF8D4
:109A4400223001F00FFB2A460123ADF86C3052F8A6
:109A5400041B01AB08A81C9300F0BCF908B1FDF786
:109A640015FB3C4AA96817A800F0B4F908B1FDF742
:109A74000DFB1822002102A801F0F4FA00230122B0
:109A8400ADF8143003934FF480738DF80820ADF8CB
:109A94001C302F493048402302AA0493FFF710FDDD
:109AA40008B1FDF7F3FA1C22002117A801F0DAFA35
:109AB40000234FF42022CDE91732ADF86A308DF837
:109AC4006C30264B1C934FF42032254B19920325FE
:109AD40017A88DF868501D9300F044FC08B1FDF7F9
:109AE400D5FA204B2049C3F810572046FDF71AF841
:109AF400FFF7F8FCFCF7BAFE08B9FEF74DF9FFF7DB
:109B040099FEF7E7CD96020008BA02000823002068
:109B140000E0014000ED00E00400FA0508B2020094
:109B2400D8B10200DCB90200A6B90200A597020070
:109B34000CBA0200B3B902005000A000242C00208B
:109B4400702C0020E59402002D970200382C002090
:109B5400102300201C230020202300201196020043
:109B64009596020000030050C1B902000369C16860
:109B74008B429DBF8268D21802F1FF3203F1FF339A
:109B840094BF501A581A70472DE9F843D0E902944B
:109B94000546A9EB04084068904520440F46144448
:109BA40004D901F036FAEC60BDE8F8834246A4EB30
:109BB400090401F02EFA6868224607EB0801F0E771
:109BC4002DE9F843C5680646894617464FF0000854
:109BD4003469B3687068A54228BFE418013C621B6D
:109BE4005C1BBC4228BF3C46944228BF14464946ED
:109BF4002844224601F00DFAB3682544AB4208BF5D
:109C040000253F1BA044A144F560E1D14046BDE8D6
:109C1400F883000010B5114C114AA2610223C4E973
:109C24000433104BE361A2644FF400730E4A0F49EE
:109C34002362E26400231022E01DA3626362E362F4
:109C4400A3656365E365226501F03FFA0849204690
:109C540001F03BFA2023A37110BD00BF942C002017
:109C640014BA02001C2D00200C2D00201DBA020085
:109C740021BA0200F8B5184C182300FB033503FB86
:109C840000402544C46A012C0F4616460FD0022C0E
:109C94001AD0F4B92846FFF769FF864205D8324640
:109CA40039462846FFF770FF34462046F8BD28465B
:109CB400FFF75CFF8642344628BF044622463946F5
:109CC4002846FFF761FFF0E72846BDE8F840FFF7B4
:109CD40077BF0024E9E700BF942C0020FFF79ABF68
:109CE4006DDF704779DF70477DDF704764DF704751
:109CF4002DE9F04F85B000250E9CBDF83CB0B4F8BA
:109D040000A00191074690461E46A9463A884A4556
:109D14000DDC45B12388013BA3EB0A039BB2FF2B67
:109D24003AD806F80A30002005B0BDE8F08F7A680A
:109D340052F82900039000220DF10B0103A8FFF74C
:109D4400D5FF0028F0D19DF80B20424521D122886F
:109D5400002D14BF0020022002EB080101445945E4
:109D64001ADC3DB9013292B2019B2280B35422889D
:109D74000132228022880DF10B01324403A8FFF73F
:109D8400B5FF0028D0D121889DF80B200A442280F9
:109D9400012509F10109B9E70C20C5E72DE9F341D3
:109DA400089FBDF824801546CDE9007802220446B8
:109DB4001E46FFF79DFF50B9334610222946204620
:109DC400CDE9087802B0BDE8F041FFF791BF02B0D9
:109DD400BDE8F0812DE9F04F00231788138090F837
:109DE4002D3085B006460D46144653B3082F01D8CE
:109DF4000C2027E102A8FFF773FF002840F022811E
:109E040023880822EA54238801339BB21B2223802F
:109E1400EA542088013080B2208006220DF1090125
:109E2400284401F0F6F823889DF8082006339BB2F5
:109E340012F0FE0218BF01222380EA542388013362
:109E44002380B378FBB123880433BB42D0D802A863
:109E5400FFF748FF002840F0F58023880322EA54E6
:109E6400238801339BB219222380EA542388BDF846
:109E7400082001339BB2E9182380EA54120A4A707D
:109E8400238802332380F2789AB12388D91CB942FB
:109E9400AED80221E954238801339BB201212380E7
:109EA400E95423880B449BB22380EA5423880B444F
:109EB40023807268AAB12388D91CB94298D8022198
:109EC40092F90020E954238801339BB20A212380AC
:109ED400E954238801339BB22380EA542388013355
:109EE40023803389002B40F0A180338A5BB1CDE914
:109EF40000472B460722032106F11000FFF74EFF0F
:109F0400002840F09F80338B5BB1CDE900472B469E
:109F14001522142106F11800FFF740FF002840F035
:109F24009180326A002A40F09080D6F82480B8F1FB
:109F3400000F30D0B8F804302188981C8A1C0244E1
:109F4400BA423FF655AFFE283FF652AF03336B5487
:109F5400238801339BB2FF222380EA5423880133F0
:109F64009BB22380B8F80020EA54E918120A4A7018
:109F74002088023080B22080B8F804205AB1D8F882
:109F8400081000296BD0284401F043F82388B8F85E
:109F940004201344238096F82C30002B40F09A8040
:109FA400307800284ED03388012B58D0228802F113
:109FB400020CBC453FF61CAF012805D1737802336F
:109FC40013449F42FFF414AF023FBF1ABFB202A969
:109FD40005EB0C00ADF80870FFF786FE90BB3178F6
:109FE400BDF80830022900F0BA8072789A4202D390
:109FF400BB4240F2B280012940F0B380974293B251
:10A00400C0F0AF80ADF808300821BDF80830FE2B51
:10A014003FF6EEAE22880133AB542288013292B26D
:10A024002280A9542288134423800BE0CDE9004701
:10A034002B460622022106F10800FFF7AFFE002896
:10A044003FF453AF05B0BDE8F08FB4F800C00CF195
:10A054000603BB423FF6CCAE1188052901D8072080
:10A06400F0E76FF4486E01EB0E039BB24FF27D3EB6
:10A074007345F4D95388052BF1D96FF44860181847
:10A0840080B27045EBD94FF6FF70814203D0834212
:10A0940001D09942E3D8052305F80C302388013315
:10A0A4009BB212212380E954238801339BB223807D
:10A0B4001188E954E818090A4170238802339BB2D5
:10A0C40023805288EA54E918120A4A70238802331A
:10A0D40023802AE7B36A002BC1D04FF000094FF068
:10A0E4000C0A4FF0160B96F82C305FFA89F2934263
:10A0F4007FF656AFB16A0AFB02F201EB0208B8F828
:10A104000430981CFE283FF673AE208803332B548A
:10A11400238801339BB2238005F803B023880133DD
:10A124009BB223808A5AEA54E918120A4A7020889A
:10A13400023080B22080B8F804205AB1D8F8081050
:10A1440000298CD0284400F064FF2388B8F8042048
:10A154001344238009F10109C5E7092155E7BB42EE
:10A16400FBD9ADF808704FE775DF704776DF7047AD
:10A174007ADF70477BDF7047034B1A8882420CBF3B
:10A1840018460020704700BF382F0020024B9B69FF
:10A1940003B11847704700BF1C2F002073B585B268
:10A1A4002846FFF7E9FF044670B1164E027A337B66
:10A1B4009A420BD200F10A012846FFF7D5FFE8B115
:10A1C400112801D0FFF7E2FF02B070BD0023037233
:10A1D400337C43B13B212846FFF7C8FF30F0080326
:10A1E40001D0FFF7D3FF7369002BEDD000228DF867
:10A1F4000420ADF8065001A89847E5E7237A013317
:10A204002372E1E71C2F002037B50B46497A0F4A29
:10A2140071B9D2E901141D7A0246002D18BF2146F6
:10A224005868FDF7CFF908B1FFF7B0FF03B030BDB0
:10A23400002119725369002BF8D00122ADF80600F1
:10A244008DF8042001A89847F0E700BF1C2F0020D8
:10A254004B8802889A4213D842889A4210D3808845
:10A264008A8840F2F313984294BF031AC31A9342A4
:10A2740006D800F2F310904234BF0020012070474A
:10A28400002070470388122B70B5014659D004D8BA
:10A29400102B1ED0112B44D070BD502BFCD12F4B52
:10A2A400C288DB899A42F7D1038A022BF4D18688CB
:10A2B4003046FFF761FF05460028EDD001F112009A
:10A2C40000F023F938BB6868FDF7C4F90028E3D02F
:10A2D40009E0C37B012BDFD14FF6FF70FFF74CFF82
:10A2E400054620B90420BDE87040FFF74FBF1C4A63
:10A2F4008E880680002303721368C0F80A305368FE
:10A30400C0F80E3010310A30FFF7A2FF134B687209
:10A31400DB89002BC0D129463046BDE87040FFF7E9
:10A3240073BF8088FFF728FF04460028B4D0406834
:10A33400FDF790F908B1FFF729FF4FF6FF7323806B
:10A34400AAE786883046FFF717FF05460028A3D002
:10A3540008310A30FFF77CFF6872DCE71C2F00200D
:10A364004C2F0020F8B5064648B305460FCD154FCF
:10A374003C460FC495E8070084E807003068124C97
:10A384003C60B0B1FFF7F4FEC0B9326813682360D3
:10A39400536863600D480E4A4FF6FF7303800D4BFC
:10A3A40040F8043F0021FDF7FBF8002818BF032004
:10A3B40004E02046FFF7DEFE0028EBD0F8BD0E20B7
:10A3C400FCE700BF1C2F00204C2F0020382F00205A
:10A3D400A1A10200542F002073B50191019C0646EF
:10A3E4006CB100252C46294601A8FDF790F918B157
:10A3F40006EB440301349D800135142DF3D130461E
:10A40400346002B070BD00002DE9F04703888488F1
:10A41400112B8CB005463CD01A2B3FD0102B17D1F2
:10A42400284EB368DB43009371686846FDF79BF9D7
:10A43400009901A8FFF7D0FF0DF108094FF00008BB
:10A44400019B984507D3132C13D90420FCF71EFE57
:10A454000CB0BDE8F08739F802AB0027013751464C
:10A4640006EB8700FDF749F91D2FF7D108F1010824
:10A47400E6E715482146FDF737F914482146FDF76C
:10A4840033F9EB7B012BE3D011482146FDF72CF97E
:10A49400DEE70D482146FDF730F9D9E7037A0D4888
:10A4A4001F2B4FEA1315214606D9FDF71DF9022D7E
:10A4B40009482146EAD1EEE7FDF71FF9064821468F
:10A4C400E9E700BF742F00207C2F0020782F0020A4
:10A4D400802F0020842F0020882F0020AADF7047BF
:10A4E400002301380B70042806D8DFE800F00306C7
:10A4F400080A0C0011230B7070472123FBE731235A
:10A50400F9E71223F7E72223F5E7007800F00100CA
:10A514007047F0B58B7891B0012B0C4638BF0123FE
:10A524008DF80E3005460B88ADF80C300021164628
:10A534006846032200F096FD607C6946FFF7D0FF71
:10A54400A07C0DF10101FFF7CBFFE27B237B217D92
:10A5540043EAC203227C43EA02139DF80220002945
:10A5640022F0190203F0190314BF0221012113433D
:10A5740061F342031C22002109A88DF8023000F087
:10A5840071FD637B13F0300F15D002AF032200215D
:10A59400384600F067FDE07C0DF10901FFF7A0FFEC
:10A5A40011238DF808309DF80A300E97012262F3CA
:10A5B40042038DF80A30637B8DF824301422A37B88
:10A5C4008DF82530002104A800F04CFD03AB049362
:10A5D400A388ADF81C30A368CDF814D01BB1E28871
:10A5E400ADF818200893A369002B31D001AF0322E2
:10A5F4000021384600F036FDA3691A88ADF82C20F6
:10A604005A88ADF82E205A680D97187B0A9239465D
:10A61400FFF766FFA3690DF10501587BFFF760FFA3
:10A62400A269917A137A43EAC103D17A927B43EA0D
:10A6340001139DF80610002A03F0190321F01901F3
:10A6440014BF022201220B4362F342038DF8063049
:10A65400E36903B10C93334604AA09A92846FFF71A
:10A664003DFF11B0F0BD90DF7047A5DF7047B5DF47
:10A67400704700007FB50023ADF80810ADF80A104C
:10A684006A4602A9064603930093ADF80430FFF727
:10A69400EAFF054600B3124B124CE41AE408FDF736
:10A6A400DFFB240444F0010403460F4932462046EC
:10A6B400FCF745FABDF80020BDF8023052EA030168
:10A6C40003D00A492046FCF73AFABDF804201AB12F
:10A6D40007492046FCF72AFA284604B070BD00BF9B
:10A6E400D8B1020018B2020028BA020072BA0200FD
:10A6F400B1BA020078B14FF0171303601B23037142
:10A704001723C380038141F61B3200230161438177
:10A714008281184670470E207047000013B5034627
:10A7240080880C46B8B91A88242A00F0958014D879
:10A73400112A71D0232A00F09D80102A3BD0A37ADD
:10A744004BB1E1880020FFF790FF002840F098808B
:10A754004FF48073638102B010BD3A2A64D0552A45
:10A76400EDD1DB88C988A072172B38BF17238B4221
:10A7740028BF0B462381FFF77AFF60B1FDF770FB1A
:10A78400484B4949024649481B1ADB081B0443F05D
:10A794000100FCF7CBF9E37A002BD0D12369002B1D
:10A7A400CDD040F6772200922289ADF80420694684
:10A7B40020469847C3E7DB7B0A790A73012B13D041
:10A7C400022B14D0E18823898B4205D20020FFF7A5
:10A7D4004CFF70B90123E372217B637B8B42AED2C1
:10A7E4000020FFF747FFAAE70B88E380EAE74B88DE
:10A7F400FBE7112802D10123A372EDE7FDF730FB3B
:10A80400284B2B49024629481B1ADB081B0443F03A
:10A814000100FCF78BF9DFE71723CB800B8141F6AE
:10A824001B3348818B818AE75B89CA88934228BF9E
:10A834001346172B0A6938BF17230B814AB1C97A0B
:10A8440039B140F677210091ADF8043069462046CD
:10A8540090470023638172E71A7A0B694A73002BCD
:10A864003FF46DAF4DF67A218DF8050000918DF817
:10A8740004209CE7197A237B994228BF1946B0E744
:10A8840011283FF468AFFDF7EBFA064B084902467E
:10A8940006481B1ADB081B0443F00100FCF746F9C9
:10A8A40059E700BF18B2020038BB0200D8B1020059
:10A8B40007BB0200B0DF704766DF704710B50021A8
:10A8C40004464088FFF7F8FF034608B9237210BD19
:10A8D400112801D10123F9E76368BDE81040184746
:10A8E40060B159B10378DE2B0AD00B684360DE23D4
:10A8F40003704FF6FF734380002070470E207047AB
:10A904000820704728B10378DE2B04D14180002051
:10A9140070470E20704708207047F0B5054685B093
:10A924000C46F1B1E8B10B78DE2B1AD182884B8842
:10A934009A4204D10B7A13B10846FFF7BFFF2B8864
:10A94400112B32D0512B0ED0012B0AD12B7A012B93
:10A9540007D1A9886288914203D123722046FFF768
:10A96400ADFF05B0F0BDAE886388B342F9D1AF79CD
:10A97400022FF6D1AD7B2B1F022BF2D8002110221F
:10A98400684600F06FFB052D14BF4FF4C07300231D
:10A99400694630468DF80070ADF80430FFF78AFF41
:10A9A4000028DED063689847DBE76388AA889A4268
:10A9B40004BF4FF6FF736380D3E7A8DF7047AEDFB1
:10A9C400704762DF70470288502A10B40DD1C488E2
:10A9D4004A88944209D1028A012A06D14B6923B1DB
:10A9E400827C5DF8044B808818475DF8044B7047FF
:10A9F400F0B50B6843618FB0374B02AA044603F1EC
:10AA04001007164618685968154603C50833BB4233
:10AA14002A46F7D104F112013046FFF7D2FF00288D
:10AA240057D1A37C8DF80630224641F2235301A965
:10AA34000120ADF80430FFF7C0FF002849D10146DA
:10AA4400202206A800F00EFB41F22453ADF8183082
:10AA5400A37C8DF81A304FF00213079340F2D243CF
:10AA6400ADF800309DF82530CDF820D0224623F0F3
:10AA74001203012543F0120332F80A0B8DF8253036
:10AA840006A98DF829508DF82B50FFF742FD00BB25
:10AA94000146202206A800F0E5FA41F22553ADF85C
:10AAA4001830A37C8DF81A304FF0011307939DF8EA
:10AAB40025308DF82950224623F00A0343F00A0377
:10AAC40032F8020B8DF8253006A98DF82A50FFF7CD
:10AAD40020FD0FB0F0BD00BF74BB020070B588B09C
:10AAE4000D468DF807201022044601260DEB0200C6
:10AAF4000021ADF80E6000F0B5FA6B89ADF81030A6
:10AB04000DF10703079304A90DF10E0320468DF8F8
:10AB140012600693FFF753FF08B070BD70B54FF68F
:10AB2400FF73984286B004460E4615461FD0114B5B
:10AB340012881B689A421AD002230021102202A80C
:10AB4400ADF8063000F08EFA7389ADF808300123B1
:10AB54008DF80A300023ADF80C3002A90DF106037C
:10AB64002046CDE90435FFF72AFF06B070BD00206A
:10AB7400FBE700BFEC2F002010DF704713B504463D
:10AB840009496846FDF737F9019808B902B010BDC4
:10AB9400D0E900212046904718B16846FDF735F901
:10ABA400F2E71120F2E700BF90BB020013B50446A0
:10ABB40007496846FDF71FF9019B0BB902B010BDA8
:10ABC4002046D3E9002190476846FDF71EF9F3E7D4
:10ABD400A8BB02000B4991F816335A09EC23134120
:10ABE400DB0706D5084B9A683AB94FF480030B602B
:10ABF400704742F20200FCF749BA1A6842F4800234
:10AC04001A60704700E100E0A82A0020F7B5194F48
:10AC14003C7864BB184E012520463570FFF7AEFF23
:10AC2400112821D02046FFF7C1FF144B8DF80340B3
:10AC3400186801900DF10300FCF71CFD104901A8F0
:10AC4400FFF79AFF0446B0FA80F0400938709DF887
:10AC54000300FCF733FD3CB90A4B34701C70FFF75A
:10AC6400B9FF2846FFF7A2FF204603B0F0BD082431
:10AC7400FAE700BFF12F0020F02F00208CBB020068
:10AC8400AD700200F22F0020014B1878704700BF0E
:10AC9400F12F002007B508496846FDF7ACF8019B81
:10ACA40013B903B05DF804FBD3E90020904768466C
:10ACB400FDF7ABF8F3E700BF9CBB0200FFF7EABF68
:10ACC40060DF704769DF704761DF704730B5114B53
:10ACD4001B7891B0E3B1104D34240DF1020103A8A7
:10ACE400ADF80240FFF7F0FF70B9294601A8FDF75F
:10ACF40082F8029B002BF0D003A8D3E900219047EF
:10AD040001A8FDF782F8F4E7052801D0FCF7BEF9A5
:10AD140011B030BDF32F0020ECBD020030B5054664
:10AD240085B00C46002900F099804D4B0B600C2235
:10AD3400002101A800F096F901238DF8063022685D
:10AD44008DF80450062301A92020ADF80830FFF740
:10AD5400B9FF60B1FDF784F8424B434902464348CA
:10AD64001B1ADB081B0443F00100FBF7DFFE0C2277
:10AD7400002101A800F076F901238DF8053022683E
:10AD8400002301A94020ADF80630FFF79BFF60B116
:10AD9400FDF766F8334B3649024634481B1ADB0884
:10ADA4001B0443F00100FBF7C1FE0C22002101A8A3
:10ADB40000F058F90A2322688DF8043001A9012013
:10ADC400FFF780FF60B1FDF74BF8264B2949024697
:10ADD40026481B1ADB081B0443F00100FBF7A6FE00
:10ADE4000C22002101A800F03DF94FF4B063226861
:10ADF400019301A9A120FFF765FF60B1FDF730F8C9
:10AE0400184B1D49024619481B1ADB081B0443F062
:10AE14000100FBF78BFE0C22002101A800F022F9AF
:10AE24009DF8043022686FF3000301A9A0208DF877
:10AE34000430FFF747FF034668B1FDF711F8094BEB
:10AE44000E49024609481B1ADB081B0443F00100A3
:10AE5400FBF76CFE0023184605B030BD0E23FAE75D
:10AE6400E022002028B20200B4BB0200D8B10200E4
:10AE7400FABB020046BC020092BC0200E3BC020022
:10AE840073B505460668FFF71BFF2B68B3420446FB
:10AE94001DD91A481A4B1B491B1ADB081B0443F023
:10AEA40002000190FBF73EFE2B68174901983246D9
:10AEB400FBF745FE4FF080532A68D3F80C31134951
:10AEC40001989B0203F100539A1AFBF72FFE2CB949
:10AED4000F4B01221A70204602B070BD2046FCF7C9
:10AEE400BFFF074B0B49024604481B1ADB081B042F
:10AEF40043F00100FBF71AFEEDE700BFD8B10200F2
:10AF040028B2020036BD020065BD020096BD0200F3
:10AF1400F32F0020C0BD02004BDF70471FB50D4C5E
:10AF240001A8FFF7F9FF70B9214602A8FCF763FFF7
:10AF3400039B002BF4D00198D3E90021904702A889
:10AF4400FCF763FFF4E7052801D0FCF79FF804B091
:10AF540010BD00BF04BE02007F2805D8034B185C57
:10AF6400034B5B5C18407047002070471CBE020016
:10AF74009CBE0200A0F16103192B98BF20387047D2
:10AF8400A0F14103192B98BF203070477F2805D8C2
:10AF9400034B185C034B5B5C184070470020704700
:10AFA4001CBE02009CBE0200A0F16103192B98BFD5
:10AFB40020387047A0F14103192B98BF2030704707
:10AFC4007F299ABF017001206FF02E0070475AB19B
:10AFD4000A787F2A0AD800B10260002119605960FA
:10AFE400501A18BF01207047002070476FF02E00E0
:10AFF4007047000008B5034B5B689B681B68984763
:10B0040008BD00BF2423002008B50921FFF7F2FF83
:10B0140008BD844640EA010313F0030F18D18446A7
:10B02400202A0BD32DE9F007B1E8F807A0E8F807C8
:10B03400A2F12002202AF7D2BDE8F007042A07D3A0
:10B0440051F8043B40F8043BA2F10402042AF7D26D
:10B05400002A05D011F8013B00F8013B013AF9D16F
:10B06400604670478446002A2DD010F0030F04D0A8
:10B0740000F8011B013A26D0F7E7C9B241EA0121E1
:10B0840041EA0141202A12D3A2F120022DE9F00362
:10B094000B460C460D460E460F4688468946A0E8E8
:10B0A400FA03203AFBD2BDE8F00320320BD0042A85
:10B0B40005D340F8041B043A05D0042AF9D200F859
:10B0C400011B013AFBD160467047024610F0030FA2
:10B0D40016D111F0030F13D12DE9F0004FF0013711
:10B0E4004FF0803351F8044BA4EB070525EA04051F
:10B0F4001D4002D142F8044BF4E7A1F10401F0BC75
:10B1040011F8013B02F8013B002BF9D1704700F123
:10B11400010110F0030F11D010F8012B002A23D0E5
:10B1240010F0030F0AD010F8012B002A1CD010F0E5
:10B13400030F03D010F8012B002A15D02DE970005D
:10B144004FF001324FF0803350F8044BA4EB02056A
:10B1540025EA04051D4000D1F6E7A0F1040070BC07
:0EB1640010F8012B002AFBD1A0EB0100704770
:08B174003D8102000000000013
:10B17C000DA402000000000021A70200242C0020D6
:10B18C0089A20200000000001FA90200702C002000
:10B19C00CBA90200382C0020099502000000000009
:08B1AC00BD810200000000005B
:10B1B400D1AC02000000000021AF0200000000003A
:10B1C400BC230020842400208C240020C4230020DD
:04B1D400180000005F
:10B1D800FEB802000000000004B9020000000000F0
:10B1E8000BB90200000000001AB9020000000000BC
:10B1F8000FB902000000000014B9020000000000AE
:10B20800D2B2020000000303F8B8020000000000F8
:10B2180067BB02000000030384BB020000000303B5
:10B22800DDBD020000000303F8BD020000000303B7
:08B23800E6B302000000000073
:10B2400068B2020000000000B1B20200F422002047
:10B2500094B2020000000000A0B20200FC22002014
:10B260000338FDD870470000D9630200456402002E
:10B27000D5630200FFFFFFFFFFFFFFFFFFFFFFFFA0
:10B28000FFFFFFFF00000000000000000000D601EB
:10B290000601000079650200DD6502001965020003
:10B2A000756172745F6C6F675F6261636B656E641A
:10B2B000007274745F6C6F675F6261636B656E646C
:10B2C000004261636B656E647320666C75736865BC
:10B2D0006400617070000000B02800207F00000052
:10B2E000302900201B5B306D002573001B5B313B58
:10B2F00033316D0025734C6F67732064726F70700B
:10B300006564202825642925730D0A003C25733EB9
:10B310002025733A2000202530327800202020009C
:10B320007C002563001B5B313B33306D001B5B31C0
:10B330003B33326D001B5B313B33336D001B5B31A4
:10B340003B33346D001B5B313B33356D001B5B3190
:10B350003B33366D001B5B313B33376D00776172D9
:10B360006E696E6700696E666F006465627567007E
:10B37000E4B2020025B30200ECB202002DB30200D9
:10B3800035B302003DB3020045B302004DB30200E5
:10B3900055B3020000000000B2B302005DB302002A
:10B3A00065B302006AB3020050290020466174614F
:10B3B0006C206572726F720053797374656D2072C0
:10B3C00065736574000000000000000000000000CC
:10B3D0000338FDD870473031323334353637383999
:10B3E0004142434445467077725F6D676D7400005B
:10B3F0007CB102007CB10200040000004E52465FA6
:10B4000053554343455353004E52465F4552524FA6
:10B41000525F5356435F48414E444C45525F4D493D
:10B420005353494E47004E52465F4552524F525F6A
:10B43000534F46544445564943455F4E4F545F452C
:10B440004E41424C4544004E52465F4552524F5287
:10B450005F494E5445524E414C004E52465F455254
:10B46000524F525F4E4F5F4D454D004E52465F4525
:10B4700052524F525F4E4F545F464F554E44004E0E
:10B4800052465F4552524F525F4E4F545F53555094
:10B49000504F52544544004E52465F4552524F520F
:10B4A0005F494E56414C49445F504152414D004E18
:10B4B00052465F4552524F525F494E56414C4944A5
:10B4C0005F5354415445004E52465F4552524F52CD
:10B4D0005F494E56414C49445F4C454E47544800E5
:10B4E0004E52465F4552524F525F494E56414C496B
:10B4F000445F464C414753004E52465F4552524FBF
:10B50000525F494E56414C49445F44415441004EBC
:10B5100052465F4552524F525F444154415F534936
:10B520005A45004E52465F4552524F525F54494D64
:10B53000454F5554004E52465F4552524F525F4E52
:10B54000554C4C004E52465F4552524F525F464F4B
:10B550005242494444454E004E52465F4552524F76
:10B56000525F494E56414C49445F41444452004E5B
:10B5700052465F4552524F525F42555359004E5208
:10B58000465F4552524F525F434F4E4E5F434F55B9
:10B590004E54004E52465F4552524F525F524553F1
:10B5A0004F5552434553004E52465F4552524F52FB
:10B5B0005F4D4F44554C455F4E4F545F494E495483
:10B5C00049414C495A4544004E52465F4552524FFC
:10B5D000525F4D555445585F494E49545F46414965
:10B5E0004C4544004E52465F4552524F525F4D55B6
:10B5F0005445585F4C4F434B5F4641494C454400CE
:10B600004E52465F4552524F525F4D555445585F1A
:10B61000554E4C4F434B5F4641494C4544004E52BA
:10B62000465F4552524F525F4D555445585F434F08
:10B630004E445F494E49545F4641494C4544004E93
:10B6400052465F4552524F525F4D4F44554C455FF5
:10B65000414C52454144595F494E495449414C4936
:10B660005A4544004E52465F4552524F525F535422
:10B670004F524147455F46554C4C004E52465F4540
:10B6800052524F525F4150495F4E4F545F494D50A7
:10B690004C454D454E544544004E52465F4552522E
:10B6A0004F525F464541545552455F4E4F545F459A
:10B6B0004E41424C4544004E52465F4552524F5215
:10B6C0005F494F5F50454E44494E47004E52465FDA
:10B6D0004552524F525F4452565F5457495F45524C
:10B6E000525F4F56455252554E004E52465F45529C
:10B6F000524F525F4452565F5457495F4552525F12
:10B70000414E41434B004E52465F4552524F525FAD
:10B710004452565F5457495F4552525F444E41432D
:10B720004B004E52465F4552524F525F424C455F6E
:10B73000495053505F52585F504B545F5452554ECE
:10B740004341544544004E52465F4552524F525F6A
:10B75000424C455F495053505F4348414E4E454C23
:10B760005F414C52454144595F4558495354530039
:10B770004E52465F4552524F525F424C455F4950D0
:10B7800053505F4C494E4B5F444953434F4E4E45D7
:10B7900043544544004E52465F4552524F525F4219
:10B7A0004C455F495053505F504545525F52454AA2
:10B7B000454354454400556E6B6E6F776E2065723D
:10B7C000726F7220636F646500000000000000006B
:10B7D000FCB302000100000008B4020002000000F7
:10B7E00026B402000300000047B402000400000079
:10B7F0005AB40200050000006BB40200060000000D
:10B800007FB402000700000097B4020008000000A7
:10B81000AFB4020009000000C7B402000A00000033
:10B82000E0B402000B000000F8B402000C000000BD
:10B830000FB502000D00000023B502000E0000004D
:10B8400035B502000F00000044B5020010000000F2
:10B8500058B50200110000006FB502001200000090
:10B860007EB502001300000093B5020080000000C6
:10B87000A7B5020081000000C8B5020082000000E8
:10B88000E4B502008300000000B60200840000005E
:10B890001EB60200850000003FB6020086000000D0
:10B8A00064B60200900000007BB602009100000028
:10B8B00099B6020092000000B7B6020000820000B4
:10B8C000CCB6020001820000EAB60200028200004B
:10B8D00006B702000084000022B7020001840000C5
:10B8E00046B702000284000070B702000384000023
:10B8F00095B702000D0E0F10636C6F636B00434C25
:10B900004F434B004750494F544500505253005548
:10B91000415254005541525445005350495300433D
:10B920006F6E6E656374656400446973636F6E6EF9
:10B9300065637465640053656E6420627574746F2A
:10B940006E207374617465206368616E67652E0094
:10B950005265636569766564204C4544204F4E21ED
:10B96000005265636569766564204C4544204F4606
:10B97000462100205472616E7366657220636F6D9C
:10B98000706C657465642E205265636569766564C4
:10B990003A20257800494C4C4547414C2046554EAD
:10B9A0004354494F4E0053504953206578616D70A0
:10B9B0006C65004E6F726469635F426C696E6B798F
:10B9C00000426C696E6B79206578616D706C6520E2
:10B9D000737461727465642E00000000FF00000043
:10B9E000FF000000FF000000FF000000000000005A
:10B9F000FFFF060000000000000000000000000043
:10BA00000338FDD870470000502C00200040004053
:10BA1000000000005465726D696E616C00525454F0
:10BA2000005345474745520073645F626C655F672A
:10BA300061705F646174615F6C656E6774685F7587
:10BA40007064617465282920287265717565737446
:10BA500029206F6E20636F6E6E656374696F6E2050
:10BA6000307825782072657475726E656420257350
:10BA70002E00546865207265717565737465642065
:10BA800054582F5258207061636B6574206C656E3A
:10BA900067746820697320746F6F206C6F6E672005
:10BAA00062792025752F2575206F63746574732E58
:10BAB00000546865207265717565737465642063F0
:10BAC0006F6D62696E6174696F6E206F6620545885
