:020000040002F8
:10600000F8990020E9630200F1630200D16E0200FA
:10601000F5630200F7630200F9630200000000006C
:10602000000000000000000000000000FB63020010
:10603000FD63020000000000FF6302000164020033
:1060400003640200036402007577020041740200D9
:106050000364020003640200A96C0200816F020065
:10606000036402005D77020003640200036402001F
:10607000036402000364020003640200036402007C
:10608000D1770200396F020003640200036402004A
:1060900055740200036402005D7402000364020090
:1060A000036402000364020003640200036402004C
:1060B000FD6E02000364020000000000000000000A
:1060C00003640200116F0200256F020003640200E6
:1060D0006D6F020003640200036402000000000010
:1060E00000000000000000000000000000000000B0
:1060F00000000000000000000000000000000000A0
:10610000000000000000000000000000000000008F
:10611000000000000000000000000000000000007F
:10612000000000000000000000000000000000006F
:10613000000000000000000000000000000000005F
:10614000000000000000000000000000000000004F
:10615000000000000000000000000000000000003F
:10616000000000000000000000000000000000002F
:10617000000000000000000000000000000000001F
:10618000000000000000000000000000000000000F
:1061900000000000000000000000000000000000FF
:1061A00000000000000000000000000000000000EF
:1061B00000000000000000000000000000000000DF
:1061C00000000000000000000000000000000000CF
:1061D00000000000000000000000000000000000BF
:1061E00000000000000000000000000000000000AF
:1061F000000000000000000000000000000000009F
:10620000DFF814D000F0C8FC00F088F9004800471F
:10621000C944030000F07DFAF899002001BE7047E0
:1062200000B583B002900091019244F201007146E2
:106230006A460AF05BF903B000BD000030B450E8D4
:10624000012F93B2C48923448489A34228BF1B1B16
:106250000489A34202BFBFF32F8F002007E0C3EAE7
:10626000020340E80134002CE9D14FF001000A603C
:1062700030BC704750E8012FC2EA024240E80121D9
:106280000029F7D1704730B450E8022F1FFAA2F36B
:10629000C488A34202BFBFF32F8F00200DE0C48942
:1062A00023448489A34228BF1B1BC2EA034340E85E
:1062B0000234002CE8D14FF001000A6030BC704776
:1062C00050E8022FC2EA224240E802210029F7D119
:1062D0007047034653E8022FD988B2EB324F4FF094
:1062E000000017BF92B241EA014142EA014104E0D5
:1062F0005A68B2EB324F08BF012043E80212002A6D
:10630000E8D1704730B4044654E8000F0D4644E825
:106310000053002BF8D1156030BC704730B40446F0
:1063200054E8000F40EA010544E80053002BF7D180
:10633000156030BC704730B4044654E8000F00EAE2
:10634000010544E80053002BF7D1156030BC7047BD
:1063500030B4044654E8000F80EA010544E80053D5
:10636000002BF7D1156030BC704730B4044654E8B8
:10637000000F00EB010544E80053002BF7D1156036
:1063800030BC704730B4044654E8000FA0EB010560
:1063900044E80053002BF7D1156030BC704770B44F
:1063A00004464FF0000054E8006F0D68AE4207BF8E
:1063B00044E80023012044E800630E60002B1CBF6A
:1063C0000020F0E770BC704730B4044654E8000F7A
:1063D00088422CBF451A054644E80053002BF5D1EE
:1063E000156030BC704700000648804706480047EB
:1063F000FEE7FEE7FEE7FEE7FEE7FEE7FEE7FEE775
:10640000FEE7FEE7D97402000162020010B509F050
:10641000B3F9BDE8104009F0B0B82DE9F05F0546CA
:10642000002092469B4688460646814640241BE053
:10643000284641464746224600F056F953465A46FA
:10644000C01A914110D311461846224600F016F8A2
:106450002D1A67EB01084F4622460120002100F06B
:106460000DF817EB00094E41201EA4F10104DFDCFA
:10647000484631462A464346BDE8F09F202A04DBC1
:10648000203A00FA02F1002070479140C2F1200347
:1064900020FA03F319439040704740EA01039B0739
:1064A00003D009E008C9121F08C0042AFAD203E089
:1064B00011F8013B00F8013B521EF9D27047D2B2ED
:1064C00001E000F8012B491EFBD270470022F6E7DD
:1064D00010B513460A4604461946FFF7F0FF20465A
:1064E00010BD421C10F8011B0029FBD1801A704717
:1064F00030B504460020034600E05B1C934203D203
:10650000E05CCD5C401BF8D030BD034611F8012B98
:1065100000F8012B002AF9D11846704770B5054CD8
:10652000054D03E0206820448047241DAC42F9D18A
:1065300070BD0000CCCA0300E0CA03002DE9F041A1
:10654000074615460E4610200EF036F804000AD015
:106550006760C4E9026500F0D7F801682160046053
:106560000020BDE8F0810120FBE72DE9FE4F81EA24
:10657000030404F0004421F0004100944FF0000BAC
:1065800023F0004350EA01045ED052EA03045BD0DA
:10659000C3F30A54C1F30A552C44A4F2F334019412
:1065A000A0FB0254C1F3130141F48011C3F31303A0
:1065B00043F4801301FB024400FB034E840A970A54
:1065C00044EA815447EA8357A4FB076802958D0A81
:1065D00005FB07854FEA932C04FB0C542705029D0D
:1065E0004FEA065847EA1637B5EB08056EEB070C7D
:1065F000870E920E47EA811742EA8312A7FB020137
:10660000B6EB0B0164EB00042B0D43EA0C335E1870
:1066100044EB1C50DA465146E7FB0201C5F3130474
:106620004FEA0B3343EA14534FEA0432019C43EA26
:106630000603A4F10C040294009CCDE900B400F020
:10664000CFF803B0BDE8F08F00200146F9E730B481
:10665000044696230800214604D0B62330BC00220D
:1066600000F081B820460021F8E720F00040C20D7C
:10667000C0F3160040F400007F2A02DA0020014631
:1066800070470021962A03DCC2F19602D040704781
:10669000963AFFF7F3BE00F0004230F000400AD017
:1066A000C10D01F56071C0F3160042EA0151C20844
:1066B00040071143704700200146704730B50B4634
:1066C000014600202022012409E021FA02F59D4222
:1066D00005D303FA02F5491B04FA02F52844151EF6
:1066E000A2F10102F1DC30BD202A04DB203A21FABC
:1066F00002F00021704721FA02F3D040C2F12002DB
:1067000091400843194670470048704718380020E8
:1067100070472DE9F0410646FFF7F6FF80464546F3
:1067200013E016B1E068B0420ED120682860D4E9C9
:106730000101D8F80070884720460CF0DBFBD8F840
:106740000000B842EBD100E025462C68002CE8D1CF
:10675000BDE8F0810029A8BF7047401C490008BF70
:1067600020F00100704710B4B0FA80FC00FA0CF081
:1067700050EA010404BF10BC704749B1CCF12004B9
:1067800021FA04F411FA0CF118BF01212143084346
:10679000A3EB0C01CB1D4FEA00614FEA102042BF72
:1067A000002010BC704700EBC35010440029A4BF68
:1067B00010BC7047401C490008BF20F0010010BC0D
:1067C000704710B5141E73F1000408DA401C41F143
:1067D000000192185B411A4301D120F0010010BD65
:1067E0002DE9F04D92469B4611B1B1FA81F202E0DB
:1067F000B0FA80F220329046FFF740FE04460F4682
:1068000040EA0A0041EA0B0153465A46084313D0B6
:10681000114653EA010019D0C8F140025046FFF773
:1068200063FF05460E46504659464246FFF726FE90
:10683000084305D0012004E020463946BDE8F08D2C
:106840000020054346EAE0762C4337430A98630567
:10685000E40AA0EB08000022FD0A44EA47540A308B
:1068600002D500200146E9E7010510196941DDE97B
:10687000084500196941BDE8F04DA2E72DE9FE4F3A
:10688000804681EA0300C00F0C46009021F00041D1
:1068900023F00045B8EB0200A94105D2404621464D
:1068A00090461C460B46024623F00040104347D05A
:1068B000270DC7F30A00C3F30A510290401A019052
:1068C00040286BDAC3F3130040F4801B0098924613
:1068D00020B10023D2EB030A63EB0B0B019859465E
:1068E000C0F140025046FFF7C9FD06460D4650462E
:1068F0005946019A00F062F910EB0800614100244A
:1069000087EA115284EAE7731A4340D0009A62B3CF
:10691000019A012A4FEA075215DC001B61EB0201C4
:106920004FF0004202EA0752CDE90042001C41F557
:10693000801132462B46FFF753FF03B0BDE8F08FBE
:1069400040462146F9E7001B61EB0201001C41F5BE
:10695000801300185B412018A2F5001747EB0301D4
:1069600040EAD570B6196D4111E06D084FEA360660
:1069700045EAC0754FEA0752001B61EB0201001C9B
:1069800041F5801149084FEA300000195141324663
:106990002B4603B0BDE8F04FFFF713BF009801226C
:1069A00040000023D0EB020263EBE0730098214625
:1069B0004FEAE074B8EB000061EB0401E9E783F013
:1069C00000435BE781F0004158E72DE9F04D81EA93
:1069D000030404F0004B21F0004514464FF0000A78
:1069E00023F0004150EA050220D054EA01021DD0F4
:1069F000C5F30A570246C5F31303C1F31300C1F3ED
:106A00000A5640F4801543F48013A7EB0608101BC8
:106A1000D64608F2FD3873EB050002D308F10108F1
:106A200001E092185B41B8F1000F03DA0020014643
:106A3000BDE8F08D00204FF48011064684460EE03C
:106A4000171B73EB050705D3121B63EB0503064306
:106A50004CEA010C49084FEA300092185B4150EAB9
:106A60000107EDD152EA030012D082EA040083EA62
:106A70000501084305D0101BAB4106D201220023BB
:106A800006E000224FF0004302E06FF001025310D5
:106A90001AEB06004CEB085110EB0A0041EB0B011E
:106AA000BDE8F04DFFF78DBEC1F30A52C1F31301EB
:106AB00040F2FF3341F480119A4202DA002001468D
:106AC000704740F233439A42A2F2334202DC524210
:106AD000FFF70ABEFFF7D2BC30B5041E71F1000407
:106AE00004DB4FF00044404264EB0101141E73F1DB
:106AF000000405DB1C464FF00043524263EB0403E5
:106B0000994208BF904230BD00F011B82DE9F04124
:106B100017460E46054633B107FB0354E41B2046D7
:106B2000B047A542FAD1A5F10800BDE8F08110B543
:106B300000F00DF8016919B100220261884701E0F7
:106B400080688047AFF3008010B5AFF3008070B568
:106B500000F04AF804680546A4B920200DF02CFD89
:106B6000040011D0094900202C60C4E90001084943
:106B7000A1602073206160610649A06109B100F045
:106B80004AF8E061204670BDAFF3008000000000CD
:106B9000496B020000000000064C074D06E0E0686B
:106BA00040F0010394E8070098471034AC42F6D354
:106BB000FFF72AFB5CCA03007CCA0300202A06DB1D
:106BC000CB17203A41FA02F043EAE07306E041FABB
:106BD00002F3D040C2F120029140084319467047A9
:106BE00070470000034870470248001D011F88607D
:106BF000001D70471C3800202DE9F04116461F4645
:106C00000C46851B02E02846B847AD1B641EFAD22D
:106C1000BDE8F08100DE10B588200DF0CDFC002825
:106C200001D00021017010BD802902D808B101787F
:106C300009B100207047012100F8081B704718B106
:106C400000F10802914201D000207047002101703C
:106C5000704770B58C1810F8015B15F0070301D16F
:106C600010F8013B2A1106D110F8012B03E010F8AF
:106C7000016B01F8016B5B1EF9D12B0705D40023D2
:106C8000521E0DD401F8013BFAE710F8013BCB1A74
:106C9000921C03E013F8015B01F8015B521EF9D569
:106CA000A142D8D3002070BD2DE9F04F89B0002754
:106CB000002008904FF4807007900126002412E015
:106CC00007980EF069F940B100BF7E480068304077
:106CD00018B107980EF052F9374376000798001D57
:106CE00080B20790641C082CEAD34FF4BE700EF0FB
:106CF00053F950B14FF4BE700EF040F947F0004721
:106D000008AA012100200EF0FBF8F8B200B301261A
:106D100000241BE006EA0700B0B100BF6A4850F843
:106D20002400C0F30420804600BF674850F82400C8
:106D3000C0F30140814620460AF0C2FE054615B167
:106D400049464046A84700BF7600641C082CE1D3A2
:106D500007F0004000287CD04FF0000B0020069088
:106D6000002505E04FF0FF3005A941F825006D1C16
:106D7000002DF7D000BF4FF0000B002463E0534814
:106D8000005D0490049820F0C00003904F48005725
:106D9000401C002856D005A903980DF06AFE002873
:106DA00050D004984FEA901903980AF091FE80465B
:106DB0000AF086FE0290029810B9B9F1030F40D193
:106DC000B9F1030F03D106A903980DF05DFE0398F6
:106DD000019001A80EF036F80090009800F5E060F0
:106DE000019950F82100C0F3014800BF08A9039899
:106DF0000DF03FFE8246BAF1000F02D0B8F1020F4B
:106E000005D0BAF1000F1BD1B8F1030F18D1B9F1B9
:106E1000030F0FD1B8F1020F01D1032000E00220CF
:106E20000190019903980DF0E3FF0BF1010000F0D0
:106E3000FF0B00BF029818B14946DDE902209047D8
:106E400000BF00BF641C062C99D3BBF1000F31D0EA
:106E500000E034E04FF0010804AA012100200EF008
:106E60004FF800250BE004A850F8250008A951F8B8
:106E70002510884202D04FF0000802E06D1C002D62
:106E8000F1D000BFB8F1000F02D04FF0000B10E0BE
:106E900000250CE004A850F8250008A941F82500B9
:106EA00006A850F8250005A941F825006D1C002D05
:106EB000F0D000BFBBF1000F7FF45DAF00BF09B0A1
:106EC000BDE8F08F046300401065004004490020D5
:106ED00002A006F054FA00BFFEE700005B4D4149F6
:106EE0004E5D20486172644661756C745F48616EE6
:106EF000646C6572282920210D0A000010B5024932
:106F000002480CF09DFF10BD1049002000C0014058
:106F100010B5024902480CF093FF10BD184900203B
:106F20000010024010B5024902480CF089FF10BD64
:106F3000204900200020024010B5002009490860C7
:106F400000210948C0F84411C0F84811C0F84C119C
:106F500000200549C1F8000102493C39086012F0DF
:106F600043FE10BD401101400010014010B5042245
:106F7000002102480CF0B6FF10BD000000400240A6
:106F8000FEB54FF482700EF083F8002837D04FF42E
:106F900082700EF087F86C4890F82E0018B16A489D
:106FA00090F82F0058B300208DF800006648406824
:106FB000019065480189ADF80810C06818B9002033
:106FC0006149087412E06048008B5F4948830846B5
:106FD000C06848600846008B08810020C8600846E9
:106FE00090F82E0010B900200EF0A2F85648016863
:106FF000684688470020544981F82F0000BF524856
:1070000090F82E00002852D04FF480700EF040F817
:1070100000284CD04FF480700EF044F84A48408B62
:10702000494991F82D10884216DD4748408B464962
:1070300091F82D10401A444948830A4612890B469C
:107040005B8BD21A0B465B6803EB42000A4692F850
:107050002D100EF009F823E03B48408B3A4991F897
:107060002D1088420FD13848C06860B101203649E0
:1070700081F82F00002048830A4692F82D10D0682E
:107080000DF0F2FF0CE03048408B2F4991F82D10A5
:10709000884205D101202C4981F82F000020488327
:1070A0004FF482700DF0FEFF04200EF041F84FF413
:1070B00088700DF0EDFF70B14FF488700DF0F2FFA5
:1070C00000202149087402208DF80000084601685C
:1070D0006846884700BF4FF48A700DF0D9FF38B179
:1070E0004FF48A700DF0DEFF0020174908742AE083
:1070F0001548456924E0B5FA85F64FF00040F040A8
:107100008543B00000F58C7420460DF0C1FFB8B186
:1071100020460DF0C7FF01208DF80000A4F58C700B
:10712000C0F3C7008DF80400A4F58C70012121EA9A
:1071300090018DF80510044801686846884700BF33
:10714000002DD8D100BFFEBD2849002010B500F0A9
:1071500061FB10BDF8B504460D46164600BF0B484E
:10716000007808B900F056FB00BF00200090684688
:1071700009F082FB32462946204600F009F807460E
:107180009DF8000009F088FB3846F8BD684C0020E7
:107190002DE9F047074688461646C24607EB4701E9
:1071A0001B4800EBC109D9F8140020B1012811D007
:1071B000022826D11EE0484600F064FB0546B54291
:1071C00001D2002405E0344632465146484600F0DC
:1071D0002EFD18E0484600F055FB0546B54201D2A9
:1071E000284600E03046044622465146484600F014
:1071F0001EFD08E032465146484600F0DFFC0446DA
:1072000001E0002400BF00BF2046BDE8F087000079
:10721000804C00200FB438B5044606A800906A469A
:107220002046059900F007F8054600200090284602
:1072300038BC5DF814FB2DE9F04F99B082460D463D
:10724000144603A814904020159000201690CDF805
:1072500060A0179000BF2E786D1C06B9DDE0252ECA
:1072600079D100274FF0010900BF2E78232E12D0CC
:107270002B2E0CD02D2E02D0302E10D103E047F053
:1072800001076D1C0EE047F002076D1C0AE047F095
:1072900004076D1C06E047F008076D1C02E04FF084
:1072A000000900BF00BFB9F1000FDED14FF00008A8
:1072B00000BF2E78302E01DB392E00DD07E06D1C7B
:1072C000A6F1300008EB880100EB4108F1E700BFB0
:1072D000002013902E782E2E12D16D1C00BF2E7818
:1072E000302E01DB392E00DD09E06D1CA6F13000E7
:1072F000139901EB810100EB41001390EFE700BF10
:107300002E7800BF6C2E01D0682E02D16D1C2E7815
:1073100000E000E0F6E700BF702E5DD008DC252E0F
:107320006AD0582E35D0632E09D0642E69D113E06F
:10733000732E3CD0752E1DD0782E62D128E02168A6
:10734000081D2060D1F8009009F0FF0B594614A8E1
:1073500000F012FC56E058E02168081D2060D1F8CA
:107360000090CDE900870A22494614A8139B00F03B
:1073700017FB47E02168081D2060D1F80090CDE997
:1073800000870A22494614A8139B00F07FFB39E0CE
:1073900000BF2168081D2060D1F80090CDE900876A
:1073A0001022494614A8139B00F070FB2AE02168C4
:1073B000081D2060D1F800B000BF9BF800600BF101
:1073C000010B06B906E0314614A800F0D5FB17986A
:1073D0000028F2DA00BF15E02168081D2060D1F80E
:1073E0000090002008210B461022CDE900104946EC
:1073F00014A800F04BFB05E0252114A800F0BCFB0D
:1074000000E000BF00BF6D1C03E0314614A800F08F
:10741000B3FB17980028BFF61EAF00BF17980028CF
:107420000ADD169820B103A95046169AFFF792FE7E
:10743000DDE9161008441790179819B0BDE8F08FD1
:1074400010B5024902480CF0A9FD10BD58490020B2
:107450000030004010B512F0D1FA10BD70B5094AE5
:107460000021084609F0B2F8044600BF25463DB1A8
:1074700000BF05A240F287112846FEF7D1FE00BFEB
:1074800000BF70BD550903002E2E5C2E2E5C6C696A
:1074900062726172795C6E5246352D53444B5C6367
:1074A0006F6D706F6E656E74735C736F6674646518
:1074B000766963655C636F6D6D6F6E5C6E72665F3F
:1074C0007364682E63000000014802490860704739
:1074D0000090D0030C38002010B50AF05BFF28B1F3
:1074E0008D480088C0F304208C4908600AF0A6FF8C
:1074F00010B18B488B4948670AF0C8FF30B1864805
:10750000E0380068C0F34230874908600AF0E8FFBD
:1075100028B18648006820F08070844908600AF02D
:10752000F7FF48B10020824908604FF08041C1F860
:1075300010017D49091F08600BF014F818B10320F1
:107540007949643108600BF025F868B10520794964
:1075500008600120774978310860002075490831BA
:1075600008603F20091F08600BF02CF8002855D058
:107570006948E0300068704908606748E430006896
:10758000091D08606448E8300068091D0860624809
:10759000EC300068091D08605F48F0300068091D84
:1075A00008605D48F4300068091D08605A48F830EA
:1075B00000686149203108605748FC300068091DA7
:1075C00008605E480068091D08605C48001D00688E
:1075D000091D0860594808300068091D08605748AF
:1075E0000C300068091D086054481030006852498A
:1075F00040310860514814300068091D08604F4848
:1076000018300068091D08604C481C300068091DCE
:1076100008604A4820300068091D08600AF090FEA2
:1076200030B13D48CC38006800F04F004449086054
:107630000AF0DAFE40B14348006800F0010018B1DA
:107640006FF001003F4908600AF010FF28B13E4882
:10765000006840F480603C49086034487438006831
:1076600040F4700031497439086000BF00BF00BFAA
:10767000BFF34F8F00BF00BF00BF00BF00BF00BF00
:10768000BFF36F8F00BF00BF00BF3048006800F03D
:107690000100E0B301202E49086000BF2D480068BA
:1076A0000028FBD02948006820F001004FF010218D
:1076B000C1F80C0200BF274800680028FBD000205A
:1076C0002349086000BF234800680028FBD000BFA2
:1076D00000BF00BF00BF00BFBFF34F8F00BF00BFA0
:1076E00000BF1248F038006800F4E0601A4908430F
:1076F000001D0E49F039086000BF00BF00BFBFF396
:107700004F8F00BF00BF00BF00BF00BFFDE7FFE716
:10771000FFF7DAFE10BD00002403001040350140E1
:107720000DF0ADBA00C007403C050040FCED00E0A4
:107730000C0100401056004020C5004024040010F9
:10774000E40E0040000400403C1700400C12001002
:1077500004E5014000E401400000FA0510B50422F0
:10776000024903480CF050FC10BD00008449002081
:107770000090004010B50548006818B904A15120D8
:1077800009F0EEF801490868804710BD6C37002009
:107790002E2E5C2E2E5C6C6962726172795C6E5268
:1077A00046352D53444B5C6D6F64756C65735C6E30
:1077B0007266785C647269766572735C7372635C1E
:1077C0007072735C6E7266785F7072732E63000005
:1077D00008B501200C490968014009B1012100E008
:1077E000002101290FD109480068804700BF00200F
:1077F0004FF48071064A8850084611464058009060
:1078000000BF00BF00BF08BD040301407C3700205B
:107810000000014010B5124C01202061606111A0F0
:10782000A0611349E1614FF4006121620021A1626E
:107830006162E1620BA020630E4961631021A163C4
:1078400000212164E16361640BA1E01DFEF75DFE90
:107850000AA12046FEF759FE2020A07110BD0000AD
:10786000684C00205465726D696E616C0000000008
:10787000B04C0020B05400205254540053454747A8
:107880004552000010B501460A69CB689A4204D8F7
:107890008C68641EE41AA01801E0D41A601E10BDA2
:1078A00070B505460C46012C01DD042C07DB042CC9
:1078B00001DD082C03DB0BA16B2009F051F82846F1
:1078C0002146002804DB4A07130E134A135406E02E
:1078D0004A07160E114A00F00F031B1FD65400BFB3
:1078E00070BD00002E2E5C2E2E5C6C69627261727F
:1078F000795C6E5246352D53444B5C696E746567F6
:10790000726174696F6E5C6E7266785C6E726678B6
:107910005F676C75652E680000E400E018ED00E01C
:1079200070B505460C46012C01DD042C07DB042C48
:1079300001DD082C03DB0BA16B2009F011F82846B0
:107940002146002804DB4A07130E134A135406E0AD
:107950004A07160E114A00F00F031B1FD65400BF32
:1079600070BD00002E2E5C2E2E5C6C6962726172FE
:10797000795C6E5246352D53444B5C696E74656775
:10798000726174696F6E5C6E7266785C6E72667836
:107990005F676C75652E680000E400E018ED00E09C
:1079A0002DE9FC5F06460F4692469846DDE90C45F8
:1079B000002F01DA784200E0384683464FF0010993
:1079C00003E09BFBFAFB09F10109D345F9DAC8454D
:1079D00000D9C14634B1002F03DB05F004000428B0
:1079E00000D1641E05F0020010B1B8F1000F11D0F3
:1079F00005F0010070B96CB108E0641E202130462A
:107A000000F0BAF8F068002800DA02E00CB1A145F5
:107A1000F3D300BFF068002836DB002F05DA7F4281
:107A20002D21304600F0A8F807E005F004000428F6
:107A300003D12B21304600F09FF8F068002823DBAB
:107A400005F00200022814D105F0010088B9B8F150
:107A5000000F0ED16CB108E0641E3021304600F0FA
:107A60008BF8F068002800DA02E00CB1A145F3D3EE
:107A700000BFF068002807DB4346524639463046CF
:107A8000CDE9004500F002F8BDE8FC9F2DE9FC5F60
:107A90008046894615461E460C9CCDF80490012769
:107AA000BB4605E00198B0FBF5F001900BF1010B2E
:107AB0000198A842F6D25E4500D9B3460D9800F071
:107AC0000100D0B9CCB10D9800F00200022803D11A
:107AD00016B93020009001E02020009009E0641EDB
:107AE0004046009900F048F8D8F80C00002800DA69
:107AF00002E00CB1A345F2D300BFD8F80C00002877
:107B000035DB09E0012E01D9761E04E0B9FBF7FA56
:107B1000AA4500D201E06F43F4E700BF00BFB9FB04
:107B2000F7FA0AFB1799134810F80A10404600F0BC
:107B300023F8D8F80C00002800DA03E0B7FBF5F7CB
:107B4000002FECD100BF0D9800F0010078B174B1A6
:107B500009E0641E2021404600F00EF8D8F80C0021
:107B6000002800DA02E00CB1A345F2D300BFBDE863
:107B7000FC9F0000D0B3030070B504460E46A56814
:107B8000681C6168814206D320684655681CA06065
:107B9000E068401CE060D4E9011088420DD1A26881
:107BA00021682069FFF7D6FAA168884203D04FF018
:107BB000FF30E06001E00020A06070BD2DE9F047DB
:107BC0000446894617464FF0000AE56800BFD4F81E
:107BD0001080A84503D9A8EB0500461E04E0A5EBDC
:107BE0000800401CA1680E1AA068401BB04201D9D1
:107BF000304601E0A068401B0646BE4201D2304636
:107C000000E0384606466168481932464946FEF7A4
:107C100044FCB244B144BF1B3544A068A84200D123
:107C20000025E560002FD2D15046BDE8F0872DE950
:107C3000F047044689461546E668A068871BAF42B0
:107C400008D9616888192A464946FEF726FC70194A
:107C5000E06010E0B8466168881942464946FEF780
:107C60001CFCA5EB070809EB070142466068FEF71C
:107C700014FCC4F80C80BDE8F087000010B5064A7B
:107C80000021064805F0F0FC04461CB104A1662062
:107C900008F066FE10BD00002DA503008CB40300A3
:107CA0002E2E5C2E2E5C6C6962726172795C786635
:107CB0005C61646170746572735C78665F6E524675
:107CC000355F616461707465722E637070000000CE
:107CD00010B50748007848B10648006805F060FC18
:107CE00018B900200249087000E000BF10BD000074
:107CF000F53700208CB403002DE9FF470C461546EC
:107D00001E46DDE90C78684600F0B2F8814644EA88
:107D1000450040EA860040EA072040EA084109F5AC
:107D2000E060009A40F82210BDE8FF8700BFF1EE46
:107D3000101A21F09F00E1EE100A00BF00BFF1EE23
:107D4000100A2620002807DB00F01F0201219140C5
:107D5000034A430942F8231000BF41DF7047000087
:107D600080E200E070B504462CB901F009F905463F
:107D700001F029FA70BD11480078D8B901F000F976
:107D80000546052C01D2052000E0204601462A4682
:107D90000B48006805F05EFC38B905F095FC094910
:107DA000086001200549087005E007A1972008F048
:107DB000D7FD00E000BF00BFDCE70000F537002082
:107DC0008CB40300F83700202E2E5C2E2E5C6C69DC
:107DD00062726172795C78665C616461707465720C
:107DE000735C78665F6E5246355F6164617074657E
:107DF000722E63707000000010B50446FFF768FF34
:107E00002046FFF7AFFF10BD10B504F0E1FA10BD3A
:107E10002DE9F04104464FF4004084FB00204FF46C
:107E2000FA73D51840F100015A0000232846FEF7E6
:107E3000F4FA07463846BDE8F081000070B505F059
:107E400043FC0A490968401A20F07F4442F210704E
:107E5000A4FB00104FF48043CD1840F100015A00FC
:107E600000232846FEF7D9FA70BD0000F83700203D
:107E700010B504462068202804D304A14FF4E8700C
:107E800008F06EFD4FF0A04010BD00002E2E5C2EBD
:107E90002E5C6C6962726172795C6E5246352D534C
:107EA000444B5C6D6F64756C65735C6E7266785C78
:107EB00068616C5C6E72665F6770696F2E68000047
:107EC00001460A460548824205D300F50070824209
:107ED00001D2012070470020FCE70000605600201E
:107EE00001460A460448824204D38030824201D2CD
:107EF000012070470020FCE7C054002001460A46DC
:107F00000548824205D300F58070824201D20120EB
:107F100070470020FCE700005055002010B50446D3
:107F20002046FFF7DDFF20B121460D4812F010FB7F
:107F300015E02046FFF7E2FF20B12146094812F084
:107F4000B5FB0CE02046FFF7BBFF20B121460648F9
:107F500012F05AFC03E005A1542008F001FD10BD09
:107F60007058002088580020A05800202E2E5C2E2B
:107F70002E5C6C6962726172795C6D64772D6E72D1
:107F8000665C636F6D6D6F6E5C706F6F6C5C6D6562
:107F90006D6F7279706F6F6C2E63707000000000EF
:107FA00070B505460024082D0AD8164812F0FCFAD0
:107FB000044604B124E014A1302008F0D1FC1FE0F5
:107FC000102D0AD81D4812F09DFB044604B117E09D
:107FD0000DA1352008F0C4FC12E0202D0AD8184865
:107FE00012F03EFC044604B10AE007A13A2008F072
:107FF000B7FC05E004B103E003A13E2008F0B0FCAB
:10800000204670BD705800202E2E5C2E2E5C6C69B0
:1080100062726172795C6D64772D6E72665C636FFB
:108020006D6D6F6E5C706F6F6C5C6D656D6F72798E
:10803000706F6F6C2E637070000000008858002015
:10804000A05800200CB5024601A80021017000BF15
:10805000007800909DF8001008460CBD70B50446ED
:10806000102000F02CFF054600F002FF05462068B6
:108070002946C2682046904770BD014600BF886807
:1080800040B100BF886800BF0279042A02D100BF56
:10809000886870470020FCE738B504460D46A560A7
:1080A000206881692046884700900020A0609DF8E4
:1080B0000010084638BD01464868704770B5044650
:1080C0000D465DB12146284607F03FF82068C1699A
:1080D000204688470646294607F0C9F870BD0000CB
:1080E00070B504460D460648206000BF0548206074
:1080F0000DB1284601E001F0E3F86060204670BD54
:1081000000B50300D8B4030070B50446204600F063
:1081100004F8054607F035FA70BD00BF00BF00BF88
:10812000704770B5044600BF2546284607F029FA77
:1081300070BD70B50446204600F004F8054606F010
:10814000E0FC70BD10B50446204606F0D6FC04469F
:10815000204610BD10B50446012060764FF496709D
:10816000206400206062A062E0622063E06120621F
:10817000606302A005F003F910BD00005B48656173
:1081800074466C6F775D20696E697469616C697A99
:10819000652829203E20496E697469616C697365A0
:1081A00020646F6E652E2E2E0D0A00007CB50446ED
:1081B00000BFA06800BF90F9041001295BD003291B
:1081C00002D0042978D100E084E02046FFF755FF73
:1081D00005466879002847D0012802D0022847D1F7
:1081E00019E0002084F83F00206C1E3820643FA076
:1081F000216C05F0C4F8206C40B94AA005F0BFF826
:1082000005206076204600F06BFA03E0012120464D
:1082100000F04AFC2DE0002084F83C0094F83D007A
:1082200078B14D4805F0ABF8002084F83D004B488C
:108230000078401C494908700521A06B05F062FDDB
:1082400009E0474805F09BF8012084F83D0004212F
:10825000A06B05F057FD414800780A2803DA012198
:10826000204600F089F904E0002084F83E0000E098
:1082700000BF00BF2EE0607E012829D10220607679
:1082800094F84410204600F0BDF8216A01F1200066
:1082900004F11402002111E050F82130934200D182
:1082A0000FE050F8213043B940F8212090F83030E9
:1082B0005B1C80F8303004E00BE0491C0C29EBDB40
:1082C00000BF206A06F078FE0121204600F0ECFB9A
:1082D00000E000BF00BF01A80121017000BF0078CD
:1082E00000909DF8001008467CBD00005B48656169
:1082F00074466C6F775D2070726F6365737345763B
:10830000656E742829203E205F6E6F416374697624
:10831000697479436F756E746572203D2025640D14
:108320000A0000005B48656174466C6F775D2070E1
:10833000726F636573734576656E742829203E20DD
:108340002D3E2053545F53595354454D5F4F46467D
:10835000202E2E2E0D0A000078BF03003836002094
:1083600014C0030010B5044694F8460058B106A0A6
:1083700005F005F8606A02F06CFA002084F8460007
:10838000E06A04F0AFFB10BD5B48656174466C6F3A
:10839000775D205F73746F70416476657274697382
:1083A000652829203E2073746F70206164766572A1
:1083B000746973696E670D0A0000000010B5044609
:1083C00006A004F0DCFF012084F845002046FFF7FA
:1083D000C9FFA06A04F09AFB10BD00005B4865610C
:1083E00074466C6F775D205F6F6E426C65436F6E95
:1083F0006E65637465642829203E202E2E2E0D0A9A
:108400000000000070B504460D4694F84500A0B980
:10841000607E01280DD0607E58B10AA004F0AFFF45
:1084200003222946606A02F029FAE06A04F093FB0D
:1084300006E0114804F0A3FF02E0104804F09FFF9B
:1084400070BD00005B48656174466C6F775D205FAE
:1084500073746172744164766572746973652829F6
:10846000203E207374617274206164766572746951
:1084700073696E670D0A0000C0C103000CC20300DF
:1084800070B505460E46144621460AA004F077FF53
:1084900014B1012C0AD104E00021284600F096F81E
:1084A00005E00121284600F091F800E000BF00BF80
:1084B00070BD00005B48656174466C6F775D206F2E
:1084C0006E436F6E66696775726174696F6E43683B
:1084D000616E67652829203E2061647320636F6D9B
:1084E0006D616E643A2025640D0A000070B5044683
:1084F0000E461546294603A004F041FFA06A04F089
:108500001DFB70BD5B48656174466C6F775D206FC5
:108510006E4164766572746973654572726F722814
:1085200029203E204572726F723A2030782530340F
:10853000780D0A0070B505460E461446214602A085
:1085400004F01DFF70BD00005B48656174466C6FF0
:10855000775D206F6E506173736B657944697370DA
:108560006C61792829203E20506173736B65793ADC
:108570002025730D0A00000070B504460D46A5B114
:1085800094F83C0008BB2068C1692046884706462D
:10859000234642F21072022106F0EEFD012084F81B
:1085A0003C004FF4967020640FE0002084F83C00FB
:1085B0002068C1692046884706462246022106F007
:1085C000EBFD0221A06B05F09DFB70BD70B504466C
:1085D0000D466DB194F83D00B8B90C4804F0CFFEDB
:1085E000012084F83D000421A06B05F08BFB0CE01A
:1085F00094F83D0048B1064804F0C1FE002084F81C
:108600003D000521A06B05F07DFB70BDC4BF0300DC
:1086100028BF030010B5044606A004F0B0FE0220F7
:10862000607600212046FFF7D1FF002084F8450046
:1086300010BD00005B48656174466C6F775D205F1C
:108640006F6E426C65446973636F6E6E65637465CB
:10865000642829203E202E2E2E0D0A0070B50446D7
:108660000D4604A004F08BFE02206076002084F802
:10867000460070BD5B48656174466C6F775D206F26
:108680006E41647653746F707070656428290D0AAA
:10869000000000007FB504460D4603A0DDE902128C
:1086A00004F06DFE7FBD00005B48656174466C6F31
:1086B000775D206F6E41757468537461747573557E
:1086C0007064617465642829203E20417574682EA9
:1086D000205374617475733A2025640D0A000000FC
:1086E00010B50446A06A04F036FAE06A04F033FAE2
:1086F000206B04F030FA002084F84500606A02F034
:10870000A8F8002084F84600024804F038FE33DF61
:1087100010BD000064C003002DE9F04704468946FF
:10872000154629460D4804F02AFE606AB0F880100C
:108730000F46616A01F5A26000BF00F1380188466A
:108740003A462946404608F07BFC06461EB13146B3
:10875000034804F014FEBDE8F087000078C1030070
:10876000A0C203002DE9F04106460F46144600BFA3
:10877000092C16D2DFE804F0150507090B0D1113BB
:108780000F000C480EE00C480CE00C480AE00C48C6
:1087900008E00C4806E00C4804E00C4802E00C48F5
:1087A00000E00C48054629460BA004F0E8FDBDE8B2
:1087B000F0810000B9BC0300C7BC0300DABC0300B1
:1087C000EFBC030005BD03001ABD03002EBD03006E
:1087D0004FBD030073BD03005B48656174466C6F59
:1087E000775D206F6E426174746572795374617441
:1087F000654368616E6765642829203E206E657751
:108800002073746174653A2025730D0A000000001E
:108810002DE9F04106460F4614461D462A462146DC
:1088200002A004F0ACFDBDE8F08100005B4865618A
:1088300074466C6F775D206F6E436F6E6669677507
:10884000726174696F6E4368616E67652829203EA6
:108850002061647323256420636F6E6669673A2024
:108860003078253034780D0A0000000070B50446D9
:108870000D4604A004F083FD042060762046FFF737
:108880009DFD70BD5B48656174466C6F775D206FC0
:108890006E426C65436F6E6E656374656428290D66
:1088A0000A00000070B504460E461546092D2AD26E
:1088B000DFE805F005090D1119151D21250022A07D
:1088C00004F05DFD20E02D4804F059FD1CE02CA0D3
:1088D00004F055FD18E038A004F051FD14E043A069
:1088E00004F04DFD10E051A004F049FD0CE05CA047
:1088F00004F045FD08E06A4804F041FD04E06948E1
:1089000004F03DFD00E000BF00BF032060760120C1
:1089100084F84600072D13D2DFE805F00E1212048A
:1089200009050A0000BFA06A04F0FCF809E000BFD6
:10893000A06A04F0D7F804E0A06A04F00CF900E0A3
:1089400000BF00BF70BD00005B48656174466C6F7E
:10895000775D206F6E41647653746174654368611E
:108960006E6765642829203E20424C455F4144568D
:108970005F4556545F49444C450D0A0034C103001D
:108980005B48656174466C6F775D206F6E416476FD
:1089900053746174654368616E6765642829203E7D
:1089A00020424C455F4144565F4556545F4449520E
:1089B00045435445440D0A005B48656174466C6F3D
:1089C000775D206F6E4164765374617465436861AE
:1089D0006E6765642829203E20424C455F4144561D
:1089E0005F4556545F464153540D0A005B4865612C
:1089F00074466C6F775D206F6E416476537461745A
:108A0000654368616E6765642829203E20424C45B5
:108A10005F4144565F4556545F464153545F574843
:108A20004954454C4953540D0A0000005B486561A8
:108A300074466C6F775D206F6E4164765374617419
:108A4000654368616E6765642829203E20424C4575
:108A50005F4144565F4556545F534C4F570D0A00D3
:108A60005B48656174466C6F775D206F6E4164761C
:108A700053746174654368616E6765642829203E9C
:108A800020424C455F4144565F4556545F534C4F1E
:108A9000575F57484954454C4953540D0A0000004C
:108AA000F0C00300ACC0030070B504460D468DB1A4
:108AB00094F83F00E8B92068C16920468847064617
:108AC000234647F23052012106F056FB012084F87C
:108AD0003F000EE0002084F83F002068C169204676
:108AE000884706462246012106F056FB4FF4967051
:108AF000206470BD70B504460D4603A004F03FFC31
:108B00002046FFF787FD70BD5B48656174466C6F5A
:108B1000775D206F6E426C65446973636F6E656E3E
:108B20006374656428290D0A000000002DE9F041F6
:108B300006460F461446204630B1012806D00228CA
:108B400006D0032808D105E0074906E0074904E0FC
:108B5000074902E0074900E007490D46074804F0CD
:108B60000EFCBDE8F0810000A8BB0300C4BB0300FD
:108B7000DABB0300FBBB030019BC030054C20300B3
:108B80002DE9F05F04460D461E460AAF97E8800FB8
:108B900035B927A004F0F3FB33A1C92007F0E0FEAC
:108BA00065622FB1B8F1000F02D0B9F1000F06D104
:108BB00035A004F0E4FB2CA1D12007F0D1FEA76280
:108BC000C4F82C80C4F8309036B939A004F0D7FB33
:108BD00025A1F62007F0C4FE2662BAF1000F06D1E7
:108BE00040A004F0CCFB20A1FE2007F0B9FEC4F8A1
:108BF00034A002221146606B03F080FC00231A4669
:108C00001F21606B03F06DFC0122FA21606B03F001
:108C1000C9FCBBF1000F07D13DA004F0B0FB12A1CD
:108C200040F2151007F09CFEC4F838B0BDE8F09F84
:108C30005B48656174466C6F775D2062696E64287D
:108C400029203E207065726970686572616C436F9F
:108C50006E74726F6C6C6572204E554C4C20657250
:108C6000726F7220210D0A002E2E5C2E2E5C617018
:108C7000706C69636174696F6E5C68656174666C61
:108C80006F772E63707000005B48656174466C6F8F
:108C9000775D2062696E642829203E206C656441FE
:108CA000204E554C4C206572726F7220210D0A00C7
:108CB0005B48656174466C6F775D2062696E6428FD
:108CC00029203E20626174746572794D616E61671E
:108CD0006572204E554C4C206572726F7220210DCA
:108CE0000A0000005B48656174466C6F775D206226
:108CF000696E642829203E2070776D48414C204ED3
:108D0000554C4C206572726F7220210D0A000000D4
:108D10005B48656174466C6F775D2062696E64289C
:108D200029203E2073656E736F724374726C204EFF
:108D3000554C4C206572726F7220210D0A000000A4
:108D400070B50446064D2868206004F1100002F05A
:108D500001FAA0F110042946204600F003F870BD86
:108D600078B6030070B504460D460DB9012000E049
:108D70000020061E08D01E4D2868206004F1100057
:108D800002F0E8F9A0F1100400212046FFF7A8F94D
:108D900004461849E16004F1100069682161A9687E
:108DA000226952F8102C815000BFA0F11004124922
:108DB0006161286820601148E0602869216851F8E5
:108DC0000C1C60502C34E86844F81C0C0B484830EC
:108DD00044F8180C002004F8130C6076A076207775
:108DE000A074E074207460612C3C204670BD0000CB
:108DF00078B6030060B7030054B9030028B6030037
:108E000070B50446204600F005F8054606F0B9FBAB
:108E100070BD00002DE9F0470546144F2C463E1E5C
:108E200001D1012000E00020B0F1000900D00F4E78
:108E3000311D04F1100000F059FFA0F1100420468C
:108E4000FFF76BF90446B9F1000F04D004F11000EC
:108E500000BFA0F1100400BFA04605F1100000BF44
:108E6000A0F110054046BDE8F087000078B6030089
:108E700030B50121002213460C46054D05600171F5
:108E800042718360047300BF0249016030BD00007D
:108E90009CB503002CB5030070B50446204600F0D5
:108EA00004F8054600F005F870BD00BF00BF00BF24
:108EB000704710B504462046FFF730F810BD10B5D6
:108EC00004462046FFF76CF810BD2DE9F341044637
:108ED000201D11F0ACFF002847D1201D11F0D7FF55
:108EE0000646356800BF0020D0F80080002D3BD03A
:108EF000FEF7A4FF07463946284606F0E0F9019838
:108F00004069696988420DD801A9201D11F021FE30
:108F100001984169284606F0D2F901994869FEF79F
:108F20006BFF21E0002700BF6969019806F0C7F9CF
:108F300000BF7068064635687F1C454504D06869E7
:108F4000019949698842EFD301AA3946201D11F0E1
:108F5000B9FE00BFA068791C884204D90198416914
:108F6000284606F0ACF900BF07E001A9201D11F06A
:108F7000F0FD01994869FEF7F5FEBDE8FC810000AF
:108F800010B50E48007800F0010070B90B4806F0EB
:108F900006FC50B10A4800F049F90446094A0A495A
:108FA000FDF7CCFA0548AFF300800848006810B917
:108FB0000348064908600548006810BD00380020D5
:108FC0003859002000600200A9920200FC370020FE
:108FD00070B50446201D11F02AFF40B9201D11F084
:108FE00056FF006845692846FEF7BCFE01E0FEF723
:108FF0006FFE70BD70B506460C4600BFA068054602
:1090000000682146C2682846904770BD2DE9F043AC
:1090100087B0054689469046434600224946684641
:1090200006F064F9281D11F032FF06463CE0346872
:10903000281D11F02CFF0068A04206D1FEF7FEFEAD
:1090400007463946204606F03AF96946204606F0BA
:10905000D9F930B300BFA868012816D900BF7068DD
:1090600007688FB100BF00200068B84203D03846BF
:10907000616906F033F9281D11F009FF0068A0426C
:1090800002D17869FEF7B8FE01E0FEF721FE314615
:10909000281D11F067FD1CB12068416820468847F3
:1090A00006E000BF7068064600BF0020B042BED197
:1090B000684606F04CF907B0BDE8F0832DE9F047AB
:1090C00006460F46904699461C2006F04AF904468B
:1090D0004B464246394606F009F90446254625B175
:1090E00029463046FFF7F1FE03E003A1902007F088
:1090F00037FCBDE8F08700002E2E5C2E2E5C6C69DC
:1091000062726172795C78665C636F72655C7866C6
:1091100074696D656F75746D616E616765722E63DC
:109120007070000070B504460D461646324629465A
:109130002046FFF76BFF70BD70B506460C46104821
:10914000007800F0010080B90D4806F028FB60B1FE
:109150000C4A21460C4811F055FC05460B4A0C49B7
:10916000FDF7ECF90648AFF30080064801680948AE
:10917000814203D908A1782007F0F2FB024870BDB4
:109180000438002008380020E05900200060020068
:10919000C1AA0300E05900202E2E5C2E2E5C6C69C3
:1091A00062726172795C78665C636F72655C786626
:1091B00074696D656F75746D616E616765722E633C
:1091C00070700000704770B50446201D11F02FFE2E
:1091D00000B170BD251D0021284611F02EFE066845
:1091E00031462046FFF706FF201D11F0C3FD201D6C
:1091F00011F04DFE05460FE02868406958B9201D62
:1092000011F0B8FD20462968FFF7F4FE201D11F08B
:109210003EFE054600E003E000BF0020A842EBD17F
:109220002046FFF7D5FE00BFD3E7000070B5044627
:109230000F482060201D0F4961600021416081605E
:10924000C160016100BF041F0B48006818B10BA189
:10925000472007F085FB08480460FEF70FFD10214A
:109260002046FFF769FF0546656100BF204670BDD7
:109270003CB503004CB50300FC3700202E2E5C2EBD
:109280002E5C6C6962726172795C78665C636F7285
:10929000655C786674696D656F75746D616E616724
:1092A00065722E637070000010B50446034820609C
:1092B000201D11F073FD041F204610BD3CB50300B6
:1092C00000487047D858002010B5FFF759FE0446F3
:1092D000FFF778FF034C0021204605F06BFF00BF2D
:1092E00010BD0000D85800202DE9FF4F85B004467E
:1092F0000D46164612AF97E8800F0021A17284F840
:1093000038A04449E163444921644FF6FF71A4F851
:10931000501204F50F70C4F84C02FF2184F85C1061
:1093200004F15D00C4F83C021F21A4F840120021A2
:109330004FF41670C4F85212A4F8561201552C219D
:1093400004F10C00FDF7C2F8BBF1000F11D04FF48F
:10935000FA71A161F42161614FF4FA71216240F662
:109360000801E16140F6C411A1624FF4A971616284
:109370000FE04FF4FA71A161202161614FF4FA719D
:1093800021622021E16140F6C411A1624FF498618D
:10939000616200208DE88003039032462946204612
:1093A000089B00F054F8022084F87402012140F276
:1093B00076200155201D4FF41E71085140F25A20AD
:1093C000A4F8680204F5187000BFC4F87002062102
:1093D0004FF41B70015304F51A704FF426710851B5
:1093E00004F15D00C4F83C02012184F85910208C7E
:1093F000A4F8500084F844100021A16484F85810A7
:10940000E169E164204600F0BEF8207209B0BDE8D1
:10941000F08F0000D5030300C103030070B50446BC
:109420000D4694F90400A8420FD0204605F09FFF96
:1094300010B1204600F040F82571201D4FF41E7138
:109440000851204600F09FF870BD0120FCE72DE98F
:10945000F05F04460D4616461F46DDE90C8BDDE93C
:109460000A9A01212173204605F081FF10B12046A0
:1094700000F022F80DB1052100E0062140F277202E
:1094800001556573A773E67384F8109084F811A0F2
:1094900084F82C80B8F1000F06D094F8450020F035
:1094A0000201891C84F84510BBF1000F02D0204650
:1094B00000F069F8BDE8F09F10B5044694F85C0030
:1094C00074DF10BD70B504460D46294604F108004E
:1094D00007F0AEFC70BDF8B504460D4616461F46B3
:1094E000ADF800508DF802609FB194F80403042891
:1094F0000DDA94F8041304F53D7000EB8100009937
:10950000016094F80403401C84F8040315E0002073
:10951000F8BD94F8B40201280DDA94F8B41204F5F9
:109520002C7000EB81000099016094F8B402401C9B
:1095300084F8B40201E00020EAE7204600F023F8B6
:109540000120E5E72DE9F04104460D4616464DB1F0
:1095500004F1080007F081FC074607B100BF384658
:10956000BDE8F081204605F002FF10B12046FFF76C
:10957000A3FF314604F1080007F094FCF0E7014630
:1095800091F85C00704770B5044694F8B4124FF43B
:109590002170015394F8B40208B9002101E004F5E8
:1095A0002C71C4F88812002184F8A11294F80403E5
:1095B00088B13C2104F52E70FCF788FF94F8041361
:1095C0004FF43270015304F53D71C4F8CC1204F22B
:1095D0004B11C4F844121F21A4F8401204F5107274
:1095E00004F15D0104F51D7007F006FB054605B1A9
:1095F00000BF94F8040388B104F24B11C4F844127C
:109600001F21A4F8481204F5127204F24B1104F55C
:109610002E7007F0F1FA05462DB104E00021C4F8E0
:109620004412A4F8481204F14402002104F15C0041
:1096300072DF054605B100BF012070BD70B504465C
:109640001E482060FC2020710020607104F5187015
:109650004FF48073002501210A462E460380857051
:10966000C1700271467100BFA0F51874002084F823
:10967000B40284F804031248007800F0010050B9E5
:109680000F4806F08CF830B104F108000D4948602D
:109690000B48AFF300800C48007800F0010050B98F
:1096A000094806F07CF830B104F108000749486029
:1096B0000548AFF30080204670BD000094B603005B
:1096C00060360020443800205C36002064380020DA
:1096D000704700002DE9FF4706460C46914620885A
:1096E000102806D0112807D0502809D0512874D14D
:1096F0000BE0A088F08771E04FF6FF70F0876DE017
:10970000A11D304600F062FA68E0A079012801D17D
:10971000208900E020890546304600F05EF9008887
:10972000A8421DD0304600F058F98088A84217D0D2
:10973000304600F0D9F90088A84211D0304600F038
:10974000D3F98088A8420BD0304600F03FF900885A
:10975000A84205D0304600F039F98088A8423AD1B5
:10976000002000900190029003906A462146304606
:1097700000F0E1FB0746BDF8040030B9012F04D129
:1097800004F10801304600F00BFABDF8040050B9AE
:10979000022F08D1618AADF80A10218AADF80810AD
:1097A00004F114000390A0886946B0DF8046B8F148
:1097B000000F05D00B49B82007F0D2F8BDE8FF87AD
:1097C000BDF8040030B9022F04D104F1080130467D
:1097D00000F0FCF900BF01E0FFE700BF00BF00BFE1
:1097E000ECE70000F0C4030030B503460C4603F17B
:1097F0000C002246002112E050F82150954201D180
:1098000001250FE050F8215045B940F8212090F88B
:1098100030506D1C80F83050012503E0491C0C29A4
:10982000EADB0025284630BD70B5044600254FF61A
:10983000FF70E0870220A07241F21100E08004F185
:109840004002A11D0120A8DF05468DB904F14801A1
:10985000204600F0FDF8054304F19401204600F095
:109860007BF8054304F1E001204600F005F80543CC
:10987000284670BD7047000070B586B004460D469E
:109880001DA103C9CDE90401204605F077FD064678
:10989000072004AB324641F251010090284600F007
:1098A00004FC04F1450300220121284600F0DCFB02
:1098B000284605F066FD0646314604F14500FCF7F2
:1098C00005FE0220012100221346CDE9002102906D
:1098D0000A460021284600F0F6FB207900230122E9
:1098E00019460090284600F070FBB4F84010284656
:1098F00000F022FC06B070BD436F6D6D616E6400B8
:109900002DE9F04704460D4616461F46DDE9088955
:109910001048007865F300000E490870084600788A
:1099200066F3430008700846007867F30610087075
:109930000846007868F3C71008700846C0F8019020
:10994000E18F0346052204F1940000F00BFCBDE812
:10995000F08700007436002070B586B004460D46CE
:1099600017A207CA03AB07C3204605F007FD06464A
:109970000A2003AB324641F231010090284600F044
:1099800094FB00231A460521284600F06DFB0120B8
:109990000021009103460246CDE90110284600F05F
:1099A00092FB207900231A4619460090284600F0C1
:1099B0000CFBB4F84010284600F0BEFB06B070BDAA
:1099C0004144532056616C756573000010B5044620
:1099D00004F1E00000F0ECFC10BD10B5044604F109
:1099E000940000F0E5FC10BD2DE9F04104460E4660
:1099F000002514E0294604F10C0011F05DFA60B175
:109A0000294604F10C0011F057FA07463278006835
:109A10002146C3683846984700BF681CC5B200BFDE
:109A200094F83C00A842E5DCBDE8F08170B504463E
:109A30000D46164605480570A0F80160E18F034603
:109A4000032204F1940000F08DFB70BD79360020F4
:109A500070B588B004460D4614221EA103A8FCF779
:109A60001CFD204605F08AFC0646112003AB324659
:109A700041F241010090284600F017FB04F1420337
:109A800000220321284600F0EFFA284605F079FC71
:109A90000646314604F14200FCF718FD0220012180
:109AA00000221346CDE9002102900A4600212846F3
:109AB00000F009FB20790023012219460090284676
:109AC00000F083FAB4F84010284600F035FB08B0E7
:109AD00070BD000041445320436F6E666967757224
:109AE0006174696F6E00000010B5044604F148000F
:109AF00000F05EFC10BD2DE9F04104460D46002645
:109B000017E0314604F10C0011F0D6F978B1314676
:109B100004F10C0011F0D0F90746B5F801302A78AD
:109B200000682146D0F808C03846E04700BF701CE6
:109B3000C6B200BF94F83C00B042E2DCBDE8F08160
:109B400070B504460D462571217904F1480000F0F6
:109B500027FB217904F1940000F022FB217904F124
:109B6000E00000F01DFB70BD30B503460C46201D23
:109B70001A46002110E050F82150954200D10EE025
:109B800050F821503DB940F8212090F830506D1C1C
:109B900080F8305003E0491C0C29ECDB00BF30BDDD
:109BA00070B505460C4605F1480000F001FC008840
:109BB0002188884200D108E005F1E00000F0F8FBC0
:109BC00000882188884200D100BF70BD70B505466D
:109BD0000C4605F1940000F0EBFB80882188884258
:109BE0000ED1608902280BD100BF207B617B40EA47
:109BF00001200646314605F1940000F0C2FB22E048
:109C000005F1480000F0D4FB00882188884208D183
:109C10006089032805D104F10C012846FFF76BFF8A
:109C200011E005F1E00000F0C3FB008821888842C4
:109C300008D16089012805D104F10C012846FFF7FD
:109C4000D3FE00E000BF70BD10B50446204600F012
:109C5000B3F9044604F10C00002103E0002240F8AF
:109C60002120491C0C29F9DB002180F83010A0F1DB
:109C70000C040B48206004F1480000F0FFFBA0F149
:109C8000480404F1940000F0F9FBA0F1940404F1FD
:109C9000E00000F0F3FBA0F1E004204610BD00005E
:109CA000B4B6030010B504460F48206004F1E0008C
:109CB00000F004FCA0F1E00404F1940000F0FEFBCD
:109CC000A0F1940404F1480000F0F8FBA0F148046E
:109CD00004F10C0000BFA0F10C04204600F074F960
:109CE0000446204610BD0000B4B6030009B90123A4
:109CF00000E000231A1E00D000497047D0B60300D0
:109D000070B504460025204600F022F805461DB136
:109D100002A1632006F024FE70BD00002E2E5C2EF2
:109D20002E5C6C6962726172795C6D64772D6E7203
:109D3000665C636F6D6D6F6E5C626C655C626C65BA
:109D4000636F6E74726F6C6C65722E63707000005E
:109D500038B505460BF0E4FA04461CB120A1AF204B
:109D600006F0FEFD00200090694601200BF0F2F99C
:109D700004461CB11AA1B92006F0F2FD68460BF0AA
:109D800049FA044624B116A1C12006F0E9FD00E01D
:109D900000BF2048007800F0010040B91D4805F0E0
:109DA000FEFC20B11C4845601A48AFF300801B48F8
:109DB000007800F0010040B9184805F0F0FC20B12F
:109DC000174845601548AFF3008000203FDF044688
:109DD0001CB103A1D52006F0C3FD204638BD00000C
:109DE0002E2E5C2E2E5C6C6962726172795C6D64E1
:109DF000772D6E72665C636F6D6D6F6E5C626C6505
:109E00005C626C65636F6E74726F6C6C65722E63EE
:109E100070700000683600204C3800206436002046
:109E20006C38002070B506460C46002520466DDFD4
:109E300005460DB1002070BD0620FCE72DE9F0417C
:109E400004460F46002512E02946201D11F022F895
:109E500058B12946201D11F01DF806460068002261
:109E6000394603683046984700BF681CC5B200BF3A
:109E700094F83400A842E7DCBDE8F0812DE9F04118
:109E800004460F46002511E02946201D11F002F876
:109E900050B12946201D10F0FDFF064600683946E6
:109EA00042683046904700BF681CC5B200BF94F8B6
:109EB0003400A842E8DCBDE8F08100000146081D3E
:109EC000002203E0002340F82230521C0C2AF9DB68
:109ED000002280F83020011F0148086008467047C2
:109EE00000B70300011D00BF081F70472DE9F041B6
:109EF00004460D4616460020A07226712572206881
:109F0000416920468847074607B100E000BFBDE829
:109F1000F08130B5012901D19A800BE0022903D1EB
:109F20009A8001259D7105E021B94FF480749C80D1
:109F30009C8000BF30BD2DE9F84307460E4615460C
:109F4000B479002028606860A860E8602C70B08850
:109F500069460DF001FC8046B8F1000F28D1012CB4
:109F600001D0022C1DD13879002813DD9DF80000A6
:109F7000C0F3400030B12B46002221463846FFF79F
:109F8000C8FF15E02B464FF4847221463846FFF790
:109F9000C0FF0DE02B46002221463846FFF7B9FFEF
:109FA00006E02B464FF4837221463846FFF7B1FF97
:109FB0002046BDE8F883000001490249016070476E
:109FC000A4B6030030B7030070472DE9F041044602
:109FD0000D4616461F46DDF818803DB12A20005D6B
:109FE00020F0080008302A21085505E02A20005DED
:109FF00020F008012A2001553EB12A20005D20F002
:10A00000100010302A21085505E02A20005D20F0BC
:10A0100010012A2001552D20005D20F008012D207F
:10A02000015500BF14F82B0F20F00F00401C2070CA
:10A03000207820F0F000103004F82B0900BF3FB169
:10A040002D20005D20F0100010302D21085505E076
:10A050002D20005D20F010012D20015541462046A5
:10A0600000F09EF8BDE8F08130B552B12A24245C9E
:10A0700024F00104641C2A252C54012480F84A4051
:10A0800007E02A24245C24F001052A24255480F8C2
:10A090004A1000F1440404631C3C44630125058715
:10A0A000002545878187036430BD70B5049C462533
:10A0B0002A54A0F8441003618482C4820026C66139
:10A0C0008661466270BDF0B505AC70CC077B27F0A9
:10A0D00010070773077B27F02007077343B1012799
:10A0E00080F84970077B27F010071037077308E0E6
:10A0F0003CB1022780F84970077B27F02007203702
:10A100000773077B62F341070773077B65F3C30798
:10A110000773077B61F38207077303B914B100F17A
:10A120002B0700E0002707622A273F5C66F34207FF
:10A1300080F82A70F0BD000070B504460D46231D5E
:10A1400004F1300204F10C012846AADF064626B1CC
:10A150000349532006F004FC00E000BF304670BD08
:10A160003CC303002DE9F8430446884615461E46C5
:10A1700032462946204600F01EF9074667B994F892
:10A18000480050B1009694F849202B46414620469D
:10A1900000F049F9074600E000BF3846BDE8F88303
:10A1A000027BC2F340025AB900BF10F8282F22F0F8
:10A1B0000F020270027822F0F00200F8282938E03D
:10A1C0002A22125CC2F3C00202B169B900BF10F8C2
:10A1D000282F22F00F02521C0270027822F0F002A7
:10A1E000103200F8282924E0012902D002291ED1CA
:10A1F0000EE000BF10F8282F22F00F02521C027050
:10A20000027822F0F002203200F8282900BF0FE087
:10A2100000BF10F8282F22F00F02521C02700278A3
:10A2200022F0F002303200F8282900BF00E000BF21
:10A2300000BF027BC2F3C00262B900BF2922125CD8
:10A2400022F00F0329221354125C22F0F00329227A
:10A2500013543BE02A22125CC2F3001202B171B91E
:10A2600000BF2922125C22F00F02521C29231A542B
:10A270002922125C22F0F00210321A5426E0012941
:10A2800002D0022920D10FE000BF2922125C22F067
:10A290000F02521C29231A542922125C22F0F002C8
:10A2A00020321A5400BF10E000BF2922125C22F0B5
:10A2B0000F02521C29231A542922125C22F0F002A8
:10A2C00030321A5400BF00E000BF00BF027BC2F36F
:10A2D000001282B9027BC2F3401262B900BF2C2285
:10A2E000125C22F00F032C221354125C22F0F003B4
:10A2F0002C22135444E02A22125C53082D22125CB3
:10A3000063F342022D231A542D22125CC2F3001271
:10A3100002B171B900BF2C22125C22F00F02521C54
:10A320002C231A542C22125C22F0F00210321A5400
:10A3300026E0012902D0022920D10FE000BF2C2203
:10A34000125C22F00F02521C2C231A542C22125C95
:10A3500022F0F00220321A5400BF10E000BF2C227D
:10A36000125C22F00F02521C2C231A542C22125C75
:10A3700022F0F00230321A5400BF00E000BF00BFEC
:10A380007047027BC2F300123AB9027BC2F340125B
:10A390001AB9002280F8482009E090F849200A40C4
:10A3A0000AB1012200E0002280F8482000BF704777
:10A3B0000146081D70472DE9FC4104460D4616462E
:10A3C0000C272A20005D00F0010010B1A08FA842E8
:10A3D00002DAA08FA8421ED100272A20005DC0F318
:10A3E000410001280ED1002000900190ADF80050EE
:10A3F0000196A1886A464FF6FF70ACDF074607B1A9
:10A4000000BF08E0A18F206CFCF760F82A463146B7
:10A41000206CFCF742F817B984F84A5000E000BFFE
:10A420003846BDE8FC812DE9F04385B005460C4671
:10A4300016461F46DDF830804FF0080904974FF6A6
:10A44000FF70844215D0002000900190029003908C
:10A45000A888ADF800008DF802600020ADF8040077
:10A4600004A80290CDF80C8069462046AEDF8146F4
:10A4700000BF484605B0BDE8F083000010B50446B3
:10A480000D482060002084F8480084F849001C2111
:10A4900004F10C00FCF71AF80020208584F82A004B
:10A4A000A4F82B0084F82D00142104F13000FCF7EF
:10A4B0000DF8204610BD000050B70300704770B57E
:10A4C00004460D46B4F880102A4604F58D6000F06D
:10A4D000BDFF70BD2DE9F04104460D461646002033
:10A4E000E067A06D816804F15800884794F80C0576
:10A4F00020F0010084F80C051D4A00211D4803F0DE
:10A50000B3F807461FB11CA16C2006F029FA35B13B
:10A510002968C4F882106968C4F886100CE05020DD
:10A52000A4F88200A0218420015300218620015339
:10A530004FF4C8718820015336B13168C4F88A10CD
:10A540007168C4F88E100CE01020A4F88A00202155
:10A550008C20015300218E2001534FF4C8719020AC
:10A56000015304F5916001F07DF9BDE8F081000030
:10A5700073040300C8B003002E2E5C2E2E5C6C69A1
:10A5800062726172795C6D64772D6E72665C636F66
:10A590006D6D6F6E5C626C655C706572697068652C
:10A5A00072616C636F6E74726F6C6C65722E637027
:10A5B0007000000070B505460C46082C03D02146FB
:10A5C000284600F05BF870BD1CB5044600BF206E45
:10A5D00000BF90F90410012902D0042908D100E03D
:10A5E00007E094F8970010B1204600F03AF900E037
:10A5F00000BF00BF01A80121017000BF00780090DA
:10A600009DF8001008461CBD70B504460E46154660
:10A61000A4F880500948006802F0C2FF0322D11F4D
:10A62000204600F0B4F820B905A140F21E2006F043
:10A6300097F90121204600F0CDFB70BDC8B00300A2
:10A640002E2E5C2E2E5C6C6962726172795C6D6478
:10A65000772D6E72665C636F6D6D6F6E5C626C659C
:10A660005C7065726970686572616C636F6E74723C
:10A670006F6C6C65722E6370700000002DE9F04104
:10A6800004460E46002511E0E9B2201D10F052FCF0
:10A6900058B1E9B2201D10F04DFC07460068324663
:10A6A000214683683846984700BF6D1C201D10F076
:10A6B0003DFCA842E8D8BDE8F0812DE9F041044610
:10A6C0000E4600251DE0E9B2201D10F033FCB8B1A4
:10A6D00056B9E9B2201D10F02DFC0746006821464E
:10A6E0000268384690470BE0E9B2201D10F022FCCA
:10A6F000074600683246214643683846984700BFFF
:10A700006D1C201D10F012FCA842DCD8BDE8F081C1
:10A710002DE9F04104460E46002511E0E9B2201D66
:10A7200010F008FC58B1E9B2201D10F003FC0746F8
:10A7300000683246214643693846984700BF6D1C81
:10A74000201D10F0F3FBA842E8D8BDE8F0810246D6
:10A750000B460BB900207047002114E002F29C5018
:10A7600050F82100984201D10120F4E702F29C50F8
:10A7700050F8210028B902F29C5040F82130012005
:10A78000E9E7481CC1B20129E8DB0020E3E72DE935
:10A79000F04704460D461746384602F003FE804651
:10A7A000012F04D0022F46D0032F4FD130E000BF3D
:10A7B00094F96401A84204D1454502D10120BDE8C5
:10A7C000F08704F5B07999F85C0074DF064600BFA5
:10A7D0000EB1082E1AD1294604F5B070FEF71EFE00
:10A7E00098B104F5B070FEF7CAFE81462A46494684
:10A7F000384602F059FE50B12EB90322002104F56B
:10A80000B070FEF79FFE0120D9E700E000BF1DE019
:10A81000454501D10120D2E7B4F880004FF6FF7121
:10A82000884206D0B4F880102A46384602F03CFE32
:10A83000C5E700BF0AE0454501D10120BFE7B4F8F4
:10A8400080102A46384602F02FFEB8E700BF0020ED
:10A85000B5E770B5044604F5B07595F85C0074DF93
:10A8600070BD10B50446204604F097FD00B904E021
:10A87000002104F58D6000F03FFE10BD2DE9F04190
:10A8800004460E461746002E1CD0012084F8960080
:10A89000012200212046FFF77AFF20B916A14FF4CC
:10A8A0001A7006F05DF822464FF4701121480068D6
:10A8B00002F0D0FE051E13D00FA140F26D2006F06D
:10A8C0004FF80DE094F8960050B90122511F204630
:10A8D000FFF75DFF20B908A140F2752006F040F8AF
:10A8E0003A46314604F5B070FEF72CFE054605B138
:10A8F00000BFBDE8F08100002E2E5C2E2E5C6C693E
:10A9000062726172795C6D64772D6E72665C636FE2
:10A910006D6D6F6E5C626C655C70657269706865A8
:10A9200072616C636F6E74726F6C6C65722E6370A3
:10A9300070000000C8B00300F7B50446002512E01F
:10A94000E9B2201D10F0F6FA60B1E9B2201D10F056
:10A95000F1FA06460068C76921463046DDE9012361
:10A96000B84700BF6D1C201D10F0E0FAA842E7D8E0
:10A97000FEBD70B505460C462CB9032200212846C1
:10A98000FFF77CFF70BD21462846FFF796FE00BF0B
:10A99000F8E700002DE9F84F04460820C4F85801F4
:10A9A000C4F85C0104F5AE7004F1D803021F04F191
:10A9B000A001009004F2D44001F0EEF805462DB15C
:10A9C00011A14FF4EB7005F0CBFF00E000BF04F5E0
:10A9D000B07A04F1A00604F1D808D4F85C91D4F858
:10A9E000587143463A4631460AF10800CDF80090C6
:10A9F00006F012FB054625B103A14FF4F17005F0F6
:10AA0000AFFFBDE8F88F00002E2E5C2E2E5C6C6927
:10AA100062726172795C6D64772D6E72665C636FD1
:10AA20006D6D6F6E5C626C655C7065726970686597
:10AA300072616C636F6E74726F6C6C65722E637092
:10AA4000700000002DE9F8430446884691464FF611
:10AA5000FF70A4F8800094F80C0500F00100C8B164
:10AA6000783494F8940420F0010084F8940400BF32
:10AA7000A0780546607806462078074694F8940446
:10AA8000783CC0F340002B463246394600902046C1
:10AA900000F0D4F80021204600F002FA012084F8EA
:10AAA00098000021204600F095F90322002120465D
:10AAB000FFF7E4FEBDE8F8832DE9F04F87B00446C8
:10AAC0000E4617461D46DDF840803A46314604F2F0
:10AAD000D44001F0D5FA069000200121CDE9011003
:10AAE000CDE903100091E06F08B1012000E00020E3
:10AAF000014600232A4604F5B070FEF7F5FB00BFBF
:10AB000094F96401814604F5B070FEF738FD824681
:10AB10004A465146012002F0C7FC20B927A14FF454
:10AB2000867005F01DFF04F5A26001F001FB4FF0F7
:10AB3000000913E004F29C5050F829A0BAF1000F6C
:10AB400008D000BF2C480079834659465046069AE3
:10AB5000FFF7CCF909F1010000F0FF09B9F1010F8D
:10AB6000E8DB204600F0CDF92B463A463146204638
:10AB7000CDF8008000F062F804F58D6000F026FC4E
:10AB800004F26C40224600210EE050F8213093423E
:10AB900000D10CE050F821302BB940F82120037986
:10ABA0005B1C037103E0491C0129EEDB00BF00BF01
:10ABB0000CF064FE00BF07B0BDE8F08F2E2E5C2EB7
:10ABC0002E5C6C6962726172795C6D64772D6E7255
:10ABD000665C636F6D6D6F6E5C626C655C706572F8
:10ABE0006970686572616C636F6E74726F6C6C65AE
:10ABF000722E6370700000003C360020F8B50446E9
:10AC000000BF7834A07805466078064614F87809C5
:10AC1000074600202B463246394600902046FFF773
:10AC20004BFFF8BD2DE9F04105460E4617461C4680
:10AC30002146284600F0AFF8BDE8F0812DE9FF4736
:10AC400004460E4617461D46DDF8308004F16400C8
:10AC500006754775857500BF204604F09EFB88B1D8
:10AC600094F80C0520F00100401C84F80C0594F8C1
:10AC70000C0568F3410084F80C0500212046FFF71D
:10AC80001EFC42E004F2D44080F8255000BF0023AF
:10AC90003A46314601F06CF98146B9F1000F04D013
:10ACA0001BA140F24D1005F05BFE204600F04FF96D
:10ACB000B8F1000F0DD0002104F19200CDE90001A0
:10ACC00004F18A03224604F58D60E16F00F048FA32
:10ACD0000DE004F18A0004F19201CDE9001004F1C5
:10ACE0008203224604F58D60E16F00F039FA0120FD
:10ACF00000210090CDE901010B460A462946039048
:10AD000004F5B070FEF7A3FB00BFBDE8FF870000AD
:10AD10002E2E5C2E2E5C6C6962726172795C6D64A1
:10AD2000772D6E72665C636F6D6D6F6E5C626C65C5
:10AD30005C7065726970686572616C636F6E747265
:10AD40006F6C6C65722E6370700000002DE9F0412D
:10AD500004460D4617462E460121304600F04FFCB2
:10AD600008B9012000E0002058B102212046FFF779
:10AD7000CFFC1420A4F894000121204600F090F8A4
:10AD800007E00021204600F08BF800212046FFF765
:10AD9000BFFCBDE8F0812DE9F04104460E460025D8
:10ADA00011E0E9B2201D10F0C5F858B1E9B2201D3C
:10ADB00010F0C0F8074600683246214683693846DD
:10ADC000984700BF6D1C201D10F0B0F8A842E8D8CD
:10ADD000BDE8F0812DE9F04104460E4600251CE057
:10ADE000E9B2201D10F0A6F8B0B156B1E9B2201DAD
:10ADF00010F0A0F8074600682146C2683846904720
:10AE00000AE0E9B2201D10F095F8074600682146D7
:10AE100002693846904700BF6D1C201D10F086F86F
:10AE2000A842DDD8BDE8F08170B50446002084F862
:10AE3000960004F5B07505F1080005F0C7FF00BFE6
:10AE4000204604F0AAFA20B9032200212046FFF789
:10AE500015FD70BD0FB470B504460D46164620466C
:10AE6000DDE90712FFF768FD9DF81C0018B100210D
:10AE70002046FFF724FB70BC5DF814FB10B50446B8
:10AE800001212046FFF71BFB10BD70B505460E469D
:10AE900014460B2C03D101212846FFF710FB70BD8F
:10AEA00070B504460D46BDB194F8970040BB012033
:10AEB00084F8970094F8980068B1A06DC16904F116
:10AEC00058008847064604F1580344F620620121E1
:10AED00004F052F914E013E094F8970080B10020D8
:10AEE00084F89700A06DC16904F1580088470646B0
:10AEF00004F15802012104F04FF90020A4F8940055
:10AF000070BD2DE9F047054600261CE005F29C5077
:10AF100050F82640ACB100BFA07A90B100BFA07A33
:10AF2000012801D0012000E000208146277A00BFDF
:10AF3000B4F806804B463A46414605F5B070FEF738
:10AF4000CAFA701CC6B2012EE0DBBDE8F0872DE91D
:10AF5000F0410446002510E004F29C5050F82560B2
:10AF60004EB1374694F8F804804638684146026985
:10AF70003846904700BF681CC5B2012DECDBBDE828
:10AF8000F08138B504460D46E56704F19901E06F9C
:10AF9000FEF748FF00B900BF0020009001232246C1
:10AFA00004F2D440E16F00F01DFD04F2145022467B
:10AFB000002110E050F82130934200D10EE050F80B
:10AFC00021303BB940F8212090F830305B1C80F8EC
:10AFD000303003E0491C0C29ECDB00BF38BD70B5F4
:10AFE00004460D4604F1640000BF064618222946B7
:10AFF000FBF753FA70BD000010B50446201D002178
:10B0000003E0002240F82120491C0C29F9DB002133
:10B0100080F83010041F2B49216004F138002A49C0
:10B02000A1630021017700BFA0F1380404F15800AA
:10B03000FDF756F8A0F15804244820603430A0638E
:10B040001830A06504F1640000214182017541754A
:10B05000012181750021C17500BFA0F164044FF684
:10B06000FF70A4F8800004F5B070FEF7E7FAA0F5D1
:10B07000B07404F58D6000F0D9FBA0F58D6404F583
:10B08000916000F097FCA0F5916404F2D44001F0C7
:10B0900029F8A0F2D44404F5A26001F011F9A0F55A
:10B0A000A264002006E0002204F29C5141F8202016
:10B0B000411CC8B20128F6DB002084F89700204626
:10B0C00010BD000010B70300DCB8030088B7030010
:10B0D00070B50446204600F005F8054604F051FA24
:10B0E00070BD000010B50446194820603430A063DC
:10B0F0001830A06504F5A26001F0F6F8A0F5A2648E
:10B1000004F2D44001F004F8A0F2D44404F59160B4
:10B1100000F064FCA0F5916404F58D6000F09EFBE6
:10B12000A0F58D6404F5B070FEF7D2FAA0F5B07406
:10B1300004F15800FCF7F1FFA0F1580404F13800C5
:10B1400000BFA0F13804201D00BF041F204610BD21
:10B1500088B703000149016070470000FCB7030095
:10B160002DE9F04704460D4617469846DDE9089A52
:10B17000E760F5B1281D2246002112E050F8213089
:10B18000934201D101230FE050F8213043B940F838
:10B19000212090F830305B1C80F83030012303E030
:10B1A000491C0C29EADB00231BB907A17E2005F00E
:10B1B000D7FB53464A464146204600F097FA0646DA
:10B1C00006B100BFBDE8F0872E2E5C2E2E5C6C69A8
:10B1D00062726172795C6D64772D6E72665C636F0A
:10B1E0006D6D6F6E5C626C655C6761702E63707014
:10B1F000000000002DE9FF4105460C461746208857
:10B20000222843D014DC13285AD008DC01286DD042
:10B21000102820D0112825D0122872D140E01528FE
:10B220004FD019285BD01B2839D02128F5D121E037
:10B230003B2867D008DC232865D0242873D0252834
:10B240006ED02628E9D1A3E051287AD052286BD0BD
:10B250005628E2D19AE000202875A188284600F0FF
:10B260001DF997E0A188284600F07EF9284600F0F5
:10B2700035F98FE000200390A08803A98FDF0646F0
:10B280001EB146A1F32005F06BFB83E0207A00B9E4
:10B2900004E042A140F2031005F062FB7AE079E09D
:10B2A00004F108007ADF064606B900E000BFA18875
:10B2B000284600F039F9002068740120287569E0FB
:10B2C00068E0002002900390A1680291A089ADF887
:10B2D0000C00A18802AA284600F06EF95AE0A18865
:10B2E0002846D4E9022300F0C5F953E0A0880021E4
:10B2F00066DF064626B129A140F24D1005F030FB6D
:10B3000048E046E041E0A0880022114690DF064672
:10B3100026B122A140F2611005F022FB3AE002E0E2
:10B3200035E00EE000E035E0A08800231A4619461B
:10B33000B1DF064626B119A140F2791005F010FBE5
:10B3400028E0A07900B3A07B042805D0A07B0628C4
:10B3500002D0A07B052817D1A079022802D18DF850
:10B36000000002E001208DF800004FF4C170ADF83C
:10B370000400A0886946B0DF064626B107A14FF455
:10B38000CA7005F0EDFA00BF04E003E002E001E05E
:10B3900000E000BF00BFBDE8FF8100002E2E5C2E44
:10B3A0002E5C6C6962726172795C6D64772D6E726D
:10B3B000665C636F6D6D6F6E5C626C655C6761701F
:10B3C0002E637070000000007047000030B587B039
:10B3D00005461C216846FBF779F8002000904FF4E1
:10B3E000F02001904000029003208DF80C00002016
:10B3F000ADF80E008DF8100007480590074806903C
:10B40000684605F0E3FE04461CB105A19D2005F049
:10B41000A7FA07B030BD0000716403005D6403004B
:10B420002E2E5C2E2E5C6C6962726172795C6D648A
:10B43000772D6E72665C636F6D6D6F6E5C626C65AE
:10B440005C6761702E637070000000002DE9F041B0
:10B4500080460D461646132706B13B273946284637
:10B4600076DF044604B100E000BFBDE8F0810000D3
:10B4700070B50446E07C60B922464FF400410648AE
:10B48000006802F0E7F8054605B170BD0120E074E0
:10B4900000BF00BFF9E70000C4B003002DE9F04190
:10B4A00004460E46002512E02946201D0FF01AFD25
:10B4B00058B12946201D0FF015FD07460068324699
:10B4C000214683683846984700BF681CC5B2201DD6
:10B4D0000FF004FDA842E7DCBDE8F08110B504469A
:10B4E000E07C28B90020E0740248006802F058F8B7
:10B4F00010BD0000C4B0030070B504460D46A5742D
:10B50000607C18B12046FFF7B3FF0CE029462046C7
:10B5100000F075F8072805D101206074204600F07E
:10B5200094F800E000BF70BD2DE9F04104460E46DE
:10B53000002512E02946201D0FF0D4FC58B1294601
:10B54000201D0FF0CFFC07460068324621460368F5
:10B550003846984700BF681CC5B2201D0FF0BEFCDE
:10B56000A842E7DCBDE8F0812DE9F04104460E4633
:10B57000002512E02946201D0FF0B4FC58B12946E1
:10B58000201D0FF0AFFC0746006832462146C36815
:10B590003846984700BF681CC5B2201D0FF09EFCBE
:10B5A000A842E7DCBDE8F08110B504460020E07455
:10B5B000204600F04AF810BD2DE9F04104460E4641
:10B5C0001746002514E02946201D0FF08BFC68B1BA
:10B5D0002946201D0FF086FC804600683B46324617
:10B5E0002146D0F810C04046E04700BF681CC5B2F5
:10B5F000201D0FF073FCA842E5DCBDE8F0817CB5AE
:10B6000004460D4668467BDF0646D6B9A06915B1EB
:10B61000E16901B1E069BDF80010028891420EDBDA
:10B62000BDF800104288914209DCBDF80210028882
:10B63000914204DBBDF802104288914200DD0726EA
:10B6400001E030467CBD3046FCE770B50446207D05
:10B6500060B100202075A17C204600F031F805463D
:10B66000112D02D12046FFF703FF02E02046FFF72D
:10B67000FFFE70BDFFB581B004460E46002518E000
:10B680002946201D0FF02EFC88B12946201D0FF001
:10B6900029FC0746BDF81000ADF800003868D0F866
:10B6A00014C0324621463846039BE04700BF681C61
:10B6B000C5B2201D0FF012FCA842E1DC05B0F0BDC0
:10B6C0002DE9F04104460D46A76915B1E06900B1C6
:10B6D000E769E068B0F8801088463946404605F0D2
:10B6E00053FD06463046BDE8F08100002DE9F047E5
:10B6F00086B00446884615469946002600BF28783D
:10B7000020F00F00401C2870287820F0F000103046
:10B71000287000BF0827142101A8FAF7D7FEE068B7
:10B7200000F199018A46781D122800DD0D273A465E
:10B7300022A101A8FAF7B1FE9AF805309AF806207E
:10B7400001A9C81920A103F053FF01A921A001F00C
:10B7500016FE7A1D01A928467CDF064626B126A1E1
:10B760004FF4F97005F0FCF8802078DF064626B12A
:10B7700021A14FF4087005F0F3F8C4F81880C4F85C
:10B780001C90A0697ADF064626B11BA140F22A2050
:10B7900005F0E6F8207C68B9224A0021224801F031
:10B7A00063FF064626B114A140F2372005F0D8F811
:10B7B00001202074304606B0BDE8F087486561740A
:10B7C000466C6F770000000020253032582530325B
:10B7D000580000005B4761705D205F676170496ED3
:10B7E00069742829203E206465766963654E616D21
:10B7F000653A2025730D0A002E2E5C2E2E5C6C6996
:10B8000062726172795C6D64772D6E72665C636FD3
:10B810006D6D6F6E5C626C655C6761702E637070DD
:10B8200000000000351A0300C4B00300094901609C
:10B83000011D002203E0002341F82230521C012A9E
:10B84000F9DB00220A71081F034901600021C16071
:10B8500001747047A4B603000CB80300011D00BFBB
:10B86000081F704770B50446134904F1380009F009
:10B8700025F905461DB111A1492005F071F8F72100
:10B8800004F1380009F00BF905461DB10BA1502059
:10B8900005F066F81448007800F0010050B912482D
:10B8A00003F07DFF30B104F13800104948600E48C4
:10B8B000AFF3008070BD0000856403002E2E5C2E67
:10B8C0002E5C6C6962726172795C6D64772D6E7248
:10B8D000665C636F6D6D6F6E5C626C655C676174F6
:10B8E000742E6370700000006C3600205438002005
:10B8F00070B505460E4614462088A0F6772020B184
:10B90000A0F55040033860B905E0A2886188284658
:10B9100000F00AF806E022796188284600F027F84E
:10B9200000E000BF00BF70BD2DE9F04104460E46A7
:10B930001746002514E02946201D0FF0E5FA68B1EE
:10B940002946201D0FF0E0FA804600683B4632464B
:10B950002146D0F800C04046E04700BF681CC5B291
:10B9600000BF94F83400A842E5DCBDE8F0812DE981
:10B97000F04104460E461746002514E02946201DD6
:10B980000FF0C2FA68B12946201D0FF0BDFA8046BB
:10B9900000683B4632462146D0F804C04046E047A6
:10B9A00000BF681CC5B200BF94F83400A842E5DCB3
:10B9B000BDE8F0810146081D002203E0002340F8A5
:10B9C0002230521C0C2AF9DB002280F83020011FA3
:10B9D000014808600846704724B80300011D00BFF5
:10B9E000081F70472DE9F04704460D4616461F46CE
:10B9F000DDF820904FF00008281D2246002112E0BB
:10BA000050F82130934201D101230FE050F821304A
:10BA100043B940F8212090F830305B1C80F830307A
:10BA2000012303E0491C0C29EADB002303B900BF12
:10BA30004FF6FF70E081666094F8260068B90BF05D
:10BA4000E9FE8046B8F1000F04D010A1732004F085
:10BA500087FF02E0012084F8260017B1204600F09D
:10BA600019FB94F8270078B914480CF007FA8046BF
:10BA7000B8F1000F04D005A1872004F071FF03E0A6
:10BA8000012084F8270000BFBDE8F0872E2E5C2E31
:10BA90002E5C6C6962726172795C6D64772D6E7276
:10BAA000665C636F6D6D6F6E5C626C655C73656325
:10BAB00075726974792E637070000000C1720300A2
:10BAC0000B88192B05D0762B10D14FF6FF73C3814D
:10BAD00000BF0B7A23B1812B03D0842B03D101E06B
