:020000040002F8
:10600000D0990020C9630200D1630200C96D02006B
:10601000D5630200D7630200D963020000000000CC
:10602000000000000000000000000000DB63020030
:10603000DD63020000000000DF630200E163020094
:10604000E3630200E363020085750200BD71020094
:10605000E3630200E3630200656C0200316E02003C
:10606000E363020035750200E3630200E3630200AC
:10607000E3630200E3630200E3630200E363020000
:1060800091750200FD6D0200E3630200E36302000C
:1060900001720200E363020005720200E363020082
:1060A000E3630200E3630200E3630200E3630200D0
:1060B000CD6D0200E363020000000000000000005C
:1060C000E3630200DD6D0200ED6D0200E363020098
:1060D000216E0200E3630200E3630200000000009F
:1060E00000000000000000000000000000000000B0
:1060F00000000000000000000000000000000000A0
:10610000000000000000000000000000000000008F
:10611000000000000000000000000000000000007F
:10612000000000000000000000000000000000006F
:10613000000000000000000000000000000000005F
:10614000000000000000000000000000000000004F
:10615000000000000000000000000000000000003F
:10616000000000000000000000000000000000002F
:10617000000000000000000000000000000000001F
:10618000000000000000000000000000000000000F
:1061900000000000000000000000000000000000FF
:1061A00000000000000000000000000000000000EF
:1061B00000000000000000000000000000000000DF
:1061C00000000000000000000000000000000000CF
:1061D00000000000000000000000000000000000BF
:1061E00000000000000000000000000000000000AF
:1061F000000000000000000000000000000000009F
:10620000DFF814D000F0A6FC00F078F90048004751
:106210001502030000F05BFAD099002030B450E87A
:10622000012F93B2C48923448489A34228BF1B1B36
:106230000489A34202BFBFF32F8F002007E0C3EA07
:10624000020340E80134002CE9D14FF001000A605C
:1062500030BC704750E8012FC2EA024240E80121F9
:106260000029F7D1704730B450E8022F1FFAA2F38B
:10627000C488A34202BFBFF32F8F00200DE0C48962
:1062800023448489A34228BF1B1BC2EA034340E87E
:106290000234002CE8D14FF001000A6030BC704796
:1062A00050E8022FC2EA224240E802210029F7D139
:1062B0007047034653E8022FD988B2EB324F4FF0B4
:1062C000000017BF92B241EA014142EA014104E0F5
:1062D0005A68B2EB324F08BF012043E80212002A8D
:1062E000E8D1704730B4044654E8000F0D4644E846
:1062F0000053002BF8D1156030BC704730B4044611
:1063000054E8000F40EA010544E80053002BF7D1A0
:10631000156030BC704730B4044654E8000F00EA02
:10632000010544E80053002BF7D1156030BC7047DD
:1063300030B4044654E8000F80EA010544E80053F5
:10634000002BF7D1156030BC704730B4044654E8D8
:10635000000F00EB010544E80053002BF7D1156056
:1063600030BC704730B4044654E8000FA0EB010580
:1063700044E80053002BF7D1156030BC704770B46F
:1063800004464FF0000054E8006F0D68AE4207BFAE
:1063900044E80023012044E800630E60002B1CBF8A
:1063A0000020F0E770BC704730B4044654E8000F9A
:1063B00088422CBF451A054644E80053002BF5D10E
:1063C000156030BC7047000006488047064800470B
:1063D000FEE7FEE7FEE7FEE7FEE7FEE7FEE7FEE795
:1063E000FEE7FEE7257202000162020010B505F02B
:1063F00021FEBDE8104005F02DBD2DE9F05F0546FA
:10640000002092469B4688460646814640241BE073
:10641000284641464746224600F043F953465A462D
:10642000C01A914110D311461846224600F016F8C2
:106430002D1A67EB01084F4622460120002100F08B
:106440000DF817EB00094E41201EA4F10104DFDC1A
:10645000484631462A464346BDE8F09F202A04DBE1
:10646000203A00FA02F1002070479140C2F1200367
:1064700020FA03F319439040704740EA01039B0759
:1064800003D009E008C9121F08C0042AFAD203E0A9
:1064900011F8013B00F8013B521EF9D27047D2B20D
:1064A00001E000F8012B491EFBD270470022F6E7FD
:1064B00010B513460A4604461946FFF7F0FF20467A
:1064C00010BD421C10F8011B0029FBD1801A704737
:1064D00030B504460020034600E05B1C934203D223
:1064E000E05CCD5C401BF8D030BD034611F8012BB9
:1064F00000F8012B002AF9D11846704770B5054CF9
:10650000054D03E0206820448047241DAC42F9D1AA
:1065100070BD0000684A03007C4A03002DE9F04189
:10652000074615460E46102009F094FE04000AD0D6
:106530006760C4E9026500F0C5F801682160046085
:106540000020BDE8F0810120FBE72DE9FE4F81EA44
:10655000030404F0004421F0004100944FF0000BCC
:1065600023F0004350EA01045ED052EA03045BD0FA
:10657000C3F30A54C1F30A552C44A4F2F334019432
:10658000A0FB0254C1F3130141F48011C3F31303C0
:1065900043F4801301FB024400FB034E840A970A74
:1065A00044EA815447EA8357A4FB076802958D0AA1
:1065B00005FB07854FEA932C04FB0C542705029D2D
:1065C0004FEA065847EA1637B5EB08056EEB070C9D
:1065D000870E920E47EA811742EA8312A7FB020157
:1065E000B6EB0B0164EB00042B0D43EA0C335E1891
:1065F00044EB1C50DA465146E7FB0201C5F3130495
:106600004FEA0B3343EA14534FEA0432019C43EA46
:106610000603A4F10C040294009CCDE900B400F040
:10662000BDF803B0BDE8F08F00200146F9E730B4B3
:10663000044696230800214604D0B62330BC00222D
:1066400000F06FB820460021F8E720F00040C20DAE
:10665000C0F3160040F400007F2A02DA0020014651
:1066600070470021962A03DCC2F19602D0407047A1
:10667000963AFFF7F3BE30B50B46014600202022C4
:10668000012409E021FA02F59D4205D303FA02F53F
:10669000491B04FA02F52844151EA2F10102F1DC9F
:1066A00030BD202A04DB203A21FA02F00021704795
:1066B00021FA02F3D040C2F120029140084319466A
:1066C00070470000004870470C38002070472DE9E3
:1066D000F0410646FFF7F6FF8046454613E016B147
:1066E000E068B0420ED120682860D4E90101D8F8F2
:1066F00000708847204608F053FDD8F80000B842E3
:10670000EBD100E025462C68002CE8D1BDE8F081F3
:106710000029A8BF7047401C490008BF20F00100B5
:10672000704710B4B0FA80FC00FA0CF050EA010493
:1067300004BF10BC704749B1CCF1200421FA04F425
:1067400011FA0CF118BF012121430843A3EB0C01FE
:10675000CB1D4FEA00614FEA102042BF002010BC61
:10676000704700EBC35010440029A4BF10BC704711
:10677000401C490008BF20F0010010BC704710B554
:10678000141E73F1000408DA401C41F10001921854
:106790005B411A4301D120F0010010BD2DE9F04DFD
:1067A00092469B4611B1B1FA81F202E0B0FA80F252
:1067B00020329046FFF752FE04460F4640EA0A0098
:1067C00041EA0B0153465A46084313D0114653EA97
:1067D000010019D0C8F140025046FFF762FF05469C
:1067E0000E46504659464246FFF738FE084305D04C
:1067F000012004E020463946BDE8F08D0020054325
:1068000046EAE0762C4337430A986305E40AA0EB96
:1068100008000022FD0A44EA47540A3002D500204D
:106820000146E9E7010510196941DDE9084500194C
:106830006941BDE8F04DA2E72DE9FE4F804681EAAF
:106840000300C00F0C46009021F0004123F00045EA
:10685000B8EB0200A94105D24046214690461C46AD
:106860000B46024623F00040104347D0270DC7F3E4
:106870000A00C3F30A510290401A019040286BDAD3
:10688000C3F3130040F4801B0098924620B100230C
:10689000D2EB030A63EB0B0B01985946C0F140029F
:1068A0005046FFF7DBFD06460D4650465946019A15
:1068B00000F062F910EB08006141002487EA1152F0
:1068C00084EAE7731A4340D0009A62B3019A012A1E
:1068D0004FEA075215DC001B61EB02014FF000424A
:1068E00002EA0752CDE90042001C41F58011324610
:1068F0002B46FFF753FF03B0BDE8F08F404621461B
:10690000F9E7001B61EB0201001C41F58013001840
:106910005B412018A2F5001747EB030140EAD57050
:10692000B6196D4111E06D084FEA360645EAC075AB
:106930004FEA0752001B61EB0201001C41F5801178
:1069400049084FEA30000019514132462B4603B046
:10695000BDE8F04FFFF713BF00980122400000236D
:10696000D0EB020263EBE073009821464FEAE0743B
:10697000B8EB000061EB0401E9E783F000435BE75B
:1069800081F0004158E72DE9F04D81EA030404F05D
:10699000004B21F0004514464FF0000A23F000415F
:1069A00050EA050220D054EA01021DD0C5F30A576F
:1069B0000246C5F31303C1F31300C1F30A5640F4B2
:1069C000801543F48013A7EB0608101BD64608F287
:1069D000FD3873EB050002D308F1010801E09218BD
:1069E0005B41B8F1000F03DA00200146BDE8F08DED
:1069F00000204FF48011064684460EE0171B73EB0F
:106A0000050705D3121B63EB050306434CEA010C93
:106A100049084FEA300092185B4150EA0107EDD176
:106A200052EA030012D082EA040083EA0501084317
:106A300005D0101BAB4106D20122002306E0002244
:106A40004FF0004302E06FF0010253101AEB060012
:106A50004CEB085110EB0A0041EB0B01BDE8F04D87
:106A6000FFF78DBEC1F30A52C1F3130140F2FF33A9
:106A700041F480119A4202DA00200146704740F248
:106A800033439A42A2F2334202DC5242FFF709BE7C
:106A9000FFF7E4BC30B5041E71F1000404DB4FF0D5
:106AA0000044404264EB0101141E73F1000405DB55
:106AB0001C464FF00043524263EB0403994208BF67
:106AC000904230BD00F011B82DE9F04117460E4656
:106AD000054633B107FB0354E41B2046B047A542EB
:106AE000FAD1A5F10800BDE8F08110B500F00DF86D
:106AF000016919B100220261884701E0806880477E
:106B0000AFF3008010B5AFF3008070B500F04AF825
:106B100004680546A4B9202009F09CFB040011D0AC
:106B2000094900202C60C4E900010849A1602073D4
:106B3000206160610649A06109B100F04AF8E06196
:106B4000204670BDAFF3008000000000056B02001E
:106B500000000000064C074D06E0E06840F001032D
:106B600094E8070098471034AC42F6D3FFF74CFB8B
:106B7000F8490300184A0300202A06DBCB17203A05
:106B800041FA02F043EAE07306E041FA02F3D04032
:106B9000C2F1200291400843194670477047000037
:106BA000034870470248001D011F8860001D7047A0
:106BB000103800202DE9F04116461F460C46851B73
:106BC00002E02846B847AD1B641EFAD2BDE8F0814A
:106BD00000DE10B5882009F03DFB002801D000211F
:106BE000017010BD802902D808B1017809B10020D8
:106BF0007047012100F8081B704718B100F1080226
:106C0000914201D00020704700210170704770B59B
:106C10008C1810F8015B15F0070301D110F8013B47
:106C20002A1106D110F8012B03E010F8016B01F8CE
:106C3000016B5B1EF9D12B0705D40023521E0DD426
:106C400001F8013BFAE710F8013BCB1A921C03E074
:106C500013F8015B01F8015B521EF9D5A142D8D3AC
:106C6000002070BD2DE9F04700268AB0DFF8509172
:106C7000B0464FF48075012437460696284609F041
:106C80009FFE38B1D9F80403204203D0284609F00A
:106C90008DFE26432D1D64007F1CADB2082FEDD361
:106CA0004FF4BE74204609F08BFE48B1204609F02F
:106CB0007DFE46F0004606AA0121002009F062FE92
:106CC000404D16F0FF0F15D00127002437420DD09C
:106CD00009EB8401D1F81005D1F81015C0F3042098
:106CE00055F82420C1F3014102B190477F00641C94
:106CF000082CEBD3002E5FDA4FF0FF30CDF8108078
:106D000054E0281910F8587F90F9000027F0C008C7
:106D1000401C3BD007A9404609F044FC10B34FEAA1
:106D20009719404607F096FB55F820701FB1B9F14E
:106D3000030F03D006E0B9F1030F27D104A94046A1
:106D400009F038FC4FF0A04101EB8800D0F80007B3
:106D500006A9C0F3014A404609F024FC18B1BAF173
:106D6000020F03D012E0BAF1030F0FD1B9F1030FF4
:106D700008D1BAF1020F1DD00221404609F0E9FD09
:106D8000761CF6B217B149464046B847641C062C3B
:106D9000B7D3002E10D06A460121002009F0F2FD81
:106DA00006990098884207D0069004980026344639
:106DB0000790A6E70321E0E70AB0BDE8F0870000EE
:106DC00000600040A4480020FEE70000014902489E
:106DD00008F0E6BF0849002000C001400149024810
:106DE00008F0DEBF104900200010024001490248AF
:106DF00008F0D6BF184900200020024007480021B3
:106E0000C0F84011C0F84411C0F84811C0F84C1146
:106E1000C0F80011C0F804110CF0D6BB00100140FE
:106E200004220021014809F009B800000040024096
:106E30002DE9FE434FF48278404609F0EDFD4C4FBA
:106E400000254C4C012600B3404609F0EDFD94F8B6
:106E50002E0010B194F82F10D1B18DF80050616858
:106E600001912189ADF80810E26832B1218B61836C
:106E700062602181E56010B102E0257400E03E60AF
:106E800021686846884784F82F5094F82E0060B334
:106E90004FF48077384609F0BFFD30B3384609F02B
:106EA000C3FD628B94F82D108A420AD9A2EB01002F
:106EB00080B260832289A2EB0000626802EB40008E
:106EC00005E007D1E06828B184F82F60658309F0F8
:106ED00091FD04E08A4202D184F82F606583404628
:106EE00009F0A2FD2248001D06604FF4887738465D
:106EF00009F092FD48B1384609F096FD257402204C
:106F00008DF800002168684688474FF48A77384634
:106F100009F082FD28B1384609F086FD2574BDE8E8
:106F2000FE834FF000484FF48C7967691DE000BF85
:106F3000B7FA87F028FA00F109EB80058F4328465D
:106F400009F06AFD88B1284609F06EFDA5F58C753B
:106F5000E8088DF8040045F38000401C8DF80060BF
:106F60008DF80500216868468847002FE0D1D6E7F4
:106F70000070004020490020F8B50D4B064614462D
:106F800018780D4608B900F01BFB00208DF80000B2
:106F9000684606F0D7F922462946304600F00AF83E
:106FA00004469DF8000006F0F1F92046F8BD000007
:106FB000404C002070B50E46144900EB400001EB38
:106FC000C0051446E86A183520B101280FD0022800
:106FD00005D113E0284600F027FBA04201D200248F
:106FE00011E022463146284600F044FC0BE02846DA
:106FF00000F01AFBA042F4D20446F2E731462846DC
:1070000000F00BFC0446204670BD0000404C002000
:107010000FB408B504A900916A46039900F003F87B
:1070200001B05DF814FB2DE9F04198B0064607A8C1
:10703000029040200025CDE90305CDE90556904694
:107040000C4614F8011B002973D0252908D002A88A
:1070500000F0C4FB05980028F3DA18B0BDE8F08111
:10706000002001212278232A1ED02B2A19D02D2A74
:1070700002D0302A08D102E040F0010001E040F0E7
:107080000200641C0029EDD100222178A1F1300317
:107090000A2B0CD202EB820201EB4202303A641C52
:1070A000F3E740F00400ECE740F00800E9E70023D4
:1070B000CFB22E2F0BD114F8011FA1F130070A2FE8
:1070C00005D203EB830301EB4303303BF3E76C2969
:1070D0000DD068290BD0702954D00BDC252916D08F
:1070E000582931D063290CD0642913D114E014F845
:1070F000011FECE7732934D075291BD0782909D1F9
:1071000022E0D8F80000011DC8F80010017802A89C
:1071100000F064FB641C9DE7D8F800100F1DC8F850
:1071200000700968CDE900200A2202A800F088FA60
:10713000F0E733E0D8F800100F1DC8F800700968B8
:10714000CDE900200A2208E0D8F800100F1DC8F889
:1071500000700968CDE90020102202A800F0D4FADE
:10716000D8E7D8F80000011DC8F80010076817F824
:10717000011B0029CED002A800F030FB05980028A2
:10718000F5DAC7E7D8F80000011DC8F8001001685B
:107190000820CDE9000503461022DEE70598002807
:1071A0007FF75BAF049820B1024607A93046FFF78E
:1071B000E3FEDDE90410084405904EE738B50E48BB
:1071C0000E4C0025C0F80851D0F808110091214656
:1071D0000CF03EFA00280ED1A07FFF2801D009F064
:1071E000C9FB65772572D4E9002101B004F10800DC
:1071F000BDE83040104738BD003000405049002005
:107200000CF030B910B50021054A084605F07CFFA6
:10721000002803D0BDE8104005F06ABF10BD000093
:10722000C5D30200F0B5B2480023021D0178101D3D
:1072300001254FF0805406290BD11678360708D166
:107240000678C6F30316032E06D0042E04D0052EAE
:1072500002D0062907D00EE0B4F82463A54FC6F388
:1072600004263E6002E01678360704D10678C6F39D
:107270000316032E02D0062904D00FE09F4F9E4E26
:107280007E670EE01678360708D10678C6F3031637
:10729000032E06D0042E04D0052E02D0062907D0D6
:1072A0000EE0D4F84462964FC6F342363E6002E0E8
:1072B0001678360704D10678C6F30316032E02D0DB
:1072C000062906D011E08F4E376827F080773760A7
:1072D0000EE01678360708D10678C6F30316032E9B
:1072E00006D0042E04D0052E02D006290AD011E0C3
:1072F0004FF08046C6F80C31C6F81031804E361F6C
:10730000336002E01678360704D10678C6F3031618
:10731000032E02D0062905D00CE0794F03266437EE
:107320003E600AE01678360704D10678C6F30316E5
:10733000032E02D006290DD014E0734F05263E60BF
:10734000714E78363560704E083633603F263F1DEB
:107350003E6002E01678360704D10678C6F30316BD
:10736000052E02D0062957D062E0684E3668684F75
:107370003E60664E361D36683F1D3E60634E0836E1
:1073800036683F1D3E60614E0C3636683F1D3E60DC
:107390005E4E103636683F1D3E605C4E14363668D1
:1073A0003F1D3E60594E18363668594F20373E60B3
:1073B000564E1C3636683F1D3E60544E20363668A9
:1073C0003F1D3E60514E243636683F1D3E604F4E95
:1073D000283636683F1D3E604C4E2C3636683F1DC1
:1073E0003E604A4E30363668494F40373E60474E21
:1073F000343636683F1D3E60444E383636683F1D91
:107400003E60424E3C3636683F1D3E603F4E403641
:1074100036683F1D3E6002E01678360708D10678D0
:10742000C6F30316032E06D0042E04D0052E02D078
:10743000062907D019E0D4F85812364A01F04F0156
:10744000116002E0117809070FD10078C0F3031032
:10745000032803D0042801D0052806D12E4801684E
:10746000C90702D06FF001010160D4F8300106288D
:1074700008D1D4F83401062804D12848016841F421
:10748000806101601F487438016841F47001016037
:10749000BFF34F8FBFF36F8F4FF01021D1F80C0265
:1074A000C00720D01E4A15601E480468002CFCD07E
:1074B000D1F80C4224F00104C1F80C420168002903
:1074C000FCD0136001680029FCD0BFF34F8F0D483A
:1074D000F0380168144A01F4E06111430160BFF320
:1074E0004F8F00BFFDE7124910480860F0BD000053
:1074F000E00F00F0403501400DF0ADBA00C007408C
:107500003C050040FCED00E0105600400404001073
:1075100020C50040E40E0040000400403C1700403D
:1075200004E5014000E401400400FA050090D003A6
:10753000003800202DE9F047104E042700244FF4B6
:10754000A0784FF4803900BF08EB840509FA04F0F5
:10755000715961B1D6F80413014208D0294630466A
:1075600009F0D5FB0648D0E9002128469047641C65
:10757000E4B2BC42E8D3BDE8F087000000900040D0
:107580007C49002001480068004700006037002067
:1075900038B50848D0F804034FF0000410F0010F8C
:1075A00006D00548406880470448046000680090A1
:1075B00038BD00000000014070370020000101408C
:1075C00010B5124C01202061606111A0A06104F18E
:1075D0004800E0614FF4006020620020A0620CA12E
:1075E0006062C4E90B0104F6480161631021206464
:1075F000C4E90E10606409A1E01DFEF776FF08A142
:107600002046FEF772FF2020A07110BD404C0020E4
:107610005465726D696E616C000000005254540034
:1076200053454747455200000269C1688A4203D862
:107630008068401A104400E0501A401E7047000055
:107640002DE9FC5F0E008146DDE90C47C6F1000024
:1076500098469346824600D40846012503E000BFC1
:1076600090FBFBF06D1C5845FADAA84500D9454659
:1076700024B1002E01DB780700D5641EB80702D5BF
:10768000B8F1000F0FD0F8070DD164B1A5420AD2AE
:1076900020214846641E00F0A1F8D9F80C0000280B
:1076A000F3DABDE8FC9FD9F80C000028F9DB002EC6
:1076B00002DA56462D2102E0780707D52B214846ED
:1076C00000F08CF8D9F80C000028EADB07F0030082
:1076D00002280FD1B8F1000F0CD15CB1A54209D23C
:1076E00030214846641E00F079F8D9F80C000028D3
:1076F000F3DAD6E7CDE9004743465A4631464846D5
:1077000000F002F8CDE700002DE9F84F8246DDE9F0
:107710000A4B0126984691460D460846374602E038
:10772000B0FBF9F07F1C4845FAD2B84500D947466E
:107730005FEACB7017D1B4B15FEA8B7002D5B8F1B4
:10774000000F02D0202000900BE03020FBE75046D5
:10775000641E009900F042F8DAF80C00002838DBCB
:107760000CB1A742F3D3DAF80C00002831DB00BFDC
:10777000B8F1010F02D9A8F1010803E0B5FBF6F05A
:10778000484502D306FB09F6F2E7DFF84C8000BF5C
:10779000B5FBF6F000FB165518F80010504600F047
:1077A0001DF8DAF80C00002803DBB6FBF9F6002E12
:1077B000EED15FEACB700CD0002C0AD0A74208D2E1
:1077C00020215046641E00F009F8DAF80C00002869
:1077D000F2DABDE8F88F0000D043030010B504468C
:1077E000D4E90130421C934205D323681954A260A6
:1077F000E068401CE060D4E90102824209D12168BE
:107800002069FFF7B9FBA168884203D04FF0FF3031
:10781000E06010BD0020A06010BD2DE9F047C468F5
:107820001746894606464FF000083069A04201D944
:10783000051B02E0B168201A0D1AB0686D1E001B0E
:10784000A84200D80546BD4200D33D4670682A468E
:1078500020444946FEF711FEB0687F1B2C44A84423
:10786000A944A04200D10024F460002FDDD140469D
:10787000BDE8F0872DE9F04104468846D4E90207C7
:10788000C51BE168606816460844B54206D9414602
:10789000FEF7F3FDB819E060BDE8F0812A464146E5
:1078A000FEF7EBFD761B08EB050132466068FEF73C
:1078B000E4FDE660F0E70000024A0021024803F020
:1078C000A5BA0000953C03008C44030010B5064C9B
:1078D0002078002806D00548006803F079FA0028CF
:1078E00000D1207010BD0000E83700208C44030058
:1078F00070B541EA4201DDE904564FF0A04441EA87
:10790000830141EA052104EB800041EA0641C0F809
:10791000001770BDF1EE100A054920F09F00E1EE5E
:10792000100AF1EE100A4020C1F8800241DF7047D2
:1079300004E000E070B504000AD00F4D287800285C
:1079400018D100F075FB0246052C07D2052106E090
:1079500000F06EFBBDE8704000F039BC21460748DE
:10796000006803F051FA002804D103F07BFA686044
:107970000120287070BD0000E83700208C4403000F
:1079800002F018BCC117C90341EA5041C0034FF4CB
:10799000FA72801810B541F1000152000023FEF781
:1079A0002CFD10BD10B503F05DFA09494968401A75
:1079B00020F07F4042F21071A0FB01024FF48041A1
:1079C000411842F10000420442EAD13010BD0000EB
:1079D000E83700200549884205D301F50071884247
:1079E00001D2012070470020704700003856002067
:1079F0000449884204D38031884201D20120704773
:107A000000207047985400200549884205D301F5AD
:107A10008071884201D20120704700207047000029
:107A20002855002070B50246FFF7E2FF98B1164CCA
:107A30006068101AC50817E007F038F8A168485DBB
:107A4000401E40B2485510B92069401C2061BDE875
:107A5000704007F043B91046FFF7D6FF40B10A4C1B
:107A600018346068101A0509E068A842E4DC70BDAB
:107A70001046FFF7AFFF0028F9D0034C30346068A0
:107A8000101A4509F0E700004858002070B501467B
:107A900000200125082919D82A4C206928B3D4E9E7
:107AA0000210002602E08A5D1AB1761CB042FAD8B4
:107AB00038E006F0FBFFA06885552069401E206174
:107AC00007F00CF9606800EBC60070BD10291AD8E9
:107AD0001C4C1834206940B1D4E90210002602E0A1
:107AE0008A5D1AB1761CB042FAD81BE006F0DEFFC0
:107AF000A06885552069401E206107F0EFF8606896
:107B000000EB061070BD2029FCD80E4C30342069E3
:107B100040B1D4E90201002602E0825D22B1761C68
:107B2000B142FAD8002070BD06F0C0FFA0688555AC
:107B30002069401E206107F0D1F8606800EB461014
:107B400070BD0000485800200020704710B5044662
:107B5000102000F01BFA00F00BFA01462068C26802
:107B60002046BDE810401047806810B10179042913
:107B700000D00020704710B504468160006881691C
:107B8000204688470021C0B2A16010BD4068704700
:107B900010B50C0008D0A0600168C969884721466B
:107BA000BDE8104004F0A5B810BD000010B50446B3
:107BB0000448206011B900F05BFB0146204661607B
:107BC00010BD0000D844030004F048B9704710B558
:107BD00003F0D2FDBDE8104003F0CFBD0121417696
:107BE0004FF496710164002141628162C1620163B8
:107BF000C1610162416370472DE9F041044680682C
:107C00000125002690F9040001283ED003283FD02A
:107C100004283DD12046FFF7A7FF407988B301280B
:107C200002D0022834D110E084F83F60206C1E3866
:107C3000206405D105206076204600F0D7F827E0C3
:107C40000121204600F00BF922E084F83C6094F812
:107C50003D00214F38B184F83D603878401C3870C1
:107C60000521A06B03E084F83D500421A06B03F0D4
:107C7000C7FA38780A280BD20121204600F06CF8A8
:107C800006E0FFE784F83E6002E0607E012802D053
:107C90002846BDE8F0810220607694F84410204622
:107CA00000F03CF8206A002104F1140210F12000D9
:107CB00050F82130934203D033B1491C0C29F7DB33
:107CC000206A03F023FFBBE740F8212010F8301FA3
:107CD000491C0170F4E700003836002030B4044637
:107CE00090F8460000280AD0606A90F8BC0174DF62
:107CF000002084F84600E06A30BC02F00ABD30BCC7
:107D0000704710B50446012084F845002046FFF76F
:107D1000E5FFA06ABDE8104002F007BD10B50446BB
:107D200090F8450000280DD1607E01280AD0002877
:107D300008D00322606A01F03BFAE06ABDE8104017
:107D400002F00EBD10BD22B1012A04D1012100F0C4
:107D50002CB80021FBE7704710B50446A1B194F898
:107D60003C0000280FD12068C1692046884723467F
:107D700042F21072022103F055FF012084F83C000A
:107D80004FF49670206410BD002084F83C002068F9
:107D9000C169204688472246022103F050FFA06BAC
:107DA000BDE81040022103F02BBA90F83D2039B114
:107DB000002A0ED1012180F83D10806B042106E0DD
:107DC000002A06D0002180F83D10806B052103F0C9
:107DD00017BA704710B5044602206076002120468D
:107DE000FFF7E3FF002084F8450010BD70B504469E
:107DF000806A02F0B5FCE06A02F0B2FC206B02F08F
:107E0000AFFC002584F84550606A90F8BC0174DF2F
:107E100084F8465033DF70BD406A1146B0F88020C8
:107E200000F5A96005F032BE04214176FFF769BF75
:107E300003214176012180F84610072A0ED2DFE89F
:107E400002F00A0D0D0407040700806A02F074BCFA
:107E5000806A02F05EBC806A02F082BC704710B596
:107E6000044689B194F83F0000280CD12068C1690C
:107E700020468847234647F23052012103F0D2FEC4
:107E8000012084F83F0010BD002084F83F002068E6
:107E9000C169204688472246012103F0D0FE4FF4F5
:107EA0009670206410BD2DE9F0410DF118080446CC
:107EB00098E8C400DDE9090504F124082362606341
:107EC00088E8C6000222114602F0E2F900231A46B1
:107ED0001F21606B02F0D4F90122FA21606B02F0DD
:107EE00003FAA563BDE8F0810349044B0A68036106
:107EF000026000F005B800005C4603006047030024
:107F000010B50C0004D1124C124A216802610160C4
:107F10000021FFF74BFE21680F4AC260016051F853
:107F20000C1C22694250E16801610B4948314161F2
:107F30000021417680F8451080F8461080F84810FE
:107F400080F83E1080F83F1080F83C10016410BDAE
:107F50005C460300604703000C46030010B500F0C8
:107F600004F8BDE8104003F079BFFFF72FBE000012
:107F700010B5012400230471437183600473014927
:107F8000016010BD10450300FFF74CBDFFF77EBD3B
:107F90002DE9F341C5680446F5B300202E68D0F8FA
:107FA0000080002E1AD0FFF7FDFC0146304603F09A
:107FB000C4FE019871694069884211D8201D01A949
:107FC0000CF058F801984169304603F0B6FE01986C
:107FD0004469FFF77BFC2046FFF7ACFCBDE8FC8161
:107FE00000277169019803F0A8FE6D687F1C2E6858
:107FF000464504D00199706949698842F1D301AAC4
:108000003946201D0BF0F9FFA0687F1CB842E5D966
:1080100001984169304600E002E003F08EFEDDE7A2
:1080200001A9001D0CF026F801984069D4E7000072
:1080300010B50C4C2079C0070DD1201D04F00DF8AF
:1080400048B1094800F0EEF8084A0949FEF766FA17
:10805000201DAFF300802068002801D10248206075
:1080600010BD0000F0370020105900200060020011
:108070005D820200C06818B100684069FFF75ABC11
:10808000FFF724BC88680268D2681047F0B587B053
:10809000044613460022684603F064FEE56851E09A
:1080A000E0682E680068B04205D1FFF77BFC01460E
:1080B000304603F042FE6946304603F093FEE8B3D3
:1080C000A068012815D968680768A7B10020006872
:1080D000B84203D03846716903F03CFEE06800689E
:1080E000B04208D17F69FFF7F1FB3846FFF722FC69
:1080F00001E0FFF7EBFBE068241DC8B106F0D6FCF9
:10810000A068A84203D120460BF060FF0EE0416852
:1081100061B1A94213D14A6842604A6802B9E0607D
:1081200020460BF02DFF6068401E606006F0D6FD13
:1081300056B1306841683046884705E001E008469E
:10814000E5E76D68002DABD1684603F02DFE07B062
:10815000F0BD2DE9F04104461D4616460F461C2091
:1081600003F023FE2B463246394603F0FBFD0100A7
:1081700004D02046BDE8F041FFF70ABFBDE8F0811A
:10818000FFF784BF0D4810B5007A0C46C00712D126
:108190000A48083003F061FF68B1084A21460C32F2
:1081A00007480BF05DFE074A0749FEF7B7F9034899
:1081B0000830AFF30080024810BD0000F037002007
:1081C0002859002000600200ED3E0300704738B5DA
:1081D0000446C068002824D06068251D69460269ED
:1081E0002846904728680099C26828469047016849
:1081F0002046FFF747FF201D0BF053FF09E02868DA
:10820000406948B9201D0BF04CFF20462968FFF754
:1082100039FFE568002DF2D12046BDE83840FFF770
:1082200029BF38BD70B5054609482860094868600F
:108230000020A860E8602861686107480560FFF7D2
:108240003BFB10212846FFF79DFF6861284670BD63
:108250002045030030450300F037002010B50349E6
:1082600002C00BF02BFF001F10BD000020450300D3
:1082700000487047B058002010B5FFF7D9FEFFF74F
:10828000A5FFBDE810400248002103F0E3BC000058
:10829000B05800202DE9FF4F85B00446DDE91507F1
:1082A000DDE913980025DDF848A0A57284F83800B0
:1082B0003848E063384820644FF6FF70A4F8500255
:1082C00004F50F70C4F84C02FF2084F85C0004F140
:1082D0005D061F20C4F83C62A4F84002C4F8525264
:1082E000A4F856529B4684F858522C2104F10C00F5
:1082F000FEF7DCF84FF4FA7040F6C4114FB1F422E7
:10830000C4E90520206240F60800E0614FF4A9703E
:1083100006E02022C4E90520C4E907204FF4986054
:10832000C4E90901CDE90285CDE900A9DDE906121C
:108330005B46204600F049F8022084F874020121CF
:1083400084F87612201DC4F8780240F25A20A4F86E
:10835000680204F51870C4F870020620A4F86C02D4
:1083600004F51A70C4F83C62C4F8980284F85910F5
:10837000208CA4F8500084F84410A56484F8585068
:10838000E069E064204600F08EF8207209B0BDE894
:10839000F08F000035D0020029D0020030B404462E
:1083A00090F904000D46A8420CD0A07A10B194F8C0
:1083B0005C0074DF2571201DC4F87802204630BCB3
:1083C00000F071B830BC012070472DE9F00F044671
:1083D000DDE909960120DDF82CB0DDF820A020733E
:1083E000A07A1F4690460D4610B194F85C0074DFE9
:1083F0000DB1052000E0062084F877026573A773AD
:1084000084F80F8084F810A084F8119084F82C6010
:108410002EB194F8450040F0020084F84500BBF10D
:10842000000F04D02046BDE8F00F00F03CB8BDE8D6
:10843000F00F7047083005F0D0B910B561F30F04A4
:1084400062F317446BB190F8041304290CD200EBCB
:108450008101C1F8F44290F80413491C80F8041318
:1084600009E090F8B41209B1002010BD0121C0F854
:10847000B04280F8B41200F016F8012010BD30B4FC
:1084800015460B0000F1080403D0204630BC05F06F
:10849000B7B9817A11B190F85C0074DF29462046A3
:1084A00030BC05F0CAB92DE9F041044690F8B40299
:1084B000A4F8840208B104F52C70C4F888020026E0
:1084C00084F8A16294F8041304F52E70804604F237
:1084D0004B1561B13C21FDF7E9FF94F80403A4F8C2
:1084E000C80204F53D70C4F84452C4F8CC021F27FA
:1084F000A4F8407204F5107204F15D0104F51D70DA
:1085000005F03BF894F8040350B1C4F84452A4F8C1
:10851000487204F512722946404605F02EF803E031
:10852000C4F84462A4F8486204F14402002104F152
:108530005C0072DF0120BDE8F081000070B50446E8
:1085400018482060FC202071002104F5187061712A
:108550004FF48072028081700122C27002714171F9
:10856000114E84F8B41284F80413307904F108052C
:10857000C00708D1301D03F070FD20B10B484560E5
:10858000301DAFF300803078C00708D1064803F0F3
:1085900064FD20B1064845600348AFF300802046E3
:1085A00070BD00007846030058360020383800209F
:1085B0005838002070472DE9FF41044608880D46D1
:1085C00010282FD011282FD0502832D051282ED14A
:1085D0002889B4F89810814213D0B4F89C108142D5
:1085E0000FD0B4F84C1081420BD0B4F85010814237
:1085F00007D0B4F8E410814203D0B4F8E810814207
:1086000015D1002000900190029003906A462946FF
:10861000204600F0A9FA0646BDF8040005F1080757
:1086200070B121E0888801E04FF6FF70E087BDE877
:10863000FF8104B0A91D2046BDE8F04100F0A3B9B8
:10864000012E06D13946204600F09CF9BDF8040001
:1086500050B9022E08D1688AADF80A00288AADF810
:10866000080005F114000390A8886946B0DF0028CF
:10867000DDD1BDF804000028D9D1022ED7D139466A
:10868000204600F080F9D2E710B500F10C0200237B
:108690005FF0010052F823408C4204D024B15B1CEF
:1086A0000C2BF7DB002010BD42F8231012F8301F0E
:1086B000491C117010BD70B504464FF6FF70E0877D
:1086C0000220A07241F21100E080A11D04F14002DD
:1086D0000120A8DF002811D104F14801204600F054
:1086E000C9F8054604F19401204600F063F80543FB
:1086F00004F1E001204600F003F8284370BD704704
:1087000070B50E4686B01CA10446D1E90001CDE942
:108710000301227A0720009003AB41F25101304659
:1087200000F0A1FA04F145031D4600220121304664
:1087300000F07CFA304603F03AFB01462846FDF78C
:10874000B5FE0020022201218DE807000A460346FB
:108750000146304600F095FA20790023009001226E
:108760001946304600F031FAB4F84010304600F0B7
:10877000B5FA06B070BD0000436F6D6D616E6400A8
:10878000F0B40B4DDDE904672C7861F3000462F36B
:10879000430463F3061466F3C7142C70C5F8017024
:1087A000C18F2B46F0BC0522943000F0A1BA000026
:1087B0007336002030B518A20D46044687B007CAAC
:1087C00003AB83E80700227A0A20009041F23101CE
:1087D000284600F048FA00231A460521284600F0F2
:1087E00025FA0121002000900B460A46CDE901013F
:1087F0000146284600F045FA2079002300901A46E9
:108800001946284600F0E1F9B4F84010284600F077
:1088100065FA07B030BD00004144532056616C75C5
:10882000657300002DE9F0410F460546002400F174
:108830000C060CE005EB8400C06830B156F824004B
:108840003A780168CB6829469847641CE4B295F8E9
:108850003C00A042EED8BDE8F0810000044B197046
:10886000A3F80120C18F0322943000F041BA000028
:108870007036002070B588B00E46044614221BA145
:1088800003A8FDF7FAFD227A1120009003AB41F214
:108890004101304600F0E7F904F142031D46002291
:1088A0000321304600F0C2F9304603F080FA014659
:1088B0002846FDF7FBFD0020022201218DE807007C
:1088C0000A4603460146304600F0DBF920790023D2
:1088D000009001221946304600F077F9B4F84010B4
:1088E000304600F0FBF908B070BD00004144532051
:1088F000436F6E66696775726174696F6E00000020
:108900002DE9F0410F460546002400F10C060FE06A
:1089100005EB8400C06848B156F82400B7F8013070
:108920003A780168D1F808C02946E047641CE4B2EF
:1089300095F83C00A042EBD8BDE8F08110B50446A4
:108940000171483000F0ECF9217904F1940000F055
:10895000E7F9217904F1E000BDE8104000F0E0B94A
:108960000022091D51F82230834203D01BB1521C52
:108970000C2AF7DB704741F8220011F8300F401C39
:1089800008707047704730B40A88B0F89C309A423B
:1089900002D14B89022B13D0B0F84C4001F10C03EB
:1089A000A24202D14C89032C0FD0B0F8E440A2427D
:1089B0000FD1498901290CD130BC1946FFF732BFCC
:1089C000898930BC943000F041BA30BC1946FFF7B9
:1089D00097BF30BC7047000010B500F0EFF80021E1
:1089E0000A460C3040F82120491C0C29FADB80F89B
:1089F0003020074940F80C1C3C3000F085FA4C3020
:108A000000F082FA4C3000F07FFAE03810BD000030
:108A10008846030010B5084940F8E01B00F092FAC0
:108A20004C3800F08FFA4C3800F08CFABDE810405A
:108A3000483800F0C9B8000088460300AFF3008052
:108A400038B5044608F0BEF80020009069460120C1
:108A500008F006F8684608F051F80E4D2879C0076E
:108A600008D1281D03F0F9FA20B10B484460281DF5
:108A7000AFF300802878C00708D1064803F0EDFA6C
:108A800020B1064844600348AFF3008000203FDF78
:108A900038BD0000603600204038002060380020DB
:108AA00008466DDF08B100207047062070470000BF
:108AB00070B50E46054600240EE000BF05EB8400AD
:108AC000406838B1281D002250F8240001680B6866
:108AD00031469847641CE4B295F83400A042EDD8C2
:108AE00070BD000070B50E46054600240DE000BFC5
:108AF00005EB8400406830B1281D50F8240001685F
:108B00004A6831469047641CE4B295F83400A042AC
:108B1000EED870BD00210A4610F1040040F8212073
:108B2000491C0C29FADB80F83020024940F8041D6A
:108B300070470000AC460300704700238372027147
:108B40000172016849690847012907D0022907D045
:108B5000002902D14FF48070988070479A80704746
:108B60009A80012098717047F8B506468C790020EC
:108B7000106050609060D060147088881546694617
:108B800009F0C0F9A0B9012C05D0022C03D02B4666
:108B90004FF4837208E0307960B19DF800008007DF
:108BA00008D42B464FF4847221463046FFF7CCFFA1
:108BB0002046F8BD2B460022F6E70000014901607F
:108BC00070470000BC460300704730B490F82A405C
:108BD000029D11B144F0080101E024F0080180F881
:108BE0002A10C9B212B141F0100101E021F01001C8
:108BF00080F82A1090F82D1021F0080180F82D102F
:108C000090F82B2022F00F02521C22F0F0021032BA
:108C100080F82B2013B141F0100101E021F0100188
:108C200080F82D10294630BC00F07AB830B590F8A5
:108C30002A40012532B144F0010280F82A2080F850
:108C40004A5005E024F0010280F82A2080F84A10FA
:108C500000F1440202631C3A426305870022428706
:108C60008187036430BD10B5029C80F84620A0F8CF
:108C7000441003618482C4820021C1618161416228
:108C800010BDF0B5047BDDE9055724F03004079EE4
:108C9000047333B14FF0010C80F849C044F0100464
:108CA00006E035B14FF0020C80F849C044F02004D2
:108CB0000473E4B262F3410467F3C30461F3820412
:108CC00004732B4302D000F12B0100E0002140F897
:108CD000201F817A66F342018172F0BD10B50C4607
:108CE000031D00F1300200F10C012046AADF10BD87
:108CF000F8B516460F461D4604461A46314600F0A2
:108D0000B4F800280BD194F84810002907D000953A
:108D100094F8492033463946204600F0D4F8F8BD8F
:108D2000027B930704D490F8283023F0FF0325E05A
:108D300090F82A30C3F3C0035B420B4208D190F88D
:108D4000283023F00F035B1C23F0F003103315E0F1
:108D5000012902D0022913D108E090F8283023F02D
:108D60000F035B1C23F0F003203307E090F828305A
:108D700023F00F035B1C23F0F003303380F828301E
:108D8000130704D490F8293023F0FF0325E090F86E
:108D90002A30C3F300135B420B4208D190F829300C
:108DA00023F00F035B1C23F0F003103315E00129BF
:108DB00002D0022913D108E090F8293023F00F03E4
:108DC0005B1C23F0F003203307E090F8293023F0F8
:108DD0000F035B1C23F0F003303380F82930D306F7
:108DE00006D4920604D410F82C1F21F0FF0115E0E0
:108DF00090F82A20530890F82D2063F3420280F85F
:108E00002D20C2F3001252420A4209D110F82C1F41
:108E100021F00F01491C21F0F00110310170704761
:108E200001290AD00229FAD110F82C1F21F00F01D4
:108E3000491C21F0F0013031F0E710F82C1F21F02F
:108E40000F01491C21F0F0012031E7E7027BD30636
:108E500003D4920601D4002104E090F849200A428C
:108E6000F9D0012180F8481070472DE9FC410446F3
:108E70000D4690F82A0017460C26A18FC20701D094
:108E8000A94201D2A9420ED10026C0F34100012817
:108E90000CD0206CFDF70AFB2A463946206CFDF702
:108EA000ECFA84F84A503046BDE8FC81002000907E
:108EB000ADF800500197A1886A464FF6FF70ACDF0D
:108EC0000600EED0EFE730B585B00C460146ADF8B0
:108ED00010300820089DA4F57F43FF3B11D00020EF
:108EE00000900190029003908988ADF8040004A8D6
:108EF000CDE90205ADF800108DF802206946204644
:108F0000AEDF05B030BD000070B504460C482060EF
:108F1000002584F8485084F849501C2104F10C00C5
:108F2000FDF7C4FA258584F82A50A4F82B5084F85C
:108F30002D50142104F13000FDF7B8FA204670BD21
:108F4000DC46030070470A46B0F8801000F58D60DB
:108F500000F0C2BC2DE9F04100250446C567806DD4
:108F60000F461646816804F15800884794F80C05AE
:108F70001A4A20F0010084F80C050021184801F07D
:108F800045FF4FF4C87037B13968C4F8821079686A
:108F9000C4F8861009E05021A4F88210A021A4F89A
:108FA0008410A4F88650A4F8880036B13068C4F85C
:108FB0008A007068C4F88E0009E01021A4F88A10B5
:108FC0002021A4F88C10A4F88E50A4F8900004F589
:108FD0009160BDE8F04100F0D3BD000059D002001F
:108FE000F4410300082901D000F026B8704710B5FD
:108FF000016E91F90410012906D0042904D190F8DA
:10900000971009B100F0C8F8012010BD10B5044652
:10901000A0F880200748006801F0DAFE0322D11F83
:10902000204600F070F82046BDE81040012100F015
:1090300044BA0000F441030070B50E460446002512
:109040000EE0E8B204EB8000406840B1201DE9B2B8
:10905000324650F8210001688B68214698476D1C04
:1090600094F83400A842ECD870BD70B50E460446A2
:10907000002510E0E8B204EB8000406850B104F134
:109080000400E9B250F8210001684EB14B68324645
:10909000214698476D1C94F83400A842EAD870BD68
:1090A0000A6821469047F5E770B50E46044600254C
:1090B0000EE0E8B204EB8000406840B1201DE9B248
:1090C000324650F8210001684B69214698476D1CD3
:1090D00094F83400A842ECD870BD69B1002200EBCE
:1090E0008203D3F89C358B4201D1012070472BB10C
:1090F000521C12F0FF02F2D00020704700EB8200F9
:10910000C0F89C15F1E72DE9F04104460E461746DC
:10911000104601F00DFE012F04D0022F32D0032F94
:1091200038D121E094F96411B14201D186422BD0AB
:1091300094F8BC0174DF050001D0082D2AD104F594
:10914000B07031468046FFF729F918B394F8BC1186
:109150003246384601F006FEE0B1ADB903220021E7
:109160004046FFF78CF90FE086420DD0B4F880102E
:10917000A1F57F40FF380DD032463846BDE8F041BA
:1091800001F0F0BD864202D10120BDE8F081B4F8C3
:109190008010F1E70020F8E7B0F88010A1F57F42D9
:1091A000FF3A04D0002100F58D6000F0D3BB70477A
:1091B00070B516460D0004460FD0012084F89600C5
:1091C000024600212046FFF79EFF0C4822464FF43E
:1091D0007011006801F018FE07E094F8960020B9BD
:1091E0000122511F2046FFF78EFF3246294604F523
:1091F000B070BDE87040FFF742B90000F4410300D1
:109200002DE9F0410E4617460446002510E0E8B26D
:1092100004EB8000406850B1201DE9B23B4650F895
:10922000210032460168D1F81CC02146E0476D1C80
:1092300094F83400A842EAD8BDE8F08109B1FFF7FC
:1092400014BF03220021FFF7B3BFF8B5044608207E
:10925000C4F85801C4F85C0104F5AE7004F1D803F9
:10926000021F04F1A00100901E460D4604F2D440F6
:1092700000F07CFD04F5B470D4E956242946334649
:10928000009404F0F0FBF8BD38B504464FF6FF70CB
:10929000A4F8800094F80C05C1070FD020F001005D
:1092A00084F80C0594F87A3094F8792094F87810C2
:1092B000C0F340000090204600F07DF800212046D9
:1092C00000F047F9012084F898000021204600F0C2
:1092D000F4F82046BDE8384003220021FFF768BFBC
:1092E0002DE9F04F85B00446994692468B4600F230
:1092F000D440DDF8388000F07CFE064600210120D5
:10930000CDE90101CDE903010090E06F08B1012131
:1093100000E0002100234A4604F5B070FEF7BAFFD2
:1093200094F9642194F8BC11012001F01BFD04F5AF
:10933000A26000F089FE174F002500BF04EB8500F6
:10934000D0F89C0518B139793246FFF7F6FB6D1C51
:1093500015F0FF05F2D0204600F028F94B465246A2
:1093600059462046CDF8008000F025F804F58D60C0
:1093700000F090FA04F26C400168A14204D019B9DF
:1093800004600179491C017105B0BDE8F04F08F097
:1093900025BE00004036002038B590F87A3090F8AD
:1093A000792090F8781000240094FFF799FF38BDD9
:1093B000194600F069B82DE9FF41044664300A9E61
:1093C000017542758375B4F880001D46A0F57F4392
:1093D000FF3B0ED094F80C05002140F0010066F32D
:1093E000410084F80C0504B02046BDE8F041FFF7C9
:1093F000AABD04F2D44084F8F954002300F0B4FD6F
:10940000204600F0EFF804F1920004F18A0304F51D
:109410008D6C00271EB1CDE90007E16F04E0CDE9B6
:109420000003E16F04F182032246604600F08AF9EE
:1094300001200090CDE90107002303901A46294638
:1094400004F5B070FEF7C1FFBDE8FF8110B504461A
:109450000846012100F0E7FA48B10021204600F05B
:1094600078F82046BDE810400021FFF71DBE02211C
:109470002046FFF719FE1420A4F894002046BDE80A
:109480001040012100F065B870B50E460446002575
:109490000EE0E8B204EB8000406840B1201DE9B264
:1094A000324650F8210001688B69214698476D1CAF
:1094B00094F83400A842ECD870BD70B50E4604464E
:1094C000002511E0E8B204EB8000406858B104F1D7
:1094D0000400E9B250F8210001680EB1CA6800E04A
:1094E0000A69214690476D1C94F83400A842E9D8D7
:1094F00070BD10B50446002084F8960004F5B470E1
:1095000004F028F9B4F88000A0F57F41FF3905D1B7
:109510002046BDE810400322FFF74ABE10BD70B5DB
:109520001C4605461946049AFFF76AFE14F0FF0F21
:1095300005D02846BDE870400021FFF704BD70BD8E
:109540000121FFF700BD0B2A02D10121FFF7FBBC6F
:10955000704770B5044690F8970004F15805A1B122
:10956000002821D1012084F8970094F89800002861
:109570001AD0A06DC169284688472B46BDE87040C7
:1095800044F62062012102F04DBB00280CD00026D9
:1095900084F89760A06DC169284688472A46012152
:1095A00002F04DFBA4F8946070BD000070B5054654
:1095B0005FF0000405EB8400D0F89C1561B1887A57
:1095C00050B1012801D0012300E000230A7AC988A4
:1095D00005F5B070FEF731FF641C14F0FF04E9D00C
:1095E00070BD000070B505465FF0000405EB840017
:1095F000D0F89C0520B1026895F8F81412699047DC
:10960000641C14F0FF04F1D070BD38B50446C16786
:10961000084604F19901FFF743FA00200090012366
:10962000224604F2D440E16F00F032FB04F2145001
:10963000002150F82120A24203D01AB1491C0C2964
:10964000F7DB38BD40F8214010F8301F491C01708D
:1096500038BD18226430FCF710BF000010B5021DA1
:1096600000210C4642F82140491C0C29FADB82F803
:1096700030401E49516302F1540082F850400021ED
:10968000FEF794FA1A4940F8581D343181631831B5
:10969000816500F1640101224C820C754C758A755C
:1096A000CC754FF6FF71A0F8801000F5B070FEF792
:1096B00045FF00F5427000F057FA203000F0D4FA70
:1096C0004C3000F09FFC3C3000F038FD0021A0F54C
:1096D000A26000BF00EB8102491CC2F89C4511F05A
:1096E000FF01F7D080F8974010BD00001848030034
:1096F000EC46030010B500F005F8BDE8104002F09C
:10970000ADBB000010B50E490160343181631831E2
:10971000816500F5A26000F023FD3C3800F084FC78
:109720004C3800F0B3FA203800F028FAA0F5427067
:10973000FEF740FFA0F58470FEF748FA583810BDD8
:10974000EC460300F0B41C46DDE90456C26049B1A2
:109750000022091D51F82230834203D043B1521C2C
:109760000C2AF7DB33462A462146F0BC00F0B4B998
:1097700041F8220011F8302F521C0A70F2E7000065
:109780002DE9FF410546088801270C46222816D0FE
:1097900024DC4FF00006132811D012DC012858D029
:1097A00010282FD0112835D0122808D104F1080034
:1097B0007ADFA188284600F0E5F86E742F75BDE8C1
:1097C000FF81152830D019283AD01B28F7D021283E
:1097D000F5D10096888869468FDFF0E73B28EED008
:1097E00006DC2328EBD188880022114690DFE6E7CB
:1097F000512832D05228E2D1002388881A461946CF
:10980000B1DFDCE72E75898804B02846BDE8F04159
:1098100000F07CB88988284600F0CCF804B02846CF
:10982000BDE8F04100F08AB80196A0680090A089D8
:10983000ADF8040089886A46284600F0D7F8BEE7EC
:10984000A188D4E9022304B02846BDE8F04100F025
:1098500018B98888002166DFB1E7A1790029AED068
:10986000A07B042803D0062801D00528A7D102290F
:109870000AD08DF8007000BF4FF4C170ADF804003D
:10988000A0886946B0DF9AE702208DF80000F3E770
:109890007047000000B587B01C216846FCF706FE43
:1098A00000204FF4F021CDE900014900029103218D
:1098B0008DF80C10ADF80E008DF8100004480590DE
:1098C00004480690684604F0A9F907B000BD0000FE
:1098D0003D1403002D1403000846132102B13B215F
:1098E00076DF704710B50446C07C00280AD10648D0
:1098F00022464FF40041006801F086FA002801D1A9
:109900000120E07410BD0000F041030070B50E4668
:10991000054600240EE000BF05EB8400406838B126
:10992000281D324650F8240001688B682946984764
:10993000641CE4B2287AA042EED870BDC17C002934
:1099400004D1C1740248006801F042BA70470000B7
:10995000F041030010B504468174407C0028204685
:1099600003D0BDE81040FFF7BDBF00F05CF807284A
:1099700006D1012060742046BDE8104000F06FB8A9
:1099800010BD000070B50E46054600240EE000BF75
:1099900005EB8400406838B1281D324650F8240099
:1099A00001680B6829469847641CE4B2287AA042F3
:1099B000EED870BD70B50E46054600240EE000BF1F
:1099C00005EB8400406838B1281D324650F8240069
:1099D0000168CB6829469847641CE4B2287AA04203
:1099E000EED870BD0021C17400F039B82DE9F04106
:1099F00016460F460546002410E000BF05EB840024
:109A0000406848B1281D334650F824003A460168A2
:109A1000D1F810C02946E047641CE4B2287AA0427D
:109A2000ECD8BDE8F0817CB504460D4668467BDF86
:109A3000002813D1A26915B1E16901B10A46BDF848
:109A4000003011888B4208D35288934205D8BDF864
:109A500002308B4201D3934200D907207CBD10B560
:109A60000446007D38B100202075A17C204600F01E
:109A700027F8112804D12046BDE81040FFF732BF77
:109A800010BDFFB581B00F4605460024BDF810603B
:109A900011E005EB8400406858B1281D3A4650F8A3
:109AA0002400ADF80060039B0168D1F814C029467A
:109AB000E047641CE4B2287AA042EAD805B0F0BDC1
:109AC0000A00816902D0C26902B11146C068B0F8CB
:109AD000800004F083B800002DE9F04304461078BC
:109AE00085B020F00F00401C20F0F00010308846B8
:109AF000107099461646082714216846FCF7D6FCD4
:109B0000E5683A4610A168469935FCF7B6FC6B79D2
:109B1000AA7910A102A802F0D5F90D2269463046B3
:109B20007CDF802078DF4046C4E906897ADF217C2B
:109B3000002905D10A4A0B4801F068F90121217476
:109B400005B0BDE8F083000048656174466C6F772E
:109B50000000000020253032582530325800000027
:109B6000FBE30200F0410300002141600172024A60
:109B70000260C160017470477047030070470000C5
:109B800010B538300C49044606F02AFDF72120466E
:109B900006F01AFD09480078C0070BD1074802F00B
:109BA0005CFA002806D006484460BDE8104003482F
:109BB00002F05BBA10BD00005114030068360020AB
:109BC000483800201188A1F52061773909D001F6C5
:109BD000FD71B1F5604F09D1137951881A4600F033
:109BE00025B8938851881A4600F002B870470000E3
:109BF0002DE9F04116460F460546002410E000BF4F
:109C000005EB8400406848B1281D334650F8240015
:109C10003A460168D1F800C02946E047641CE4B226
:109C200095F83400A042EBD8BDE8F0812DE9F04171
:109C300016460F460546002410E000BF05EB8400E1
:109C4000406848B1281D334650F824003A46016860
:109C5000D1F804C02946E047641CE4B295F834000A
:109C6000A042EBD8BDE8F08100210A4610F10400C3
:109C700040F82120491C0C29FADB80F830200249E9
:109C800040F8041D7047000088470300704700003B
:109C90002DE9F0410446002001251E4611F1040182
:109CA00051F82030A34203D053B1401C0C28F7DBFD
:109CB0004FF6FF70E081626094F8260038B10BE047
:109CC00041F8204011F8300F401C0870F0E708F010
:109CD00063F908B984F826500EB108F0A5FB94F892
:109CE0002700002806D1044808F0D2FB002801D143
:109CF00084F82750BDE8F081711B03000A88192AF7
:109D000004D0762A02D14FF6FF72C281704700005C
:109D100038B508460821144600914FF6FF7269468F
:109D200008F03CFA0098206002A0009900F0F1FFD2
:109D300038BD00005B53656375726974795D206797
:109D40006574506565724C6973742829203E2050F3
:109D500065657227732077686974656C6973742010
:109D6000636F756E743A2025640D0A0070B51D4648
:109D70001446049E084633462A46214608F0AEFBA8
:109D8000050004D132680348216800F0C2FF28466C
:109D900070BD000098490300704770B50546806AA1
:109DA0000C4608B105F0FCF92046EC6202F05AF8C6
:109DB000A86270BD002205E0836A02F13101995466
:109DC000521CD2B2C16A9142F6D8816A016300F195
:109DD0003001222067DF70477FB5054608780C46C2
:109DE000102810D2DFE800F0080F100F290F310FF4
:109DF000350F0F0F0F0F0F41A08808F057FA0028FA
:109E000001D0A088E8817FBDA088E881A08808F003
:109E10004DFA08F091F90828F5D903AB6A4602A972
:109E200001A808F09FFA0028EDD1A188BDF8000034
:109E30008142E8D008F0A8F97FBD0E486946006865
:109E40000090608808F059F87FBDBDE87F4004F0BD
:109E5000EDBF207CC007F7D0207A0728F4D104B0EA
:109E60002846BDE8704000F029B8BDE87F4008F002
:109E7000B5B80000F841030010B5002396B00446C1
:109E80001A46194614A808F06DFABDF85000A0F55E
:109E90007F41FF390FD0694608F058F9052808D0EE
:109EA000002806D160680DF1110100F5B070FEF7D1
:109EB000C1FA16B010BD0B20FBE7000070B50446D8
:109EC00010304FF6FF7210210546FCF7E8FA082023
:109ED0002062012304F1200229462046FFF718FFE3
:109EE00008220E48216A00F014FF2846216A08F073
:109EF0000BFB10B90A4800F00CFF2846216A08F055
:109F00003DF8062806D0002806D10648BDE8704076
:109F100000F0FFBE04A0F9E770BD00002449030073
:109F2000DC480300884803005B53656375726974FD
:109F3000795D205F63726561746557686974656CEB
:109F400069737450656572732829203E5768697477
:109F5000656C697374206E6F7420737570706F72A6
:109F600074656420210D0A0070B5044690F826003F
:109F70001D46002650B394F8270038B3881884F89B
:109F8000240034D004F10800A6600346267302B111
:109F90000121207A61F3000062F3410020F07C008F
:109FA000303020F080002072072060721020A072F4
:109FB000E07A40F00300E07203202073184608F0B6
:109FC0007DFA064694F8250030B901E0082070BDFE
:109FD00094F8240002280AD12046FFF76FFF94F876
:109FE0002400022803D115B12046FFF7E3FE3046D6
:109FF00070BD0AB10220704709B1012070470020EE
:10A000007047000010B5044606482060002084F820
:10A01000260084F82700A06206212046FFF7BDFE37
:10A02000204610BD9847030010B50446054820603F
:10A03000002084F8260084F82700A06A05F0B0F814
:10A04000204610BD9847030010B504460B48007821
:10A05000C0070AD1094802F000F830B1084904F1FC
:10A06000380048600548AFF30080204600F00AF849
:10A070002046BDE8104000F01FB800006C360020FC
:10A08000503800201FB50021039101910291094928
:10A090000091012164228DF80C208DF80D108DF8AF
:10A0A0000E108DF804108DF80F106946383003F04B
:10A0B0004DFD1FBD291403003EB504464C30402120
:10A0C0000546FCF7F3F915A1284604F07FF916A11F
:10A0D00004F1540004F07AF914A104F1640004F0CE
:10A0E00075F914A104F16C0004F070F900200090DF
:10A0F0000190029042F211730FA20B21684601F009
:10A10000C9FE694604F15C0004F060F9012084F89E
:10A110008800284603F0A8FF3EBD000048454920BE
:10A1200053696F6E00000000312E3000312E302E4A
:10A1300030000000302E3100256C750000210A46E9
:10A1400010F1040040F82120491C0C29FADB80F8AA
:10A150003020024940F8041D70470000B04703005A
:10A16000704710B5044640790B46002807D1100A05
:10A170009A71D871211D184662DF0120607110BDEF
:10A18000024901600021017141717047C04703001D
:10A190007047000010B51021054A084603F024F866
:10A1A000002803D0BDE8104002F0A2BF10BD00009F
:10A1B0001C43002002F0F8BF08B509A2032812686A
:10A1C00000920AD21DF800006A4611B100F01FF992
:10A1D00001E000F011F9012008BD002008BD0000D9
:10A1E0001211100008B508A103280968009108D2CF
:10A1F00000221DF800000123114600F0E2F80120C2
:10A2000008BD002008BD0000121110000121FFF759
:10A21000D3BF0021FFF7D0BF10B5044690F84C0023
:10A22000002806D004F1100006F0AEFD002084F8EE
:10A230004C0010BDB1F5FA4F01D3002103E0B1F598
:10A240007A5F02D3012141777047B1F5FA5F01D3FC
:10A250000221F8E7B1F57A6F01D30321F3E7B1F5F5
:10A26000FA6F01D30421EEE7B1F57A7F01D305211E
:10A27000E9E7B1F5FA7F01D30621E4E70721E2E738
:10A28000042A04D203B1802310440B4303767047A1
:10A2900010B504460020C1B101291AD0022913D1FA
:10A2A0000E4B236102232375217107212177A077AB
:10A2B00084F8222084F823006177204600F034F8E7
:10A2C000E168B0FBF1F0208410BD054B23612075DF
:10A2D000EAE7044B23610123E5E700000020024088
:10A2E00000C001400010024070B504460D46481EF3
:10A2F0000C491646884201D3002070BD2046FFF766
:10A300008BFF1EB129462046FFF794FF2046E560EB
:10A3100000F00AF800210B46E26800F01FFD2084DF
:10A32000012070BD0024F400407F082815D2DFE82A
:10A3300000F00406080A0C0E10120948704709487C
:10A3400070470948704709487047094870470948ED
:10A35000704709487047094870470020704700005F
:10A360000024F40000127A0000093D0080841E00E1
:10A3700040420F0020A1070090D0030048E80100F0
:10A3800010B504460D482060FF202071FA20E060DF
:10A3900000206062A06284F84C0020616061A061CE
:10A3A000E0612062FF220421601DFCF778F8202183
:10A3B00004F12C00FCF77AF8204610BDD0470300CA
:10A3C00070471CB50024C9B2CDE90014D1B2DAB28D
:10A3D0000B460121FDF78CFA1CBD7CB500242546F7
:10A3E000002300950122194620460195FDF780FAC9
:10A3F000641C202CF4D37CBD10B502464FF0A04461
:10A4000001200021FCF72AF8C4F8080510BD10B59A
:10A4100002464FF0A04401200021FCF71FF8C4F8C9
:10A420000C0510BD10B50449393006F0CFFD08B158
:10A43000002010BD012010BD892A03000A4610B576
:10A4400000F13D01104606F059FD08B1002010BD95
:10A45000012010BD10B5044690F84A00002805D030
:10A4600006F05AFE002084F84A00012010BD0000CA
:10A4700070B5064608780C4640B1022805D1304632
:10A4800000F062F8002086F84B0070BD0F4D287870
:10A49000052809D9012086F84B00287006F094FCA5
:10A4A00006F012FD0028FBD196F84B000028ECD1F5
:10A4B0002189606806F0B6FC20B9228930466168BF
:10A4C00000F054F82878401C287070BD4C360020ED
:10A4D000CA7880F83C200A7800F8392F4A78427010
:10A4E000897881707047CA7880F840208A7880F82F
:10A4F0003F200A7980F841204A7980F842208A7901
:10A5000080F84320CA7980F844200A7A80F84520F0
:10A510000A7800F83D2F49784170704710B5012244
:10A5200080F83C20022300F8393F002141700624C6
:10A530008470C1718171037241728172C272017340
:10A5400001714171C27410BD10B50446012146303D
:10A5500006F068FC28B9012104F1480006F062FC0D
:10A5600008B1002010BD012010BD00002DE9F04110
:10A5700016460F46054600240CE000BF55F824009F
:10A5800030B1016833463A46D1F800C02946E04769
:10A59000641CE4B295F83000A042EFD8BDE8F08129
:10A5A00010B51346044601B113B994F84C00B8B184
:10A5B0002046FFF78DFF19462046FFF794FF2046FF
:10A5C000FFF730FF00280AD000212046FFF736FFB2
:10A5D000002804D02046FFF7B7FF84F84A0010BDDA
:10A5E0002046FFF79BFFEAE710B590F84A000028E5
:10A5F00002D006F07BFD012010BD0022114640F87C
:10A600002210521C0C2AFADB80F8301080F84A1015
:10A6100080F84B1080F84C10704770474173C2812E
:10A6200003820846FFF7DEBD70B504468068002649
:10A63000012590F9040001282BD004282FD12046B1
:10A64000FDF792FA4079012829D1E674A07CF8B18F
:10A65000207B022802D0032821D10AE0E089B8B18A
:10A66000204600F051F82068C16920468847E289F9
:10A6700009E0208A60B1204600F052F82068C169E4
:10A6800020468847228A2346012101F0CBFAE5744F
:10A6900005E0207B012802D1204600F041F8284641
:10A6A00070BD70B50446807C002500B1A574E07CC7
:10A6B000002808D02068C169204688472246012129
:10A6C00001F0BDFAE57470BD10B50446C089B0B1A3
:10A6D000A07C08B1002911D02046FFF7E2FF2046F8
:10A6E00000F012F82068C16920468847E2892346B5
:10A6F000012101F097FA0120A074E07410BD2046FA
:10A70000BDE81040FFF7CDBF03210173407BFFF789
:10A710007DBD828BC18BC28101820021FFF7D4BF36
:10A7200002210173407BFFF774BD828AC18AC28116
:10A7300001820021FFF7C8BF028B418BC2810182D9
:10A740000021FFF7C1BF10B50446FFF7AAFF207B29
:10A75000022804D12046BDE81040FFF7D5BF10BD48
:10A7600010B50446FFF79DFF207B032804D1204647
:10A77000BDE81040FFF7D4BF10BD000010B50021A8
:10A78000FDF714FA0A490160002181740122027365
:10A790004173C174642181828A00C28201834FF4B3
:10A7A00061724283818340F63C71C18310BD000019
:10A7B000E047030010B500F004F8BDE8104001F0D8
:10A7C0004DBBFDF703BA02280BD0012809D003289E
:10A7D00007D0042805D0052803D0062801D0002082
:10A7E000704701207047012180F83510002180F862
:10A7F0006810704770B50546002409E005EB840039
:10A80000816B284600F04AF8002809D0641CE4B2A5
:10A8100095F86800A042F1D8284600F0CBF9012055
:10A8200070BD000070B5002300EB8304A46B8C4264
:10A8300001D1012070BD3CB15B1CDBB20C2BF3D30A
:10A8400000F074F8002070BD064D2C88661C2E8028
:10A850008A8000EB8302CC80916310F8681F491C4A
:10A860000170E6E77836002010B50446486820B14C
:10A870000E2805D0204600F059F8022084F8350053
:10A8800010BD10B50446486820B10E2805D02046FA
:10A8900000F04CF8022084F8350010BD2DE9FF418E
:10A8A00005460C000FD095F8350048B1012807D0B7
:10A8B000B4F80480E688284600F02FF938B102E0A9
:10A8C000284600F033F8002004B0BDE8F0810020F5
:10A8D00000900190032085F83500042004F1100752
:10A8E00020776B463A463146404604F045FB022647
:10A8F0000A2817D00028E3D102A9384604F05CFBEF
:10A900000028DDD120680399C268204690470520C1
:10A910002077384604F010FB0028D1D185F8356047
:10A920000120D1E705202077F8E7000070B5044644
:10A93000062084F8350000250DE000BF04EB8500FB
:10A94000406830B1201D50F8250001680A69214691
:10A9500090476D1CEDB294F83400A842EED870BD5B
:10A960004A682AB1072A07D0082A03D0FFF7DEBFBA
:10A9700000F0A8B8052100E0042180F835107047E8
:10A980002DE9FC41054690F83500022804D0052841
:10A9900002D0012840D045E0002095F8681008E07A
:10A9A00005EB8002946B14B1227F012A04D0401C75
:10A9B000C0B28142F4D835E000200090019003201D
:10A9C00085F8350004F11008261D0027E188A088CD
:10A9D0006B46424604F0D0FA10B10A2806D00AE0CD
:10A9E0003146404604F00CFB062704E03146404661
:10A9F00004F00DFB022720B1072809D008280ED14A
:10AA000001E027770EE0052085F83500BDE8FC81E0
:10AA1000042085F8350009E004F026FA10B1284634
:10AA2000FFF784FF95F835000428EFD104F0FEF914
:10AA30000028EBD00828E9D02846BDE8FC41FFF704
:10AA400075BF70B5054608780C46062835D2DFE894
:10AA500000F00308111A23302146284600F0F2F8CE
:10AA60002BE0207BFFF7AFFE38B32146284600F0ED
:10AA7000F5F822E0207BFFF7A6FEF0B1214628463C
:10AA800000F02AF919E0207BFFF79DFEA8B12146CE
:10AA90002846FFF7F6FE10E0207BFFF794FE18B182
:10AAA00021462846FFF7E0FE2846BDE8704000F04A
:10AAB000D7B82146284600F093F82846BDE87040F4
:10AAC000FFF75EBF70B50023044602251DE000BFFE
:10AAD00004EB8300826BB2B190888E89B04206D1BC
:10AAE000D088CE89B04202D1032010770BE0107FCE
:10AAF00048B1032807D0072805D0052803D000BF98
:10AB000084F8355070BD5B1CDBB294F86800984245
:10AB1000DED8204600F022F8F2E7087F042805D0AE
:10AB2000022803D0062801D000207047012070477A
:10AB300070B5054600240CE005EB8400406830B198
:10AB4000281D50F8240001688A6829469047641C33
:10AB5000E4B295F83400A042EED870BD70B5054659
:10AB600000240CE005EB8400406830B1281D50F84B
:10AB7000240001680A6829469047641CE4B295F8ED
:10AB80003400A042EED870BD70B5054600240CE03C
:10AB900005EB8400406830B1281D50F8240001689E
:10ABA000CA6829469047641CE4B295F83400A04274
:10ABB000EED870BD70B5054600240CE005EB8400AE
:10ABC000406830B1281D50F8240001684A682946C1
:10ABD0009047641CE4B295F83400A042EED870BDF2
:10ABE000496819B10E2904D0FFF7A0BE022180F8F0
:10ABF0003510704710B5044690F8350086B001282E
:10AC000010D10F4804F008FA48B914216846FBF740
:10AC10004DFC684604F016FA30B102280BD02046ED
:10AC2000FFF784FE06B010BD022084F835002046F0
:10AC3000FFF7AAFFF6E72046FFF7A2FEF2E70000C3
:10AC4000BD330300496819B10E2906D0FFF76EBE67
:10AC5000022180F83510FFF797BF7047FFF780BEDD
:10AC60002DE9F041044690F8350050B1012808D094
:10AC7000032809D094F8680038B30025DFF8548021
:10AC80001FE02046FFF752FE0020BDE8F08100BF24
:10AC900004EB8507B86B017F082910D08688B8F8C7
:10ACA000020086420BD0032084F83500304604F0C1
:10ACB0009BF820B9A8F80260B86B082101776D1CD9
:10ACC000EDB294F86800A842E2D82046FFF730FFC2
:10ACD0000120DAE778360020FFF742BE00210A465D
:10ACE00010F1040040F82120491C0C29FADB80F8FF
:10ACF0003020044940F8041D034980F8352048609D
:10AD00007047000008480300783600207047FCF7C1
:10AD10007FB90FB400B5C1B043AA6846429901F0AB
:10AD2000E5F869460020FFF7F2FF41B05DF814FB3B
:10AD30000949012806D002280AD0032805D06FF05F
:10AD40007F00704791F90000704791F9010070474A
:10AD500091F9020070470000AB36002010B500F0FA
:10AD600039F810BD70B51446054612F1080F18D019
:10AD70000DDC6FF0130014F1280F11D0844210D0B5
:10AD800014F1100F0DD014F10C0F0ED109E014F1D5
:10AD9000040F06D02CB1032C03D0042C05D100E005
:10ADA00004462246284677DF08B1002070BD0748D8
:10ADB000012D05D0022D05D0032D04D1447002E0F1
:10ADC000047000E08470012070BD0000AB360020EC
:10ADD00002F0A8BA70B50C4650EA04010AD052EA53
:10ADE00003010AD059084FEA320528186141FBF7E0
:10ADF00004FB70BD0020014670BD0B2002F078F905
:10AE00004FF0FF30014670BD02F048BA10B531B1C5
:10AE1000012904D004A0FFF77CFF072010BDBDE886
:10AE2000104002F0FDB900005B53444B546F6F6C4F
:10AE3000735D2063726561746554696D657228295C
:10AE4000203E204E6F2076616C69642076616C75BF
:10AE50006520666F722074696D65724D6F64652040
:10AE6000210D0A0002F0D6B9B0F5004F09D3C04356
:10AE7000401C80B200EE100AB8EE400AB1EE400A63
:10AE8000704700EE100AB8EE400A704710B5FFF7A1
:10AE900081F9BDE8104002F0D7B970472DE9F843B9
:10AEA00004468846084600F0A0FA050007D0134E75
:10AEB0004FF47A47711C384688476D1EFAD1104806
:10AEC00098F805100E4B017098F8042042708170BC
:10AED000C27004201B1D02460090191F204600F07E
:10AEE00011F838B10648001D0178407861F30F244D
:10AEF00060F30704A0B2BDE8F8830000004203003D
:10AF0000A336002010B500F1280C029C8CE81E002E
:10AF100000226146103006F055FA08B1002010BD3D
:10AF2000012010BD2DE9F04104468068022600276B
:10AF300090F9040001283CD00425032802D00428FD
:10AF40003BD126E0217B607B814236D0022905D0AF
:10AF50000522032916D004292FD10BE004282CD177
:10AF6000032020730121204600F085F8204600F0E0
:10AF700062F822E0052807D004281ED1204600F000
:10AF800081F81AE0052812D12273204600F066F8F5
:10AF900013E02046FCF7E8FD407901280DD184F844
:10AFA0005070207B032802D0052806D104E02573C9
:10AFB000E4E7207B012800D126730120BDE8F08161
:10AFC00070B506460C4608461546002100F0B6F955
:10AFD00018B92946204600F0C3F90122214630461F
:10AFE00000F00FF80146A0F57F40FF3808D00DB102
:10AFF000012200E000222046BDE8704000F040BA87
:10B0000070BD70B5064615460C46C879FFF7FFF9C6
:10B010003DB121463046FFF741FF21463046FFF75C
:10B020003DFF21463046FFF739FF0546E079FFF73F
:10B03000E3F9284670BD40F6C412012100F08EB835
:10B04000A1F50442803A06D0B1F5106F02D14FF05D
:10B050008041016270474FF00051FAE710B5044695
:10B06000002100F008F82046BDE810404FF47A7245
:10B07000012100F073B84FF0140009B1FFF7C7B910
:10B08000FFF7BAB970B5002205461146866B00F08D
:10B09000B0F82B4C2078102807D22AA34FF00002DA
:10B0A00031462846FFF78CFF09E00CD130464FF0BF
:10B0B000000100F001F981B2304600F0B7F92078C4
:10B0C000401C207017E06078102807D21FA34FF0B3
:10B0D000030231462846FFF773FF09E00BD13046E3
:10B0E0004FF0010100F0E8F881B2304600F09EF91F
:10B0F0006078401C60702178E86B102915D9617860
:10B10000102912D9A178102908D2014611A30022D2
:10B110002846FFF755FFA078401C05E0002100F00D
:10B1200053F9002020706070A07005F1100006F047
:10B130000DF92846BDE870406422012100F00EB8E8
:10B14000A036002052617720412E310052617720D5
:10B15000412E320052617720422E310070B50446F4
:10B1600090F85000154689B100281ED1012084F8BE
:10B170005000032020732068C16920468847AAB286
:10B180002346BDE87040012100F04CBD00280CD0E2
:10B19000002084F850002068C16920468847224674
:10B1A000BDE87040012100F04ABD70BD70B5044695
:10B1B00081631546084600F0B1F80421A06B00F049
:10B1C000E1F8A06B00F0F0F84FF410612046FFF7B3
:10B1D00037FF012084F824002846E56300F09EF83C
:10B1E0000521E06B00F0CEF8E06BBDE8704000F0A8
:10B1F000DBB813460A4600F11801103005F0C6BF4F
:10B2000041730168CA6800F14001104710B5002180
:10B21000FCF7CCFC1A4940F8401B00230A211A46CF
:10B2200000F09CFA17490160A0F14004012121734C
:10B2300002206073002084F8500084F85100124A04
:10B24000226118222276172262761622A276062220
:10B250002277FF226277E27620758A07226284F8DD
:10B26000241084F825000123002203211420FFF775
:10B27000A8F800212046FFF7FEFE204610BD000082
:10B2800030480300004503000030004010B500F0D6
:10B2900005F8BDE8104000F0E1BD000010B505491B
:10B2A00040F8401B00F068FABDE810404038FCF759
:10B2B0008DBC00003048030030B4044600200D4629
:10B2C00001460246034604EB451500BF05EB420468
:10B2D000648920185941521CD2B2102AF6D3102288
:10B2E00030BC0023FFF73ABDC2710172017921F031
:10B2F000060141F00101891C21F0F00141F0080133
:10B3000080310171417921F00E0141F001010A31D2
:10B3100021F0700141F080014171704710B5017951
:10B320000A0709D441F0080101718288017AC06CD2
:10B33000FDF794FA012010BD002010BD10B58279F0
:10B340008A420BD0027961F3041202718171828802
:10B35000017AC06CFDF782FA012010BD002010BDFB
:10B3600010B54279C2F302138B4209D061F3061281
:10B3700042718288017AC06CFDF770FA012010BD1D
:10B38000002010BD10B54279C2F342038B4209D0B0
:10B3900061F3430242718288017AC06CFDF75EFA64
:10B3A000012010BD002010BD10B54179CA0701D0A1
:10B3B000002010BD41F0010141718288017AC06C0A
:10B3C000FDF74CFA012010BD1CB50446FFF774FFD1
:10B3D0000021CDE900106079217AC0F34203C0F367
:10B3E0000212E06CFDF7CCF91CBD0079400907287A
:10B3F00013D2DFE800F00406080A0C0E10008220C9
:10B4000070474120704728207047142070470A2059
:10B41000704705207047032070470220704703469D
:10B420000846D9649A88197AFDF718BA10B5044607
:10B430002DED028B82B00846FFF716FD60790E49AC
:10B44000C0F3420301EB8301C0F30212D1ED000A05
:10B450000121009120EE200ADFED080A20EE208A6B
:10B460008DED018A217AE06CFDF78AF902B0B0EE29
:10B47000480ABDEC028B10BD803600200000003869
:10B4800030B5851800EB421015F84A3F03F00F0461
:10B490005B1C00EB44002B70418130BD0249016010
:10B4A0000321817170470000584803007047000075
:10B4B00010B51048FDF770FF0F491048FDF7E4F88C
:10B4C0000E490F48FFF7ABFF0C490E48FFF7A7FFE7
:10B4D0000D48FCF73BFB0D48FCF738FB0C48FCF72C
:10B4E00035FB0C48FCF732FB0348BDE81040103830
:10B4F000FCF72CBBF038002078380020903E00206C
:10B50000C841002018420020BC3F0020DC3F002042
:10B51000FC3F0020684200200148FFF76BB90000A3
:10B520001C40002070477047704700000148FFF73B
:10B5300061BB00001C4000207047000010B50446AD
:10B540000748007803280AD12046FFF7E5FF204688
:10B5500000F0F8F82046BDE81040FFF7A9BF10BD85
:10B560003C36002010B504460948032901700DD16E
:10B57000204600F083F8204600F098F8204600F0BE
:10B5800009F82046BDE81040FFF7D0BF10BD00000D
:10B590003C36002010B5044686B02A492A48FEF7FA
:10B5A00034F82949042238312848FFF73BF9254966
:10B5B0002748FDF7D5F92749274800F091FA0122DD
:10B5C00025492248FFF72EF927480DF1040C234B9B
:10B5D000234A24498CE80F00244800901E4B1B4A44
:10B5E00019492348FCF75FFC224A23491B48FFF70F
:10B5F000DDFD1649091D002251F82200A04203D0AA
:10B6000090B1521C0C2AF7DB0F48194A001D0C326E
:10B610005FF0000150F82130934203D05BB1491C28
:10B620000C29F7DB06B010BD41F8224011F8300FAD
:10B63000401C0870E8E740F8212010F8301F491C32
:10B640000170EFE7B8380020F03800201C400020DF
:10B65000903E002088400020D84000206842002012
:10B6600078410020FC3F0020DC3F0020BC3F002050
:10B670006838002018420020C84100201FB5FFF79D
:10B6800005FC0748FDF7DAF9064B0FCB8DE80F00F4
:10B690004FF4B85269460448FEF763FD1FBD000031
:10B6A000B8380020BC4103004036002010B500220D
:10B6B00011461948FDF74EFC18491748FDF70DFDD6
:10B6C0004FF47A7423461A4600211548FEF7A6FF68
:10B6D00023461A4601211348FEF7A0FF23461A46C7
:10B6E00002211148FEF79AFF104800F05DF810485B
:10B6F000FFF779F80B2201210E48FFF7F5FD0C2228
:10B7000002210D48FFF7F0FD0C48FFF7C6FBBDE82E
:10B7100010400B48FCF762BAF0380020903E002041
:10B72000BC3F0020DC3F0020FC3F0020D840002030
:10B730001C400020C8410020184200206842002020
:10B7400068380020704700000249034A0160002168
:10B7500011707047544503003C36002010B5032497
:10B7600004714171826003730149016010BD0000E2
:10B7700070450300FCF756B97047FCF753B9000059
:10B7800010B5044690F8670048B106480068FFF716
:10B790001FFB00284FF0000002D184F86700012051
:10B7A00010BD0000EC41030010B5044690F866009F
:10B7B000002809D1054A00210548FFF727FB00288A
:10B7C00002D1012084F8660010BD0000BDD4020043
:10B7D000EC41030010B5044690F8670050B90648E4
:10B7E00022460068FFF710FB08B1002010BD0120C1
:10B7F00084F86700012010BDEC4103001FB5012152
:10B800008DF80F10002102228DF80C208DF80420F5
:10B810008DF803108DF805108DF802108DF80610C4
:10B820008DF80D1009228DF8001006238DF80720E1
:10B830008DF808108DF801108DF80E30D0F88800C2
:10B840006A4603A9FEF7ACFE04B010BD2DE9F04135
:10B85000044690F85800052845D1244D052B02D9FF
:10B860000523002001E0002015E094F8681032F86C
:10B87000106004EB4107491C84F86810A7F85C606D
:10B8800032F810102E883144298094F86810052968
:10B8900007D0401CC0B29842E7D394F8680005284E
:10B8A0001BD3062084F8580094F86800B5F90010FE
:10B8B00091FBF0F001B240F6C410814201D2014682
:10B8C00004E0B1F5805F01D340F6FF7100202880CD
:10B8D00084F86800204600F03BF82046E16FBDE8A0
:10B8E000F041FFF777BFBDE8F0810000543600203B
:10B8F00090F85A2029B1192A01D8072112E006210F
:10B9000010E0A2F11001092901D803210AE0A2F1F7
:10B910000B01042901D8042104E00A2A01D80521D9
:10B9200000E0012190F859208A4203D080F8591094
:10B9300000F05DB87047000090F85910062905D056
:10B94000072903D05FF00001FFF7D2BF0121FBE719
:10B9500070B5044688B2C30F002240F6C416361AEA
:10B96000114672EB030511D21946FAF760FE00EE9C
:10B97000100AD4ED230A20EE200A10EE100AFAF77E
:10B9800064FED4E92423821A61EB03010020D2F182
:10B990006403884101DA6422002194F85A00101AE5
:10B9A00071F1000109DA84F85A20204600F006F807
:10B9B0002046BDE87040FFF7BFBF70BD70B50546BB
:10B9C000002400F120060DE005EB8400006A38B188
:10B9D00056F8240095F85A2001684B682946984784
:10B9E000641CE4B295F85000A042EDD870BD70B56B
:10B9F0000546002400F120060DE005EB8400006AF6
:10BA000038B156F8240095F8592001680B6829468A
:10BA10009847641CE4B295F85000A042EDD870BD80
:10BA200070B50026044680F8676090F85800052538
:10BA3000032833D004281DD0052832D0062818D179
:10BA400094F85900062837D0072835D0D4F870501C
:10BA5000D4F88800FEF7FEFC00280AD029462046CC
:10BA6000FFF7B8FE002804D084F89860042084F81A
:10BA7000580070BDD4F8880090F84A000028F8D12A
:10BA80002046FFF7BBFE84F89800E16F2046FFF7E1
:10BA9000A1FE0028EDD084F8585070BDD4F8801075
:10BAA000F4E7204600F041F80028F6D02046E16F88
:10BAB000BDE87040FFF78EBE656FC9E710B504465C
:10BAC00000F026F894F85800022808D1042084F8E1
:10BAD00058002046E16FBDE81040FFF77BBE10BD67
